{
  "contractName": "NFT",
  "abi": [
    {
      "inputs": [
        {
          "internalType": "address",
          "name": "origin",
          "type": "address"
        }
      ],
      "stateMutability": "nonpayable",
      "type": "constructor"
    },
    {
      "anonymous": false,
      "inputs": [
        {
          "indexed": true,
          "internalType": "address",
          "name": "owner",
          "type": "address"
        },
        {
          "indexed": true,
          "internalType": "address",
          "name": "approved",
          "type": "address"
        },
        {
          "indexed": true,
          "internalType": "uint256",
          "name": "tokenId",
          "type": "uint256"
        }
      ],
      "name": "Approval",
      "type": "event"
    },
    {
      "anonymous": false,
      "inputs": [
        {
          "indexed": true,
          "internalType": "address",
          "name": "owner",
          "type": "address"
        },
        {
          "indexed": true,
          "internalType": "address",
          "name": "operator",
          "type": "address"
        },
        {
          "indexed": false,
          "internalType": "bool",
          "name": "approved",
          "type": "bool"
        }
      ],
      "name": "ApprovalForAll",
      "type": "event"
    },
    {
      "anonymous": false,
      "inputs": [
        {
          "indexed": false,
          "internalType": "address",
          "name": "owner",
          "type": "address"
        },
        {
          "indexed": false,
          "internalType": "uint256",
          "name": "price",
          "type": "uint256"
        },
        {
          "indexed": false,
          "internalType": "uint256",
          "name": "id",
          "type": "uint256"
        },
        {
          "indexed": false,
          "internalType": "string",
          "name": "uri",
          "type": "string"
        }
      ],
      "name": "AttemptPurchase",
      "type": "event"
    },
    {
      "anonymous": false,
      "inputs": [
        {
          "indexed": false,
          "internalType": "address",
          "name": "owner",
          "type": "address"
        },
        {
          "indexed": false,
          "internalType": "uint256",
          "name": "price",
          "type": "uint256"
        },
        {
          "indexed": false,
          "internalType": "uint256",
          "name": "id",
          "type": "uint256"
        },
        {
          "indexed": false,
          "internalType": "string",
          "name": "uri",
          "type": "string"
        }
      ],
      "name": "Purchase",
      "type": "event"
    },
    {
      "anonymous": false,
      "inputs": [
        {
          "indexed": true,
          "internalType": "address",
          "name": "from",
          "type": "address"
        },
        {
          "indexed": true,
          "internalType": "address",
          "name": "to",
          "type": "address"
        },
        {
          "indexed": true,
          "internalType": "uint256",
          "name": "tokenId",
          "type": "uint256"
        }
      ],
      "name": "Transfer",
      "type": "event"
    },
    {
      "inputs": [],
      "name": "_owner",
      "outputs": [
        {
          "internalType": "address payable",
          "name": "",
          "type": "address"
        }
      ],
      "stateMutability": "view",
      "type": "function"
    },
    {
      "inputs": [
        {
          "internalType": "address",
          "name": "to",
          "type": "address"
        },
        {
          "internalType": "uint256",
          "name": "tokenId",
          "type": "uint256"
        }
      ],
      "name": "approve",
      "outputs": [],
      "stateMutability": "nonpayable",
      "type": "function"
    },
    {
      "inputs": [
        {
          "internalType": "address",
          "name": "owner",
          "type": "address"
        }
      ],
      "name": "balanceOf",
      "outputs": [
        {
          "internalType": "uint256",
          "name": "",
          "type": "uint256"
        }
      ],
      "stateMutability": "view",
      "type": "function"
    },
    {
      "inputs": [
        {
          "internalType": "uint256",
          "name": "tokenId",
          "type": "uint256"
        }
      ],
      "name": "getApproved",
      "outputs": [
        {
          "internalType": "address",
          "name": "",
          "type": "address"
        }
      ],
      "stateMutability": "view",
      "type": "function"
    },
    {
      "inputs": [
        {
          "internalType": "address",
          "name": "owner",
          "type": "address"
        },
        {
          "internalType": "address",
          "name": "operator",
          "type": "address"
        }
      ],
      "name": "isApprovedForAll",
      "outputs": [
        {
          "internalType": "bool",
          "name": "",
          "type": "bool"
        }
      ],
      "stateMutability": "view",
      "type": "function"
    },
    {
      "inputs": [],
      "name": "name",
      "outputs": [
        {
          "internalType": "string",
          "name": "",
          "type": "string"
        }
      ],
      "stateMutability": "view",
      "type": "function"
    },
    {
      "inputs": [
        {
          "internalType": "uint256",
          "name": "tokenId",
          "type": "uint256"
        }
      ],
      "name": "ownerOf",
      "outputs": [
        {
          "internalType": "address",
          "name": "",
          "type": "address"
        }
      ],
      "stateMutability": "view",
      "type": "function"
    },
    {
      "inputs": [],
      "name": "price",
      "outputs": [
        {
          "internalType": "uint256",
          "name": "",
          "type": "uint256"
        }
      ],
      "stateMutability": "view",
      "type": "function"
    },
    {
      "inputs": [
        {
          "internalType": "address",
          "name": "from",
          "type": "address"
        },
        {
          "internalType": "address",
          "name": "to",
          "type": "address"
        },
        {
          "internalType": "uint256",
          "name": "tokenId",
          "type": "uint256"
        }
      ],
      "name": "safeTransferFrom",
      "outputs": [],
      "stateMutability": "nonpayable",
      "type": "function"
    },
    {
      "inputs": [
        {
          "internalType": "address",
          "name": "from",
          "type": "address"
        },
        {
          "internalType": "address",
          "name": "to",
          "type": "address"
        },
        {
          "internalType": "uint256",
          "name": "tokenId",
          "type": "uint256"
        },
        {
          "internalType": "bytes",
          "name": "_data",
          "type": "bytes"
        }
      ],
      "name": "safeTransferFrom",
      "outputs": [],
      "stateMutability": "nonpayable",
      "type": "function"
    },
    {
      "inputs": [],
      "name": "selling",
      "outputs": [
        {
          "internalType": "bool",
          "name": "",
          "type": "bool"
        }
      ],
      "stateMutability": "view",
      "type": "function"
    },
    {
      "inputs": [
        {
          "internalType": "address",
          "name": "operator",
          "type": "address"
        },
        {
          "internalType": "bool",
          "name": "approved",
          "type": "bool"
        }
      ],
      "name": "setApprovalForAll",
      "outputs": [],
      "stateMutability": "nonpayable",
      "type": "function"
    },
    {
      "inputs": [],
      "name": "symbol",
      "outputs": [
        {
          "internalType": "string",
          "name": "",
          "type": "string"
        }
      ],
      "stateMutability": "view",
      "type": "function"
    },
    {
      "inputs": [
        {
          "internalType": "uint256",
          "name": "index",
          "type": "uint256"
        }
      ],
      "name": "tokenByIndex",
      "outputs": [
        {
          "internalType": "uint256",
          "name": "",
          "type": "uint256"
        }
      ],
      "stateMutability": "view",
      "type": "function"
    },
    {
      "inputs": [
        {
          "internalType": "address",
          "name": "owner",
          "type": "address"
        },
        {
          "internalType": "uint256",
          "name": "index",
          "type": "uint256"
        }
      ],
      "name": "tokenOfOwnerByIndex",
      "outputs": [
        {
          "internalType": "uint256",
          "name": "",
          "type": "uint256"
        }
      ],
      "stateMutability": "view",
      "type": "function"
    },
    {
      "inputs": [],
      "name": "token_id",
      "outputs": [
        {
          "internalType": "uint256",
          "name": "",
          "type": "uint256"
        }
      ],
      "stateMutability": "view",
      "type": "function"
    },
    {
      "inputs": [],
      "name": "totalSupply",
      "outputs": [
        {
          "internalType": "uint256",
          "name": "",
          "type": "uint256"
        }
      ],
      "stateMutability": "view",
      "type": "function"
    },
    {
      "inputs": [
        {
          "internalType": "address",
          "name": "from",
          "type": "address"
        },
        {
          "internalType": "address",
          "name": "to",
          "type": "address"
        },
        {
          "internalType": "uint256",
          "name": "tokenId",
          "type": "uint256"
        }
      ],
      "name": "transferFrom",
      "outputs": [],
      "stateMutability": "nonpayable",
      "type": "function"
    },
    {
      "inputs": [],
      "name": "getOwner",
      "outputs": [
        {
          "internalType": "address",
          "name": "",
          "type": "address"
        }
      ],
      "stateMutability": "view",
      "type": "function"
    },
    {
      "inputs": [],
      "name": "isForSale",
      "outputs": [
        {
          "internalType": "bool",
          "name": "",
          "type": "bool"
        }
      ],
      "stateMutability": "view",
      "type": "function"
    },
    {
      "inputs": [],
      "name": "getPrice",
      "outputs": [
        {
          "internalType": "uint256",
          "name": "",
          "type": "uint256"
        }
      ],
      "stateMutability": "view",
      "type": "function"
    },
    {
      "inputs": [
        {
          "internalType": "uint256",
          "name": "_token_id",
          "type": "uint256"
        }
      ],
      "name": "tokenURI",
      "outputs": [
        {
          "internalType": "string",
          "name": "",
          "type": "string"
        }
      ],
      "stateMutability": "view",
      "type": "function"
    },
    {
      "inputs": [
        {
          "internalType": "bytes4",
          "name": "interfaceId",
          "type": "bytes4"
        }
      ],
      "name": "supportsInterface",
      "outputs": [
        {
          "internalType": "bool",
          "name": "",
          "type": "bool"
        }
      ],
      "stateMutability": "view",
      "type": "function"
    },
    {
      "inputs": [
        {
          "internalType": "address",
          "name": "origin",
          "type": "address"
        },
        {
          "internalType": "string",
          "name": "_tokenURI",
          "type": "string"
        },
        {
          "internalType": "uint256",
          "name": "_token_id",
          "type": "uint256"
        },
        {
          "internalType": "uint256",
          "name": "_price",
          "type": "uint256"
        }
      ],
      "name": "mint",
      "outputs": [
        {
          "internalType": "bool",
          "name": "",
          "type": "bool"
        }
      ],
      "stateMutability": "nonpayable",
      "type": "function"
    },
    {
      "inputs": [
        {
          "internalType": "address",
          "name": "origin",
          "type": "address"
        }
      ],
      "name": "buy",
      "outputs": [],
      "stateMutability": "payable",
      "type": "function"
    },
    {
      "inputs": [
        {
          "internalType": "address",
          "name": "origin",
          "type": "address"
        },
        {
          "internalType": "uint256",
          "name": "new_price",
          "type": "uint256"
        }
      ],
      "name": "sell",
      "outputs": [],
      "stateMutability": "nonpayable",
      "type": "function"
    }
  ],
  "bytecode": "0x60806040523480156200001157600080fd5b50604051620022973803806200229783398101604081905262000034916200016d565b604080518082018252600c81526b14dd1bdc9e515b195b595b9d60a21b602080830191825283518085019094526002845261534560f01b9084015281519192916200008291600091620000c7565b50805162000098906001906020840190620000c7565b5050600b80546001600160a01b0319166001600160a01b039390931692909217909155506000600c55620001da565b828054620000d5906200019d565b90600052602060002090601f016020900481019282620000f9576000855562000144565b82601f106200011457805160ff191683800117855562000144565b8280016001018555821562000144579182015b828111156200014457825182559160200191906001019062000127565b506200015292915062000156565b5090565b5b8082111562000152576000815560010162000157565b6000602082840312156200017f578081fd5b81516001600160a01b038116811462000196578182fd5b9392505050565b600281046001821680620001b257607f821691505b60208210811415620001d457634e487b7160e01b600052602260045260246000fd5b50919050565b6120ad80620001ea6000396000f3fe6080604052600436106101815760003560e01c80636c197ff5116100d1578063a22cb4651161008a578063c87b56dd11610064578063c87b56dd14610422578063d566813114610442578063e985e9c514610457578063f088d5471461047757610181565b8063a22cb465146103cd578063b2bdfa7b146103ed578063b88d4fde1461040257610181565b80636c197ff51461033957806370a0823114610359578063893d20e81461037957806395d89b411461038e57806398d5fdca146103a3578063a035b1fe146103b857610181565b806323aed2281161013e57806342842e0e1161011857806342842e0e146102b95780634a5dc3aa146102d95780634f6ccce7146102f95780636352211e1461031957610181565b806323aed2281461026457806323b872dd146102795780632f745c591461029957610181565b806301ffc9a71461018657806306fdde03146101bc578063081812fc146101de578063095ea7b31461020b57806318160ddd1461022d57806320b08dc21461024f575b600080fd5b34801561019257600080fd5b506101a66101a1366004611864565b61048a565b6040516101b3919061198d565b60405180910390f35b3480156101c857600080fd5b506101d161049d565b6040516101b39190611998565b3480156101ea57600080fd5b506101fe6101f936600461189c565b61052f565b6040516101b3919061190f565b34801561021757600080fd5b5061022b61022636600461183b565b61057b565b005b34801561023957600080fd5b50610242610613565b6040516101b39190611f3a565b34801561025b57600080fd5b506101a6610619565b34801561027057600080fd5b506101a6610629565b34801561028557600080fd5b5061022b6102943660046116de565b610639565b3480156102a557600080fd5b506102426102b436600461183b565b610671565b3480156102c557600080fd5b5061022b6102d43660046116de565b6106c3565b3480156102e557600080fd5b506101a66102f43660046117cc565b6106de565b34801561030557600080fd5b5061024261031436600461189c565b610727565b34801561032557600080fd5b506101fe61033436600461189c565b610782565b34801561034557600080fd5b5061022b61035436600461183b565b6107b7565b34801561036557600080fd5b50610242610374366004611692565b6107ed565b34801561038557600080fd5b506101fe610831565b34801561039a57600080fd5b506101d1610840565b3480156103af57600080fd5b5061024261084f565b3480156103c457600080fd5b50610242610855565b3480156103d957600080fd5b5061022b6103e8366004611792565b61085b565b3480156103f957600080fd5b506101fe610871565b34801561040e57600080fd5b5061022b61041d366004611719565b610880565b34801561042e57600080fd5b506101d161043d36600461189c565b6108bf565b34801561044e57600080fd5b506102426108ca565b34801561046357600080fd5b506101a66104723660046116ac565b6108d0565b61022b610485366004611692565b6108fe565b600061049582610a3e565b90505b919050565b6060600080546104ac90611fb2565b80601f01602080910402602001604051908101604052809291908181526020018280546104d890611fb2565b80156105255780601f106104fa57610100808354040283529160200191610525565b820191906000526020600020905b81548152906001019060200180831161050857829003601f168201915b5050505050905090565b600061053a82610a63565b61055f5760405162461bcd60e51b815260040161055690611d78565b60405180910390fd5b506000908152600460205260409020546001600160a01b031690565b600061058682610782565b9050806001600160a01b0316836001600160a01b031614156105ba5760405162461bcd60e51b815260040161055690611e5c565b806001600160a01b03166105cc610a80565b6001600160a01b031614806105e857506105e881610472610a80565b6106045760405162461bcd60e51b815260040161055690611bb4565b61060e8383610a84565b505050565b60095490565b600b54600160a01b900460ff1690565b600b54600160a01b900460ff1681565b61064a610644610a80565b82610af2565b6106665760405162461bcd60e51b815260040161055690611e9d565b61060e838383610b77565b600061067c836107ed565b821061069a5760405162461bcd60e51b8152600401610556906119ab565b506001600160a01b03919091166000908152600760209081526040808320938352929052205490565b61060e83838360405180602001604052806000815250610880565b600b5460009085906001600160a01b038083169116146106fd57600080fd5b600c839055600d8490556107113085610ca4565b61071b8486610d83565b50600195945050505050565b6000610731610613565b821061074f5760405162461bcd60e51b815260040161055690611eee565b6009828154811061077057634e487b7160e01b600052603260045260246000fd5b90600052602060002001549050919050565b6000818152600260205260408120546001600160a01b0316806104955760405162461bcd60e51b815260040161055690611c5b565b600b5482906001600160a01b038083169116146107d357600080fd5b50600c5550600b805460ff60a01b1916600160a01b179055565b60006001600160a01b0382166108155760405162461bcd60e51b815260040161055690611c11565b506001600160a01b031660009081526003602052604090205490565b600b546001600160a01b031690565b6060600180546104ac90611fb2565b600c5490565b600c5481565b61086d610866610a80565b8383610dc7565b5050565b600b546001600160a01b031681565b61089161088b610a80565b83610af2565b6108ad5760405162461bcd60e51b815260040161055690611e9d565b6108b984848484610e6a565b50505050565b606061049582610e9d565b600d5481565b6001600160a01b03918216600090815260056020908152604080832093909416825291909152205460ff1690565b7fcc798afac0ca558aa6acf371eff1cbf6769ab248f4fdf4359ad7a28b5dae342b81600c54600d54610931600d546108bf565b6040516109419493929190611960565b60405180910390a1600b54600160a01b900460ff166109725760405162461bcd60e51b815260040161055690611afa565b600c543410156109945760405162461bcd60e51b815260040161055690611b7d565b600b546040516001600160a01b03909116903480156108fc02916000818181858888f193505050501580156109cd573d6000803e3d6000fd5b50600b80546001600160a01b0319166001600160a01b0383161760ff60a01b19169055600c54600d547f6d5507734d4d9e8592119c9e6b3e2bf7eab8bd6252f36e2fa05a5588442479da918391610a23816108bf565b604051610a339493929190611960565b60405180910390a150565b60006001600160e01b0319821663780e9d6360e01b1480610495575061049582610fb6565b6000908152600260205260409020546001600160a01b0316151590565b3390565b600081815260046020526040902080546001600160a01b0319166001600160a01b0384169081179091558190610ab982610782565b6001600160a01b03167f8c5be1e5ebec7d5bd14f71427d1e84f3dd0314c0f7b2291e5b200ac8c7c3b92560405160405180910390a45050565b6000610afd82610a63565b610b195760405162461bcd60e51b815260040161055690611b31565b6000610b2483610782565b9050806001600160a01b0316846001600160a01b03161480610b5f5750836001600160a01b0316610b548461052f565b6001600160a01b0316145b80610b6f5750610b6f81856108d0565b949350505050565b826001600160a01b0316610b8a82610782565b6001600160a01b031614610bb05760405162461bcd60e51b815260040161055690611dc4565b6001600160a01b038216610bd65760405162461bcd60e51b815260040161055690611a7f565b610be1838383610ff6565b610bec600082610a84565b6001600160a01b0383166000908152600360205260408120805460019290610c15908490611f6f565b90915550506001600160a01b0382166000908152600360205260408120805460019290610c43908490611f43565b909155505060008181526002602052604080822080546001600160a01b0319166001600160a01b0386811691821790925591518493918716917fddf252ad1be2c89b69c2b068fc378daa952ba7f163c4a11628f55a4df523b3ef91a4505050565b6001600160a01b038216610cca5760405162461bcd60e51b815260040161055690611cf2565b610cd381610a63565b15610cf05760405162461bcd60e51b815260040161055690611a48565b610cfc60008383610ff6565b6001600160a01b0382166000908152600360205260408120805460019290610d25908490611f43565b909155505060008181526002602052604080822080546001600160a01b0319166001600160a01b03861690811790915590518392907fddf252ad1be2c89b69c2b068fc378daa952ba7f163c4a11628f55a4df523b3ef908290a45050565b610d8c82610a63565b610da85760405162461bcd60e51b815260040161055690611ca4565b6000828152600660209081526040909120825161060e92840190611572565b816001600160a01b0316836001600160a01b03161415610df95760405162461bcd60e51b815260040161055690611ac3565b6001600160a01b0383811660008181526005602090815260408083209487168084529490915290819020805460ff1916851515179055517f17307eab39ab6107e8899845ad3d59bd9653f200f220920489ca2b5937696c3190610e5d90859061198d565b60405180910390a3505050565b610e75848484610b77565b610e8184848484611001565b6108b95760405162461bcd60e51b8152600401610556906119f6565b6060610ea882610a63565b610ec45760405162461bcd60e51b815260040161055690611d27565b60008281526006602052604081208054610edd90611fb2565b80601f0160208091040260200160405190810160405280929190818152602001828054610f0990611fb2565b8015610f565780601f10610f2b57610100808354040283529160200191610f56565b820191906000526020600020905b815481529060010190602001808311610f3957829003601f168201915b505050505090506000610f6761111c565b9050805160001415610f7b57509050610498565b815115610fad578082604051602001610f959291906118e0565b60405160208183030381529060405292505050610498565b610b6f8461112e565b60006001600160e01b031982166380ac58cd60e01b1480610fe757506001600160e01b03198216635b5e139f60e01b145b806104955750610495826111b1565b61060e8383836111ca565b6000611015846001600160a01b0316611253565b1561111157836001600160a01b031663150b7a02611031610a80565b8786866040518563ffffffff1660e01b81526004016110539493929190611923565b602060405180830381600087803b15801561106d57600080fd5b505af192505050801561109d575060408051601f3d908101601f1916820190925261109a91810190611880565b60015b6110f7573d8080156110cb576040519150601f19603f3d011682016040523d82523d6000602084013e6110d0565b606091505b5080516110ef5760405162461bcd60e51b8152600401610556906119f6565b805181602001fd5b6001600160e01b031916630a85bd0160e11b149050610b6f565b506001949350505050565b60408051602081019091526000815290565b606061113982610a63565b6111555760405162461bcd60e51b815260040161055690611e0d565b600061115f61111c565b9050600081511161117f57604051806020016040528060008152506111aa565b8061118984611259565b60405160200161119a9291906118e0565b6040516020818303038152906040525b9392505050565b6001600160e01b031981166301ffc9a760e01b14919050565b6111d583838361060e565b6001600160a01b0383166111f1576111ec81611374565b611214565b816001600160a01b0316836001600160a01b0316146112145761121483826113b8565b6001600160a01b0382166112305761122b81611455565b61060e565b826001600160a01b0316826001600160a01b03161461060e5761060e828261152e565b3b151590565b60608161127e57506040805180820190915260018152600360fc1b6020820152610498565b8160005b81156112a8578061129281611fed565b91506112a19050600a83611f5b565b9150611282565b60008167ffffffffffffffff8111156112d157634e487b7160e01b600052604160045260246000fd5b6040519080825280601f01601f1916602001820160405280156112fb576020820181803683370190505b5090505b8415610b6f57611310600183611f6f565b915061131d600a86612008565b611328906030611f43565b60f81b81838151811061134b57634e487b7160e01b600052603260045260246000fd5b60200101906001600160f81b031916908160001a90535061136d600a86611f5b565b94506112ff565b600980546000838152600a60205260408120829055600182018355919091527f6e1540171b6c0c960b71a7020d9f60077f6af931a8bbf590da0223dacf75c7af0155565b600060016113c5846107ed565b6113cf9190611f6f565b600083815260086020526040902054909150808214611422576001600160a01b03841660009081526007602090815260408083208584528252808320548484528184208190558352600890915290208190555b5060009182526008602090815260408084208490556001600160a01b039094168352600781528383209183525290812055565b60095460009061146790600190611f6f565b6000838152600a60205260408120546009805493945090928490811061149d57634e487b7160e01b600052603260045260246000fd5b9060005260206000200154905080600983815481106114cc57634e487b7160e01b600052603260045260246000fd5b6000918252602080832090910192909255828152600a9091526040808220849055858252812055600980548061151257634e487b7160e01b600052603160045260246000fd5b6001900381819060005260206000200160009055905550505050565b6000611539836107ed565b6001600160a01b039093166000908152600760209081526040808320868452825280832085905593825260089052919091209190915550565b82805461157e90611fb2565b90600052602060002090601f0160209004810192826115a057600085556115e6565b82601f106115b957805160ff19168380011785556115e6565b828001600101855582156115e6579182015b828111156115e65782518255916020019190600101906115cb565b506115f29291506115f6565b5090565b5b808211156115f257600081556001016115f7565b600067ffffffffffffffff8084111561162657611626612048565b604051601f8501601f19168101602001828111828210171561164a5761164a612048565b60405284815291508183850186101561166257600080fd5b8484602083013760006020868301015250509392505050565b80356001600160a01b038116811461049857600080fd5b6000602082840312156116a3578081fd5b6111aa8261167b565b600080604083850312156116be578081fd5b6116c78361167b565b91506116d56020840161167b565b90509250929050565b6000806000606084860312156116f2578081fd5b6116fb8461167b565b92506117096020850161167b565b9150604084013590509250925092565b6000806000806080858703121561172e578081fd5b6117378561167b565b93506117456020860161167b565b925060408501359150606085013567ffffffffffffffff811115611767578182fd5b8501601f81018713611777578182fd5b6117868782356020840161160b565b91505092959194509250565b600080604083850312156117a4578182fd5b6117ad8361167b565b9150602083013580151581146117c1578182fd5b809150509250929050565b600080600080608085870312156117e1578384fd5b6117ea8561167b565b9350602085013567ffffffffffffffff811115611805578384fd5b8501601f81018713611815578384fd5b6118248782356020840161160b565b949794965050505060408301359260600135919050565b6000806040838503121561184d578182fd5b6118568361167b565b946020939093013593505050565b600060208284031215611875578081fd5b81356111aa8161205e565b600060208284031215611891578081fd5b81516111aa8161205e565b6000602082840312156118ad578081fd5b5035919050565b600081518084526118cc816020860160208601611f86565b601f01601f19169290920160200192915050565b600083516118f2818460208801611f86565b835190830190611906818360208801611f86565b01949350505050565b6001600160a01b0391909116815260200190565b6001600160a01b0385811682528416602082015260408101839052608060608201819052600090611956908301846118b4565b9695505050505050565b600060018060a01b03861682528460208301528360408301526080606083015261195660808301846118b4565b901515815260200190565b6000602082526111aa60208301846118b4565b6020808252602b908201527f455243373231456e756d657261626c653a206f776e657220696e646578206f7560408201526a74206f6620626f756e647360a81b606082015260800190565b60208082526032908201527f4552433732313a207472616e7366657220746f206e6f6e20455243373231526560408201527131b2b4bb32b91034b6b83632b6b2b73a32b960711b606082015260800190565b6020808252601c908201527f4552433732313a20746f6b656e20616c7265616479206d696e74656400000000604082015260600190565b60208082526024908201527f4552433732313a207472616e7366657220746f20746865207a65726f206164646040820152637265737360e01b606082015260800190565b60208082526019908201527f4552433732313a20617070726f766520746f2063616c6c657200000000000000604082015260600190565b6020808252601e908201527f4572726f722c20546f6b656e206973206e6f74206265696e6720736f6c640000604082015260600190565b6020808252602c908201527f4552433732313a206f70657261746f7220717565727920666f72206e6f6e657860408201526b34b9ba32b73a103a37b5b2b760a11b606082015260800190565b60208082526017908201527f4572726f722c20546f6b656e20636f737473206d6f7265000000000000000000604082015260600190565b60208082526038908201527f4552433732313a20617070726f76652063616c6c6572206973206e6f74206f7760408201527f6e6572206e6f7220617070726f76656420666f7220616c6c0000000000000000606082015260800190565b6020808252602a908201527f4552433732313a2062616c616e636520717565727920666f7220746865207a65604082015269726f206164647265737360b01b606082015260800190565b60208082526029908201527f4552433732313a206f776e657220717565727920666f72206e6f6e657869737460408201526832b73a103a37b5b2b760b91b606082015260800190565b6020808252602e908201527f45524337323155524953746f726167653a2055524920736574206f66206e6f6e60408201526d32bc34b9ba32b73a103a37b5b2b760911b606082015260800190565b6020808252818101527f4552433732313a206d696e7420746f20746865207a65726f2061646472657373604082015260600190565b60208082526031908201527f45524337323155524953746f726167653a2055524920717565727920666f72206040820152703737b732bc34b9ba32b73a103a37b5b2b760791b606082015260800190565b6020808252602c908201527f4552433732313a20617070726f76656420717565727920666f72206e6f6e657860408201526b34b9ba32b73a103a37b5b2b760a11b606082015260800190565b60208082526029908201527f4552433732313a207472616e73666572206f6620746f6b656e2074686174206960408201526839903737ba1037bbb760b91b606082015260800190565b6020808252602f908201527f4552433732314d657461646174613a2055524920717565727920666f72206e6f60408201526e3732bc34b9ba32b73a103a37b5b2b760891b606082015260800190565b60208082526021908201527f4552433732313a20617070726f76616c20746f2063757272656e74206f776e656040820152603960f91b606082015260800190565b60208082526031908201527f4552433732313a207472616e736665722063616c6c6572206973206e6f74206f6040820152701ddb995c881b9bdc88185c1c1c9bdd9959607a1b606082015260800190565b6020808252602c908201527f455243373231456e756d657261626c653a20676c6f62616c20696e646578206f60408201526b7574206f6620626f756e647360a01b606082015260800190565b90815260200190565b60008219821115611f5657611f5661201c565b500190565b600082611f6a57611f6a612032565b500490565b600082821015611f8157611f8161201c565b500390565b60005b83811015611fa1578181015183820152602001611f89565b838111156108b95750506000910152565b600281046001821680611fc657607f821691505b60208210811415611fe757634e487b7160e01b600052602260045260246000fd5b50919050565b60006000198214156120015761200161201c565b5060010190565b60008261201757612017612032565b500690565b634e487b7160e01b600052601160045260246000fd5b634e487b7160e01b600052601260045260246000fd5b634e487b7160e01b600052604160045260246000fd5b6001600160e01b03198116811461207457600080fd5b5056fea2646970667358221220c8358eb12c5ee58ce25314e0704a9c2991c4a3b96e285c6b999f664566e520b064736f6c63430008000033",
  "immutableReferences": {},
  "source": "// SPDX-License-Identifier: MIT\n/*\n * Work in progress\n */\npragma solidity ^0.8.0;\n\nimport \"@openzeppelin/contracts/token/ERC721/ERC721.sol\";\nimport \"@openzeppelin/contracts/access/Ownable.sol\";\nimport \"@openzeppelin/contracts/token/ERC721/extensions/ERC721URIStorage.sol\";\nimport \"@openzeppelin/contracts/token/ERC721/extensions/ERC721Enumerable.sol\";\n\ncontract NFT is ERC721, ERC721URIStorage, ERC721Enumerable {\n    address payable public _owner;\n    bool public selling;\n    uint256 public price;\n    uint256 public token_id;\n    event Purchase(address owner, uint256 price, uint256 id, string uri);\n    event AttemptPurchase(address owner, uint256 price, uint256 id, string uri);\n\n    constructor(address origin) ERC721(\"StoryElement\", \"SE\") {\n        _owner = payable(origin);\n        price = 0;\n    }\n\n    function getOwner() public view returns (address) {\n        return _owner;\n    }\n\n    function isForSale() public view returns (bool) {\n        return selling;\n    }\n\n    function getPrice() public view returns (uint256) {\n        return price;\n    }\n\n    /*\n     * Overrides\n     */\n    function _beforeTokenTransfer(\n        address from,\n        address to,\n        uint256 _token_id\n    ) internal override(ERC721, ERC721Enumerable) {\n        super._beforeTokenTransfer(from, to, _token_id);\n    }\n\n    function _burn(uint256 _token_id)\n        internal\n        override(ERC721, ERC721URIStorage)\n    {\n        super._burn(_token_id);\n    }\n\n    function tokenURI(uint256 _token_id)\n        public\n        view\n        override(ERC721, ERC721URIStorage)\n        returns (string memory)\n    {\n        return super.tokenURI(_token_id);\n    }\n\n    function supportsInterface(bytes4 interfaceId)\n        public\n        view\n        override(ERC721, ERC721Enumerable)\n        returns (bool)\n    {\n        return super.supportsInterface(interfaceId);\n    }\n\n    modifier onlyOwner(address origin) {\n        require(origin == _owner);\n        _;\n    }\n\n    function mint(\n        address origin,\n        string memory _tokenURI,\n        uint256 _token_id,\n        uint256 _price\n    ) public onlyOwner(origin) returns (bool) {\n        //uint256 _token_id = totalSupply() + 1;\n        // @dev console.log not showing up\n        //console.log(\"TOKEN: %d\", _token_id);\n        price = _price;\n        token_id = _token_id;\n        _mint(address(this), _token_id);\n        _setTokenURI(_token_id, _tokenURI);\n        return true;\n    }\n\n    function buy(address origin) external payable {\n        // _validate();\n        emit AttemptPurchase(origin, price, token_id, tokenURI(token_id));\n        require(selling, \"Error, Token is not being sold\");\n        require(msg.value >= price, \"Error, Token costs more\");\n        // _trade(origin);\n        // _transfer(address(this), origin, token_id);\n        _owner.transfer(msg.value);\n        _owner = payable(origin);\n        selling = false;\n        emit Purchase(origin, price, token_id, tokenURI(token_id));\n    }\n\n    function sell(address origin, uint256 new_price)\n        external\n        onlyOwner(origin)\n    {\n        price = new_price;\n        selling = true;\n    }\n\n    function _validate() internal {\n        require(selling, \"Error, Token is not being sold\");\n        require(msg.value >= price, \"Error, Token costs more\");\n    }\n\n    function _trade(address origin) internal {\n        _transfer(address(this), origin, token_id);\n        _owner.transfer(msg.value);\n        selling = false;\n    }\n}\n",
  "sourcePath": "/Users/jjcheng77/Documents/DriveSynced/CMU/FourthYear/17733/storyline/contracts/Nft.sol",
  "compiler": {
    "name": "solc",
    "version": "0.8.0+commit.c7dfd78e.Emscripten.clang"
  },
  "schemaVersion": "3.4.3",
  "updatedAt": "2021-11-29T06:25:11.201Z",
  "networkType": "ethereum",
  "devdoc": {
    "kind": "dev",
    "methods": {
      "approve(address,uint256)": {
        "details": "See {IERC721-approve}."
      },
      "balanceOf(address)": {
        "details": "See {IERC721-balanceOf}."
      },
      "getApproved(uint256)": {
        "details": "See {IERC721-getApproved}."
      },
      "isApprovedForAll(address,address)": {
        "details": "See {IERC721-isApprovedForAll}."
      },
      "name()": {
        "details": "See {IERC721Metadata-name}."
      },
      "ownerOf(uint256)": {
        "details": "See {IERC721-ownerOf}."
      },
      "safeTransferFrom(address,address,uint256)": {
        "details": "See {IERC721-safeTransferFrom}."
      },
      "safeTransferFrom(address,address,uint256,bytes)": {
        "details": "See {IERC721-safeTransferFrom}."
      },
      "setApprovalForAll(address,bool)": {
        "details": "See {IERC721-setApprovalForAll}."
      },
      "symbol()": {
        "details": "See {IERC721Metadata-symbol}."
      },
      "tokenByIndex(uint256)": {
        "details": "See {IERC721Enumerable-tokenByIndex}."
      },
      "tokenOfOwnerByIndex(address,uint256)": {
        "details": "See {IERC721Enumerable-tokenOfOwnerByIndex}."
      },
      "totalSupply()": {
        "details": "See {IERC721Enumerable-totalSupply}."
      },
      "transferFrom(address,address,uint256)": {
        "details": "See {IERC721-transferFrom}."
      }
    },
    "version": 1
  },
  "userdoc": {
    "kind": "user",
    "methods": {},
    "version": 1
  }
}