{
  "contractName": "NFT",
  "abi": [
    {
      "inputs": [
        {
          "internalType": "address",
          "name": "origin",
          "type": "address"
        }
      ],
      "stateMutability": "nonpayable",
      "type": "constructor"
    },
    {
      "anonymous": false,
      "inputs": [
        {
          "indexed": true,
          "internalType": "address",
          "name": "owner",
          "type": "address"
        },
        {
          "indexed": true,
          "internalType": "address",
          "name": "approved",
          "type": "address"
        },
        {
          "indexed": true,
          "internalType": "uint256",
          "name": "tokenId",
          "type": "uint256"
        }
      ],
      "name": "Approval",
      "type": "event"
    },
    {
      "anonymous": false,
      "inputs": [
        {
          "indexed": true,
          "internalType": "address",
          "name": "owner",
          "type": "address"
        },
        {
          "indexed": true,
          "internalType": "address",
          "name": "operator",
          "type": "address"
        },
        {
          "indexed": false,
          "internalType": "bool",
          "name": "approved",
          "type": "bool"
        }
      ],
      "name": "ApprovalForAll",
      "type": "event"
    },
    {
      "anonymous": false,
      "inputs": [
        {
          "indexed": false,
          "internalType": "address",
          "name": "owner",
          "type": "address"
        },
        {
          "indexed": false,
          "internalType": "uint256",
          "name": "price",
          "type": "uint256"
        },
        {
          "indexed": false,
          "internalType": "uint256",
          "name": "id",
          "type": "uint256"
        },
        {
          "indexed": false,
          "internalType": "string",
          "name": "uri",
          "type": "string"
        }
      ],
      "name": "Purchase",
      "type": "event"
    },
    {
      "anonymous": false,
      "inputs": [
        {
          "indexed": true,
          "internalType": "address",
          "name": "from",
          "type": "address"
        },
        {
          "indexed": true,
          "internalType": "address",
          "name": "to",
          "type": "address"
        },
        {
          "indexed": true,
          "internalType": "uint256",
          "name": "tokenId",
          "type": "uint256"
        }
      ],
      "name": "Transfer",
      "type": "event"
    },
    {
      "inputs": [],
      "name": "_owner",
      "outputs": [
        {
          "internalType": "address payable",
          "name": "",
          "type": "address"
        }
      ],
      "stateMutability": "view",
      "type": "function"
    },
    {
      "inputs": [
        {
          "internalType": "address",
          "name": "to",
          "type": "address"
        },
        {
          "internalType": "uint256",
          "name": "tokenId",
          "type": "uint256"
        }
      ],
      "name": "approve",
      "outputs": [],
      "stateMutability": "nonpayable",
      "type": "function"
    },
    {
      "inputs": [
        {
          "internalType": "address",
          "name": "owner",
          "type": "address"
        }
      ],
      "name": "balanceOf",
      "outputs": [
        {
          "internalType": "uint256",
          "name": "",
          "type": "uint256"
        }
      ],
      "stateMutability": "view",
      "type": "function"
    },
    {
      "inputs": [
        {
          "internalType": "uint256",
          "name": "tokenId",
          "type": "uint256"
        }
      ],
      "name": "getApproved",
      "outputs": [
        {
          "internalType": "address",
          "name": "",
          "type": "address"
        }
      ],
      "stateMutability": "view",
      "type": "function"
    },
    {
      "inputs": [
        {
          "internalType": "address",
          "name": "owner",
          "type": "address"
        },
        {
          "internalType": "address",
          "name": "operator",
          "type": "address"
        }
      ],
      "name": "isApprovedForAll",
      "outputs": [
        {
          "internalType": "bool",
          "name": "",
          "type": "bool"
        }
      ],
      "stateMutability": "view",
      "type": "function"
    },
    {
      "inputs": [],
      "name": "name",
      "outputs": [
        {
          "internalType": "string",
          "name": "",
          "type": "string"
        }
      ],
      "stateMutability": "view",
      "type": "function"
    },
    {
      "inputs": [
        {
          "internalType": "uint256",
          "name": "tokenId",
          "type": "uint256"
        }
      ],
      "name": "ownerOf",
      "outputs": [
        {
          "internalType": "address",
          "name": "",
          "type": "address"
        }
      ],
      "stateMutability": "view",
      "type": "function"
    },
    {
      "inputs": [],
      "name": "price",
      "outputs": [
        {
          "internalType": "uint256",
          "name": "",
          "type": "uint256"
        }
      ],
      "stateMutability": "view",
      "type": "function"
    },
    {
      "inputs": [
        {
          "internalType": "address",
          "name": "from",
          "type": "address"
        },
        {
          "internalType": "address",
          "name": "to",
          "type": "address"
        },
        {
          "internalType": "uint256",
          "name": "tokenId",
          "type": "uint256"
        }
      ],
      "name": "safeTransferFrom",
      "outputs": [],
      "stateMutability": "nonpayable",
      "type": "function"
    },
    {
      "inputs": [
        {
          "internalType": "address",
          "name": "from",
          "type": "address"
        },
        {
          "internalType": "address",
          "name": "to",
          "type": "address"
        },
        {
          "internalType": "uint256",
          "name": "tokenId",
          "type": "uint256"
        },
        {
          "internalType": "bytes",
          "name": "_data",
          "type": "bytes"
        }
      ],
      "name": "safeTransferFrom",
      "outputs": [],
      "stateMutability": "nonpayable",
      "type": "function"
    },
    {
      "inputs": [],
      "name": "selling",
      "outputs": [
        {
          "internalType": "bool",
          "name": "",
          "type": "bool"
        }
      ],
      "stateMutability": "view",
      "type": "function"
    },
    {
      "inputs": [
        {
          "internalType": "address",
          "name": "operator",
          "type": "address"
        },
        {
          "internalType": "bool",
          "name": "approved",
          "type": "bool"
        }
      ],
      "name": "setApprovalForAll",
      "outputs": [],
      "stateMutability": "nonpayable",
      "type": "function"
    },
    {
      "inputs": [],
      "name": "symbol",
      "outputs": [
        {
          "internalType": "string",
          "name": "",
          "type": "string"
        }
      ],
      "stateMutability": "view",
      "type": "function"
    },
    {
      "inputs": [
        {
          "internalType": "uint256",
          "name": "index",
          "type": "uint256"
        }
      ],
      "name": "tokenByIndex",
      "outputs": [
        {
          "internalType": "uint256",
          "name": "",
          "type": "uint256"
        }
      ],
      "stateMutability": "view",
      "type": "function"
    },
    {
      "inputs": [
        {
          "internalType": "address",
          "name": "owner",
          "type": "address"
        },
        {
          "internalType": "uint256",
          "name": "index",
          "type": "uint256"
        }
      ],
      "name": "tokenOfOwnerByIndex",
      "outputs": [
        {
          "internalType": "uint256",
          "name": "",
          "type": "uint256"
        }
      ],
      "stateMutability": "view",
      "type": "function"
    },
    {
      "inputs": [],
      "name": "token_id",
      "outputs": [
        {
          "internalType": "uint256",
          "name": "",
          "type": "uint256"
        }
      ],
      "stateMutability": "view",
      "type": "function"
    },
    {
      "inputs": [],
      "name": "totalSupply",
      "outputs": [
        {
          "internalType": "uint256",
          "name": "",
          "type": "uint256"
        }
      ],
      "stateMutability": "view",
      "type": "function"
    },
    {
      "inputs": [
        {
          "internalType": "address",
          "name": "from",
          "type": "address"
        },
        {
          "internalType": "address",
          "name": "to",
          "type": "address"
        },
        {
          "internalType": "uint256",
          "name": "tokenId",
          "type": "uint256"
        }
      ],
      "name": "transferFrom",
      "outputs": [],
      "stateMutability": "nonpayable",
      "type": "function"
    },
    {
      "inputs": [],
      "name": "getOwner",
      "outputs": [
        {
          "internalType": "address",
          "name": "",
          "type": "address"
        }
      ],
      "stateMutability": "view",
      "type": "function"
    },
    {
      "inputs": [],
      "name": "isForSale",
      "outputs": [
        {
          "internalType": "bool",
          "name": "",
          "type": "bool"
        }
      ],
      "stateMutability": "view",
      "type": "function"
    },
    {
      "inputs": [
        {
          "internalType": "uint256",
          "name": "_token_id",
          "type": "uint256"
        }
      ],
      "name": "tokenURI",
      "outputs": [
        {
          "internalType": "string",
          "name": "",
          "type": "string"
        }
      ],
      "stateMutability": "view",
      "type": "function"
    },
    {
      "inputs": [
        {
          "internalType": "bytes4",
          "name": "interfaceId",
          "type": "bytes4"
        }
      ],
      "name": "supportsInterface",
      "outputs": [
        {
          "internalType": "bool",
          "name": "",
          "type": "bool"
        }
      ],
      "stateMutability": "view",
      "type": "function"
    },
    {
      "inputs": [
        {
          "internalType": "address",
          "name": "origin",
          "type": "address"
        },
        {
          "internalType": "string",
          "name": "_tokenURI",
          "type": "string"
        },
        {
          "internalType": "uint256",
          "name": "_token_id",
          "type": "uint256"
        },
        {
          "internalType": "uint256",
          "name": "_price",
          "type": "uint256"
        }
      ],
      "name": "mint",
      "outputs": [
        {
          "internalType": "bool",
          "name": "",
          "type": "bool"
        }
      ],
      "stateMutability": "nonpayable",
      "type": "function"
    },
    {
      "inputs": [
        {
          "internalType": "address",
          "name": "origin",
          "type": "address"
        }
      ],
      "name": "buy",
      "outputs": [],
      "stateMutability": "payable",
      "type": "function"
    },
    {
      "inputs": [
        {
          "internalType": "address",
          "name": "origin",
          "type": "address"
        },
        {
          "internalType": "uint256",
          "name": "new_price",
          "type": "uint256"
        }
      ],
      "name": "sell",
      "outputs": [],
      "stateMutability": "nonpayable",
      "type": "function"
    }
  ],
  "bytecode": "0x60806040523480156200001157600080fd5b506040516200223438038062002234833981016040819052620000349162000168565b604080518082018252600c81526b14dd1bdc9e515b195b595b9d60a21b602080830191825283518085019094526002845261534560f01b9084015281519192916200008291600091620000c2565b50805162000098906001906020840190620000c2565b5050600b80546001600160a01b0319166001600160a01b03939093169290921790915550620001d5565b828054620000d09062000198565b90600052602060002090601f016020900481019282620000f457600085556200013f565b82601f106200010f57805160ff19168380011785556200013f565b828001600101855582156200013f579182015b828111156200013f57825182559160200191906001019062000122565b506200014d92915062000151565b5090565b5b808211156200014d576000815560010162000152565b6000602082840312156200017a578081fd5b81516001600160a01b038116811462000191578182fd5b9392505050565b600281046001821680620001ad57607f821691505b60208210811415620001cf57634e487b7160e01b600052602260045260246000fd5b50919050565b61204f80620001e56000396000f3fe6080604052600436106101665760003560e01c80636352211e116100d1578063a22cb4651161008a578063c87b56dd11610064578063c87b56dd146103f2578063d566813114610412578063e985e9c514610427578063f088d5471461044757610166565b8063a22cb4651461039d578063b2bdfa7b146103bd578063b88d4fde146103d257610166565b80636352211e146102fe5780636c197ff51461031e57806370a082311461033e578063893d20e81461035e57806395d89b4114610373578063a035b1fe1461038857610166565b806323aed2281161012357806323aed2281461024957806323b872dd1461025e5780632f745c591461027e57806342842e0e1461029e5780634a5dc3aa146102be5780634f6ccce7146102de57610166565b806301ffc9a71461016b57806306fdde03146101a1578063081812fc146101c3578063095ea7b3146101f057806318160ddd1461021257806320b08dc214610234575b600080fd5b34801561017757600080fd5b5061018b610186366004611806565b61045a565b604051610198919061192f565b60405180910390f35b3480156101ad57600080fd5b506101b661046d565b604051610198919061193a565b3480156101cf57600080fd5b506101e36101de36600461183e565b6104ff565b60405161019891906118b1565b3480156101fc57600080fd5b5061021061020b3660046117dd565b61054b565b005b34801561021e57600080fd5b506102276105e3565b6040516101989190611edc565b34801561024057600080fd5b5061018b6105e9565b34801561025557600080fd5b5061018b6105f9565b34801561026a57600080fd5b50610210610279366004611680565b610609565b34801561028a57600080fd5b506102276102993660046117dd565b610641565b3480156102aa57600080fd5b506102106102b9366004611680565b610693565b3480156102ca57600080fd5b5061018b6102d936600461176e565b6106ae565b3480156102ea57600080fd5b506102276102f936600461183e565b6106f7565b34801561030a57600080fd5b506101e361031936600461183e565b610752565b34801561032a57600080fd5b506102106103393660046117dd565b610787565b34801561034a57600080fd5b50610227610359366004611634565b6107bd565b34801561036a57600080fd5b506101e3610801565b34801561037f57600080fd5b506101b6610810565b34801561039457600080fd5b5061022761081f565b3480156103a957600080fd5b506102106103b8366004611734565b610825565b3480156103c957600080fd5b506101e36108f3565b3480156103de57600080fd5b506102106103ed3660046116bb565b610902565b3480156103fe57600080fd5b506101b661040d36600461183e565b610941565b34801561041e57600080fd5b5061022761094c565b34801561043357600080fd5b5061018b61044236600461164e565b610952565b610210610455366004611634565b610980565b6000610465826109df565b90505b919050565b60606000805461047c90611f54565b80601f01602080910402602001604051908101604052809291908181526020018280546104a890611f54565b80156104f55780601f106104ca576101008083540402835291602001916104f5565b820191906000526020600020905b8154815290600101906020018083116104d857829003601f168201915b5050505050905090565b600061050a82610a04565b61052f5760405162461bcd60e51b815260040161052690611d1a565b60405180910390fd5b506000908152600460205260409020546001600160a01b031690565b600061055682610752565b9050806001600160a01b0316836001600160a01b0316141561058a5760405162461bcd60e51b815260040161052690611dfe565b806001600160a01b031661059c610a21565b6001600160a01b031614806105b857506105b881610442610a21565b6105d45760405162461bcd60e51b815260040161052690611b56565b6105de8383610a25565b505050565b60095490565b600b54600160a01b900460ff1690565b600b54600160a01b900460ff1681565b61061a610614610a21565b82610a93565b6106365760405162461bcd60e51b815260040161052690611e3f565b6105de838383610b18565b600061064c836107bd565b821061066a5760405162461bcd60e51b81526004016105269061194d565b506001600160a01b03919091166000908152600760209081526040808320938352929052205490565b6105de83838360405180602001604052806000815250610902565b600b5460009085906001600160a01b038083169116146106cd57600080fd5b600c839055600d8490556106e13085610c45565b6106eb8486610d24565b50600195945050505050565b60006107016105e3565b821061071f5760405162461bcd60e51b815260040161052690611e90565b6009828154811061074057634e487b7160e01b600052603260045260246000fd5b90600052602060002001549050919050565b6000818152600260205260408120546001600160a01b0316806104655760405162461bcd60e51b815260040161052690611bfd565b600b5482906001600160a01b038083169116146107a357600080fd5b50600c5550600b805460ff60a01b1916600160a01b179055565b60006001600160a01b0382166107e55760405162461bcd60e51b815260040161052690611bb3565b506001600160a01b031660009081526003602052604090205490565b600b546001600160a01b031690565b60606001805461047c90611f54565b600c5481565b61082d610a21565b6001600160a01b0316826001600160a01b0316141561085e5760405162461bcd60e51b815260040161052690611a65565b806005600061086b610a21565b6001600160a01b03908116825260208083019390935260409182016000908120918716808252919093529120805460ff1916921515929092179091556108af610a21565b6001600160a01b03167f17307eab39ab6107e8899845ad3d59bd9653f200f220920489ca2b5937696c31836040516108e7919061192f565b60405180910390a35050565b600b546001600160a01b031681565b61091361090d610a21565b83610a93565b61092f5760405162461bcd60e51b815260040161052690611e3f565b61093b84848484610d68565b50505050565b606061046582610d9b565b600d5481565b6001600160a01b03918216600090815260056020908152604080832093909416825291909152205460ff1690565b610988610eb4565b61099181610f01565b7f6d5507734d4d9e8592119c9e6b3e2bf7eab8bd6252f36e2fa05a5588442479da81600c54600d546109c4600d54610941565b6040516109d49493929190611902565b60405180910390a150565b60006001600160e01b0319821663780e9d6360e01b1480610465575061046582610f58565b6000908152600260205260409020546001600160a01b0316151590565b3390565b600081815260046020526040902080546001600160a01b0319166001600160a01b0384169081179091558190610a5a82610752565b6001600160a01b03167f8c5be1e5ebec7d5bd14f71427d1e84f3dd0314c0f7b2291e5b200ac8c7c3b92560405160405180910390a45050565b6000610a9e82610a04565b610aba5760405162461bcd60e51b815260040161052690611ad3565b6000610ac583610752565b9050806001600160a01b0316846001600160a01b03161480610b005750836001600160a01b0316610af5846104ff565b6001600160a01b0316145b80610b105750610b108185610952565b949350505050565b826001600160a01b0316610b2b82610752565b6001600160a01b031614610b515760405162461bcd60e51b815260040161052690611d66565b6001600160a01b038216610b775760405162461bcd60e51b815260040161052690611a21565b610b82838383610f98565b610b8d600082610a25565b6001600160a01b0383166000908152600360205260408120805460019290610bb6908490611f11565b90915550506001600160a01b0382166000908152600360205260408120805460019290610be4908490611ee5565b909155505060008181526002602052604080822080546001600160a01b0319166001600160a01b0386811691821790925591518493918716917fddf252ad1be2c89b69c2b068fc378daa952ba7f163c4a11628f55a4df523b3ef91a4505050565b6001600160a01b038216610c6b5760405162461bcd60e51b815260040161052690611c94565b610c7481610a04565b15610c915760405162461bcd60e51b8152600401610526906119ea565b610c9d60008383610f98565b6001600160a01b0382166000908152600360205260408120805460019290610cc6908490611ee5565b909155505060008181526002602052604080822080546001600160a01b0319166001600160a01b03861690811790915590518392907fddf252ad1be2c89b69c2b068fc378daa952ba7f163c4a11628f55a4df523b3ef908290a45050565b610d2d82610a04565b610d495760405162461bcd60e51b815260040161052690611c46565b600082815260066020908152604090912082516105de92840190611514565b610d73848484610b18565b610d7f84848484610fa3565b61093b5760405162461bcd60e51b815260040161052690611998565b6060610da682610a04565b610dc25760405162461bcd60e51b815260040161052690611cc9565b60008281526006602052604081208054610ddb90611f54565b80601f0160208091040260200160405190810160405280929190818152602001828054610e0790611f54565b8015610e545780601f10610e2957610100808354040283529160200191610e54565b820191906000526020600020905b815481529060010190602001808311610e3757829003601f168201915b505050505090506000610e656110be565b9050805160001415610e7957509050610468565b815115610eab578082604051602001610e93929190611882565b60405160208183030381529060405292505050610468565b610b10846110d0565b600b54600160a01b900460ff16610edd5760405162461bcd60e51b815260040161052690611a9c565b600c54341015610eff5760405162461bcd60e51b815260040161052690611b1f565b565b610f0e3082600d54610b18565b600b546040516001600160a01b03909116903480156108fc02916000818181858888f19350505050158015610f47573d6000803e3d6000fd5b5050600b805460ff60a01b19169055565b60006001600160e01b031982166380ac58cd60e01b1480610f8957506001600160e01b03198216635b5e139f60e01b145b80610465575061046582611153565b6105de83838361116c565b6000610fb7846001600160a01b03166111f5565b156110b357836001600160a01b031663150b7a02610fd3610a21565b8786866040518563ffffffff1660e01b8152600401610ff594939291906118c5565b602060405180830381600087803b15801561100f57600080fd5b505af192505050801561103f575060408051601f3d908101601f1916820190925261103c91810190611822565b60015b611099573d80801561106d576040519150601f19603f3d011682016040523d82523d6000602084013e611072565b606091505b5080516110915760405162461bcd60e51b815260040161052690611998565b805181602001fd5b6001600160e01b031916630a85bd0160e11b149050610b10565b506001949350505050565b60408051602081019091526000815290565b60606110db82610a04565b6110f75760405162461bcd60e51b815260040161052690611daf565b60006111016110be565b90506000815111611121576040518060200160405280600081525061114c565b8061112b846111fb565b60405160200161113c929190611882565b6040516020818303038152906040525b9392505050565b6001600160e01b031981166301ffc9a760e01b14919050565b6111778383836105de565b6001600160a01b0383166111935761118e81611316565b6111b6565b816001600160a01b0316836001600160a01b0316146111b6576111b6838261135a565b6001600160a01b0382166111d2576111cd816113f7565b6105de565b826001600160a01b0316826001600160a01b0316146105de576105de82826114d0565b3b151590565b60608161122057506040805180820190915260018152600360fc1b6020820152610468565b8160005b811561124a578061123481611f8f565b91506112439050600a83611efd565b9150611224565b60008167ffffffffffffffff81111561127357634e487b7160e01b600052604160045260246000fd5b6040519080825280601f01601f19166020018201604052801561129d576020820181803683370190505b5090505b8415610b10576112b2600183611f11565b91506112bf600a86611faa565b6112ca906030611ee5565b60f81b8183815181106112ed57634e487b7160e01b600052603260045260246000fd5b60200101906001600160f81b031916908160001a90535061130f600a86611efd565b94506112a1565b600980546000838152600a60205260408120829055600182018355919091527f6e1540171b6c0c960b71a7020d9f60077f6af931a8bbf590da0223dacf75c7af0155565b60006001611367846107bd565b6113719190611f11565b6000838152600860205260409020549091508082146113c4576001600160a01b03841660009081526007602090815260408083208584528252808320548484528184208190558352600890915290208190555b5060009182526008602090815260408084208490556001600160a01b039094168352600781528383209183525290812055565b60095460009061140990600190611f11565b6000838152600a60205260408120546009805493945090928490811061143f57634e487b7160e01b600052603260045260246000fd5b90600052602060002001549050806009838154811061146e57634e487b7160e01b600052603260045260246000fd5b6000918252602080832090910192909255828152600a909152604080822084905585825281205560098054806114b457634e487b7160e01b600052603160045260246000fd5b6001900381819060005260206000200160009055905550505050565b60006114db836107bd565b6001600160a01b039093166000908152600760209081526040808320868452825280832085905593825260089052919091209190915550565b82805461152090611f54565b90600052602060002090601f0160209004810192826115425760008555611588565b82601f1061155b57805160ff1916838001178555611588565b82800160010185558215611588579182015b8281111561158857825182559160200191906001019061156d565b50611594929150611598565b5090565b5b808211156115945760008155600101611599565b600067ffffffffffffffff808411156115c8576115c8611fea565b604051601f8501601f1916810160200182811182821017156115ec576115ec611fea565b60405284815291508183850186101561160457600080fd5b8484602083013760006020868301015250509392505050565b80356001600160a01b038116811461046857600080fd5b600060208284031215611645578081fd5b61114c8261161d565b60008060408385031215611660578081fd5b6116698361161d565b91506116776020840161161d565b90509250929050565b600080600060608486031215611694578081fd5b61169d8461161d565b92506116ab6020850161161d565b9150604084013590509250925092565b600080600080608085870312156116d0578081fd5b6116d98561161d565b93506116e76020860161161d565b925060408501359150606085013567ffffffffffffffff811115611709578182fd5b8501601f81018713611719578182fd5b611728878235602084016115ad565b91505092959194509250565b60008060408385031215611746578182fd5b61174f8361161d565b915060208301358015158114611763578182fd5b809150509250929050565b60008060008060808587031215611783578384fd5b61178c8561161d565b9350602085013567ffffffffffffffff8111156117a7578384fd5b8501601f810187136117b7578384fd5b6117c6878235602084016115ad565b949794965050505060408301359260600135919050565b600080604083850312156117ef578182fd5b6117f88361161d565b946020939093013593505050565b600060208284031215611817578081fd5b813561114c81612000565b600060208284031215611833578081fd5b815161114c81612000565b60006020828403121561184f578081fd5b5035919050565b6000815180845261186e816020860160208601611f28565b601f01601f19169290920160200192915050565b60008351611894818460208801611f28565b8351908301906118a8818360208801611f28565b01949350505050565b6001600160a01b0391909116815260200190565b6001600160a01b03858116825284166020820152604081018390526080606082018190526000906118f890830184611856565b9695505050505050565b600060018060a01b0386168252846020830152836040830152608060608301526118f86080830184611856565b901515815260200190565b60006020825261114c6020830184611856565b6020808252602b908201527f455243373231456e756d657261626c653a206f776e657220696e646578206f7560408201526a74206f6620626f756e647360a81b606082015260800190565b60208082526032908201527f4552433732313a207472616e7366657220746f206e6f6e20455243373231526560408201527131b2b4bb32b91034b6b83632b6b2b73a32b960711b606082015260800190565b6020808252601c908201527f4552433732313a20746f6b656e20616c7265616479206d696e74656400000000604082015260600190565b60208082526024908201527f4552433732313a207472616e7366657220746f20746865207a65726f206164646040820152637265737360e01b606082015260800190565b60208082526019908201527f4552433732313a20617070726f766520746f2063616c6c657200000000000000604082015260600190565b6020808252601e908201527f4572726f722c20546f6b656e206973206e6f74206265696e6720736f6c640000604082015260600190565b6020808252602c908201527f4552433732313a206f70657261746f7220717565727920666f72206e6f6e657860408201526b34b9ba32b73a103a37b5b2b760a11b606082015260800190565b60208082526017908201527f4572726f722c20546f6b656e20636f737473206d6f7265000000000000000000604082015260600190565b60208082526038908201527f4552433732313a20617070726f76652063616c6c6572206973206e6f74206f7760408201527f6e6572206e6f7220617070726f76656420666f7220616c6c0000000000000000606082015260800190565b6020808252602a908201527f4552433732313a2062616c616e636520717565727920666f7220746865207a65604082015269726f206164647265737360b01b606082015260800190565b60208082526029908201527f4552433732313a206f776e657220717565727920666f72206e6f6e657869737460408201526832b73a103a37b5b2b760b91b606082015260800190565b6020808252602e908201527f45524337323155524953746f726167653a2055524920736574206f66206e6f6e60408201526d32bc34b9ba32b73a103a37b5b2b760911b606082015260800190565b6020808252818101527f4552433732313a206d696e7420746f20746865207a65726f2061646472657373604082015260600190565b60208082526031908201527f45524337323155524953746f726167653a2055524920717565727920666f72206040820152703737b732bc34b9ba32b73a103a37b5b2b760791b606082015260800190565b6020808252602c908201527f4552433732313a20617070726f76656420717565727920666f72206e6f6e657860408201526b34b9ba32b73a103a37b5b2b760a11b606082015260800190565b60208082526029908201527f4552433732313a207472616e73666572206f6620746f6b656e2074686174206960408201526839903737ba1037bbb760b91b606082015260800190565b6020808252602f908201527f4552433732314d657461646174613a2055524920717565727920666f72206e6f60408201526e3732bc34b9ba32b73a103a37b5b2b760891b606082015260800190565b60208082526021908201527f4552433732313a20617070726f76616c20746f2063757272656e74206f776e656040820152603960f91b606082015260800190565b60208082526031908201527f4552433732313a207472616e736665722063616c6c6572206973206e6f74206f6040820152701ddb995c881b9bdc88185c1c1c9bdd9959607a1b606082015260800190565b6020808252602c908201527f455243373231456e756d657261626c653a20676c6f62616c20696e646578206f60408201526b7574206f6620626f756e647360a01b606082015260800190565b90815260200190565b60008219821115611ef857611ef8611fbe565b500190565b600082611f0c57611f0c611fd4565b500490565b600082821015611f2357611f23611fbe565b500390565b60005b83811015611f43578181015183820152602001611f2b565b8381111561093b5750506000910152565b600281046001821680611f6857607f821691505b60208210811415611f8957634e487b7160e01b600052602260045260246000fd5b50919050565b6000600019821415611fa357611fa3611fbe565b5060010190565b600082611fb957611fb9611fd4565b500690565b634e487b7160e01b600052601160045260246000fd5b634e487b7160e01b600052601260045260246000fd5b634e487b7160e01b600052604160045260246000fd5b6001600160e01b03198116811461201657600080fd5b5056fea2646970667358221220d2a332f2ad472e780a21d97f7a92da5d2b741692a889bafabc2c23244c979e9564736f6c63430008000033",
  "immutableReferences": {},
  "source": "// SPDX-License-Identifier: MIT\r\n/*\r\n * Work in progress\r\n*/\r\npragma solidity ^0.8.0;\r\n\r\nimport \"@openzeppelin/contracts/token/ERC721/ERC721.sol\";\r\nimport \"@openzeppelin/contracts/access/Ownable.sol\";\r\nimport \"@openzeppelin/contracts/token/ERC721/extensions/ERC721URIStorage.sol\";\r\nimport \"@openzeppelin/contracts/token/ERC721/extensions/ERC721Enumerable.sol\";\r\n\r\ncontract NFT is ERC721, ERC721URIStorage, ERC721Enumerable {\r\n    address payable public _owner;\r\n    bool public selling;\r\n    uint256 public price;\r\n    uint256 public token_id;\r\n    event Purchase(address owner, uint256 price, uint256 id, string uri);\r\n\r\n    constructor(address origin) ERC721(\"StoryElement\", \"SE\") {\r\n        _owner = payable(origin);\r\n    }\r\n\r\n    function getOwner() public view returns (address) {\r\n        return _owner;\r\n    }\r\n\r\n    function isForSale() public view returns (bool) {\r\n        return selling;\r\n    }\r\n\r\n    /* \r\n     * Overrides\r\n    */ \r\n    function _beforeTokenTransfer(address from, address to, uint256 _token_id)\r\n        internal\r\n        override(ERC721, ERC721Enumerable)\r\n    {\r\n        super._beforeTokenTransfer(from, to, _token_id);\r\n    }\r\n\r\n    function _burn(uint256 _token_id) internal override(ERC721, ERC721URIStorage) {\r\n        super._burn(_token_id);\r\n    }\r\n\r\n    function tokenURI(uint256 _token_id)\r\n        public\r\n        view\r\n        override(ERC721, ERC721URIStorage)\r\n        returns (string memory)\r\n    {\r\n        return super.tokenURI(_token_id);\r\n    }\r\n\r\n    function supportsInterface(bytes4 interfaceId)\r\n        public\r\n        view\r\n        override(ERC721, ERC721Enumerable)\r\n        returns (bool)\r\n    {\r\n        return super.supportsInterface(interfaceId);\r\n    }\r\n\r\n    modifier onlyOwner(address origin) {\r\n        require(origin == _owner);\r\n        _;\r\n    }\r\n\r\n    function mint(address origin, string memory _tokenURI, uint256 _token_id, uint256 _price) public onlyOwner(origin) returns (bool)\r\n    {\r\n        //uint256 _token_id = totalSupply() + 1;\r\n        // @dev console.log not showing up\r\n        //console.log(\"TOKEN: %d\", _token_id);\r\n        price = _price;\r\n        token_id = _token_id;\r\n        _mint(address(this), _token_id);\r\n        _setTokenURI(_token_id, _tokenURI);\r\n        return true;\r\n    }\r\n\r\n    function buy(address origin) external payable {\r\n        _validate(); \r\n        _trade(origin);\r\n        emit Purchase(origin, price, token_id, tokenURI(token_id));\r\n    }\r\n\r\n    function sell(address origin, uint256 new_price) external onlyOwner(origin) {\r\n        price = new_price;\r\n        selling = true;\r\n    }\r\n\r\n    function _validate() internal {\r\n        require(selling, \"Error, Token is not being sold\");\r\n        require(msg.value >= price, \"Error, Token costs more\"); \r\n    }\r\n\r\n    function _trade(address origin) internal {\r\n        _transfer(address(this), origin, token_id);\r\n        _owner.transfer(msg.value);\r\n        selling = false;\r\n    }\r\n}\r\n",
  "sourcePath": "C:\\Users\\rick\\OneDrive\\Documents\\Fall 2021\\storyline\\contracts\\Nft.sol",
  "compiler": {
    "name": "solc",
    "version": "0.8.0+commit.c7dfd78e.Emscripten.clang"
  },
  "schemaVersion": "3.4.3",
  "updatedAt": "2021-11-23T22:10:08.872Z",
  "devdoc": {
    "kind": "dev",
    "methods": {
      "approve(address,uint256)": {
        "details": "See {IERC721-approve}."
      },
      "balanceOf(address)": {
        "details": "See {IERC721-balanceOf}."
      },
      "getApproved(uint256)": {
        "details": "See {IERC721-getApproved}."
      },
      "isApprovedForAll(address,address)": {
        "details": "See {IERC721-isApprovedForAll}."
      },
      "name()": {
        "details": "See {IERC721Metadata-name}."
      },
      "ownerOf(uint256)": {
        "details": "See {IERC721-ownerOf}."
      },
      "safeTransferFrom(address,address,uint256)": {
        "details": "See {IERC721-safeTransferFrom}."
      },
      "safeTransferFrom(address,address,uint256,bytes)": {
        "details": "See {IERC721-safeTransferFrom}."
      },
      "setApprovalForAll(address,bool)": {
        "details": "See {IERC721-setApprovalForAll}."
      },
      "symbol()": {
        "details": "See {IERC721Metadata-symbol}."
      },
      "tokenByIndex(uint256)": {
        "details": "See {IERC721Enumerable-tokenByIndex}."
      },
      "tokenOfOwnerByIndex(address,uint256)": {
        "details": "See {IERC721Enumerable-tokenOfOwnerByIndex}."
      },
      "totalSupply()": {
        "details": "See {IERC721Enumerable-totalSupply}."
      },
      "transferFrom(address,address,uint256)": {
        "details": "See {IERC721-transferFrom}."
      }
    },
    "version": 1
  },
  "userdoc": {
    "kind": "user",
    "methods": {},
    "version": 1
  }
}