{
  "contractName": "NFT",
  "abi": [
    {
      "inputs": [],
      "stateMutability": "nonpayable",
      "type": "constructor"
    },
    {
      "anonymous": false,
      "inputs": [
        {
          "indexed": true,
          "internalType": "address",
          "name": "owner",
          "type": "address"
        },
        {
          "indexed": true,
          "internalType": "address",
          "name": "approved",
          "type": "address"
        },
        {
          "indexed": true,
          "internalType": "uint256",
          "name": "tokenId",
          "type": "uint256"
        }
      ],
      "name": "Approval",
      "type": "event"
    },
    {
      "anonymous": false,
      "inputs": [
        {
          "indexed": true,
          "internalType": "address",
          "name": "owner",
          "type": "address"
        },
        {
          "indexed": true,
          "internalType": "address",
          "name": "operator",
          "type": "address"
        },
        {
          "indexed": false,
          "internalType": "bool",
          "name": "approved",
          "type": "bool"
        }
      ],
      "name": "ApprovalForAll",
      "type": "event"
    },
    {
      "anonymous": false,
      "inputs": [
        {
          "indexed": true,
          "internalType": "address",
          "name": "previousOwner",
          "type": "address"
        },
        {
          "indexed": true,
          "internalType": "address",
          "name": "newOwner",
          "type": "address"
        }
      ],
      "name": "OwnershipTransferred",
      "type": "event"
    },
    {
      "anonymous": false,
      "inputs": [
        {
          "indexed": false,
          "internalType": "address",
          "name": "owner",
          "type": "address"
        },
        {
          "indexed": false,
          "internalType": "uint256",
          "name": "price",
          "type": "uint256"
        },
        {
          "indexed": false,
          "internalType": "uint256",
          "name": "id",
          "type": "uint256"
        },
        {
          "indexed": false,
          "internalType": "string",
          "name": "uri",
          "type": "string"
        }
      ],
      "name": "Purchase",
      "type": "event"
    },
    {
      "anonymous": false,
      "inputs": [
        {
          "indexed": true,
          "internalType": "address",
          "name": "from",
          "type": "address"
        },
        {
          "indexed": true,
          "internalType": "address",
          "name": "to",
          "type": "address"
        },
        {
          "indexed": true,
          "internalType": "uint256",
          "name": "tokenId",
          "type": "uint256"
        }
      ],
      "name": "Transfer",
      "type": "event"
    },
    {
      "inputs": [],
      "name": "_owner",
      "outputs": [
        {
          "internalType": "address payable",
          "name": "",
          "type": "address"
        }
      ],
      "stateMutability": "view",
      "type": "function",
      "constant": true
    },
    {
      "inputs": [
        {
          "internalType": "address",
          "name": "to",
          "type": "address"
        },
        {
          "internalType": "uint256",
          "name": "tokenId",
          "type": "uint256"
        }
      ],
      "name": "approve",
      "outputs": [],
      "stateMutability": "nonpayable",
      "type": "function"
    },
    {
      "inputs": [
        {
          "internalType": "address",
          "name": "owner",
          "type": "address"
        }
      ],
      "name": "balanceOf",
      "outputs": [
        {
          "internalType": "uint256",
          "name": "",
          "type": "uint256"
        }
      ],
      "stateMutability": "view",
      "type": "function",
      "constant": true
    },
    {
      "inputs": [
        {
          "internalType": "uint256",
          "name": "tokenId",
          "type": "uint256"
        }
      ],
      "name": "getApproved",
      "outputs": [
        {
          "internalType": "address",
          "name": "",
          "type": "address"
        }
      ],
      "stateMutability": "view",
      "type": "function",
      "constant": true
    },
    {
      "inputs": [
        {
          "internalType": "address",
          "name": "owner",
          "type": "address"
        },
        {
          "internalType": "address",
          "name": "operator",
          "type": "address"
        }
      ],
      "name": "isApprovedForAll",
      "outputs": [
        {
          "internalType": "bool",
          "name": "",
          "type": "bool"
        }
      ],
      "stateMutability": "view",
      "type": "function",
      "constant": true
    },
    {
      "inputs": [],
      "name": "name",
      "outputs": [
        {
          "internalType": "string",
          "name": "",
          "type": "string"
        }
      ],
      "stateMutability": "view",
      "type": "function",
      "constant": true
    },
    {
      "inputs": [],
      "name": "owner",
      "outputs": [
        {
          "internalType": "address",
          "name": "",
          "type": "address"
        }
      ],
      "stateMutability": "view",
      "type": "function",
      "constant": true
    },
    {
      "inputs": [
        {
          "internalType": "uint256",
          "name": "tokenId",
          "type": "uint256"
        }
      ],
      "name": "ownerOf",
      "outputs": [
        {
          "internalType": "address",
          "name": "",
          "type": "address"
        }
      ],
      "stateMutability": "view",
      "type": "function",
      "constant": true
    },
    {
      "inputs": [
        {
          "internalType": "uint256",
          "name": "",
          "type": "uint256"
        }
      ],
      "name": "price",
      "outputs": [
        {
          "internalType": "uint256",
          "name": "",
          "type": "uint256"
        }
      ],
      "stateMutability": "view",
      "type": "function",
      "constant": true
    },
    {
      "inputs": [],
      "name": "renounceOwnership",
      "outputs": [],
      "stateMutability": "nonpayable",
      "type": "function"
    },
    {
      "inputs": [
        {
          "internalType": "address",
          "name": "from",
          "type": "address"
        },
        {
          "internalType": "address",
          "name": "to",
          "type": "address"
        },
        {
          "internalType": "uint256",
          "name": "tokenId",
          "type": "uint256"
        }
      ],
      "name": "safeTransferFrom",
      "outputs": [],
      "stateMutability": "nonpayable",
      "type": "function"
    },
    {
      "inputs": [
        {
          "internalType": "address",
          "name": "from",
          "type": "address"
        },
        {
          "internalType": "address",
          "name": "to",
          "type": "address"
        },
        {
          "internalType": "uint256",
          "name": "tokenId",
          "type": "uint256"
        },
        {
          "internalType": "bytes",
          "name": "_data",
          "type": "bytes"
        }
      ],
      "name": "safeTransferFrom",
      "outputs": [],
      "stateMutability": "nonpayable",
      "type": "function"
    },
    {
      "inputs": [
        {
          "internalType": "address",
          "name": "operator",
          "type": "address"
        },
        {
          "internalType": "bool",
          "name": "approved",
          "type": "bool"
        }
      ],
      "name": "setApprovalForAll",
      "outputs": [],
      "stateMutability": "nonpayable",
      "type": "function"
    },
    {
      "inputs": [
        {
          "internalType": "uint256",
          "name": "",
          "type": "uint256"
        }
      ],
      "name": "sold",
      "outputs": [
        {
          "internalType": "bool",
          "name": "",
          "type": "bool"
        }
      ],
      "stateMutability": "view",
      "type": "function",
      "constant": true
    },
    {
      "inputs": [],
      "name": "symbol",
      "outputs": [
        {
          "internalType": "string",
          "name": "",
          "type": "string"
        }
      ],
      "stateMutability": "view",
      "type": "function",
      "constant": true
    },
    {
      "inputs": [
        {
          "internalType": "uint256",
          "name": "index",
          "type": "uint256"
        }
      ],
      "name": "tokenByIndex",
      "outputs": [
        {
          "internalType": "uint256",
          "name": "",
          "type": "uint256"
        }
      ],
      "stateMutability": "view",
      "type": "function",
      "constant": true
    },
    {
      "inputs": [
        {
          "internalType": "address",
          "name": "owner",
          "type": "address"
        },
        {
          "internalType": "uint256",
          "name": "index",
          "type": "uint256"
        }
      ],
      "name": "tokenOfOwnerByIndex",
      "outputs": [
        {
          "internalType": "uint256",
          "name": "",
          "type": "uint256"
        }
      ],
      "stateMutability": "view",
      "type": "function",
      "constant": true
    },
    {
      "inputs": [],
      "name": "totalSupply",
      "outputs": [
        {
          "internalType": "uint256",
          "name": "",
          "type": "uint256"
        }
      ],
      "stateMutability": "view",
      "type": "function",
      "constant": true
    },
    {
      "inputs": [
        {
          "internalType": "address",
          "name": "from",
          "type": "address"
        },
        {
          "internalType": "address",
          "name": "to",
          "type": "address"
        },
        {
          "internalType": "uint256",
          "name": "tokenId",
          "type": "uint256"
        }
      ],
      "name": "transferFrom",
      "outputs": [],
      "stateMutability": "nonpayable",
      "type": "function"
    },
    {
      "inputs": [
        {
          "internalType": "address",
          "name": "newOwner",
          "type": "address"
        }
      ],
      "name": "transferOwnership",
      "outputs": [],
      "stateMutability": "nonpayable",
      "type": "function"
    },
    {
      "inputs": [
        {
          "internalType": "uint256",
          "name": "tokenId",
          "type": "uint256"
        }
      ],
      "name": "tokenURI",
      "outputs": [
        {
          "internalType": "string",
          "name": "",
          "type": "string"
        }
      ],
      "stateMutability": "view",
      "type": "function",
      "constant": true
    },
    {
      "inputs": [
        {
          "internalType": "bytes4",
          "name": "interfaceId",
          "type": "bytes4"
        }
      ],
      "name": "supportsInterface",
      "outputs": [
        {
          "internalType": "bool",
          "name": "",
          "type": "bool"
        }
      ],
      "stateMutability": "view",
      "type": "function",
      "constant": true
    },
    {
      "inputs": [
        {
          "internalType": "string",
          "name": "_tokenURI",
          "type": "string"
        },
        {
          "internalType": "uint256",
          "name": "_price",
          "type": "uint256"
        }
      ],
      "name": "mint",
      "outputs": [
        {
          "internalType": "bool",
          "name": "",
          "type": "bool"
        }
      ],
      "stateMutability": "nonpayable",
      "type": "function"
    },
    {
      "inputs": [
        {
          "internalType": "uint256",
          "name": "_id",
          "type": "uint256"
        }
      ],
      "name": "buy",
      "outputs": [],
      "stateMutability": "payable",
      "type": "function",
      "payable": true
    }
  ],
  "bytecode": "0x60806040523480156200001157600080fd5b50604080518082018252600c81526b14dd1bdc9e515b195b595b9d60a21b602080830191825283518085019094526002845261534560f01b908401528151919291620000609160009162000101565b5080516200007690600190602084019062000101565b505050620000936200008d620000ab60201b60201c565b620000af565b600c80546001600160a01b03191633179055620001e4565b3390565b600b80546001600160a01b038381166001600160a01b0319831681179093556040519116919082907f8be0079c531659141344cd1fd0a4f28419497f9722a3daafe3b4186f6b6457e090600090a35050565b8280546200010f90620001a7565b90600052602060002090601f0160209004810192826200013357600085556200017e565b82601f106200014e57805160ff19168380011785556200017e565b828001600101855582156200017e579182015b828111156200017e57825182559160200191906001019062000161565b506200018c92915062000190565b5090565b5b808211156200018c576000815560010162000191565b600281046001821680620001bc57607f821691505b60208210811415620001de57634e487b7160e01b600052602260045260246000fd5b50919050565b61221480620001f46000396000f3fe60806040526004361061014b5760003560e01c806370a08231116100b6578063b2bdfa7b1161006f578063b2bdfa7b14610398578063b88d4fde146103ad578063c87b56dd146103cd578063d96a094a146103ed578063e985e9c514610400578063f2fde38b146104205761014b565b806370a08231146102f9578063715018a6146103195780638da5cb5b1461032e57806395d89b41146103435780639c03facb14610358578063a22cb465146103785761014b565b806323b872dd1161010857806323b872dd1461023957806326a49e37146102595780632f745c591461027957806342842e0e146102995780634f6ccce7146102b95780636352211e146102d95761014b565b806301ffc9a714610150578063056b01ce1461018657806306fdde03146101a6578063081812fc146101c8578063095ea7b3146101f557806318160ddd14610217575b600080fd5b34801561015c57600080fd5b5061017061016b3660046118d7565b610440565b60405161017d9190611a56565b60405180910390f35b34801561019257600080fd5b506101706101a136600461190f565b610453565b3480156101b257600080fd5b506101bb6104e3565b60405161017d9190611a61565b3480156101d457600080fd5b506101e86101e3366004611965565b610575565b60405161017d91906119d8565b34801561020157600080fd5b506102156102103660046118ae565b6105b8565b005b34801561022357600080fd5b5061022c610650565b60405161017d91906120a4565b34801561024557600080fd5b506102156102543660046117c0565b610656565b34801561026557600080fd5b5061022c610274366004611965565b61068e565b34801561028557600080fd5b5061022c6102943660046118ae565b6106a0565b3480156102a557600080fd5b506102156102b43660046117c0565b6106f2565b3480156102c557600080fd5b5061022c6102d4366004611965565b61070d565b3480156102e557600080fd5b506101e86102f4366004611965565b610768565b34801561030557600080fd5b5061022c610314366004611774565b61079d565b34801561032557600080fd5b506102156107e1565b34801561033a57600080fd5b506101e861082c565b34801561034f57600080fd5b506101bb61083b565b34801561036457600080fd5b50610170610373366004611965565b61084a565b34801561038457600080fd5b50610215610393366004611874565b61085f565b3480156103a457600080fd5b506101e861092d565b3480156103b957600080fd5b506102156103c83660046117fb565b61093c565b3480156103d957600080fd5b506101bb6103e8366004611965565b61097b565b6102156103fb366004611965565b610986565b34801561040c57600080fd5b5061017061041b36600461178e565b6109f0565b34801561042c57600080fd5b5061021561043b366004611774565b610a1e565b600061044b82610a8f565b90505b919050565b600061045d610ab4565b6001600160a01b031661046e61082c565b6001600160a01b03161461049d5760405162461bcd60e51b815260040161049490611ecb565b60405180910390fd5b60006104a7610650565b6104b29060016120ad565b6000818152600e6020526040902084905590506104cf3082610ab8565b6104d98185610b97565b5060019392505050565b6060600080546104f29061211c565b80601f016020809104026020016040519081016040528092919081815260200182805461051e9061211c565b801561056b5780601f106105405761010080835404028352916020019161056b565b820191906000526020600020905b81548152906001019060200180831161054e57829003601f168201915b5050505050905090565b600061058082610bdb565b61059c5760405162461bcd60e51b815260040161049490611e7f565b506000908152600460205260409020546001600160a01b031690565b60006105c382610768565b9050806001600160a01b0316836001600160a01b031614156105f75760405162461bcd60e51b815260040161049490611f98565b806001600160a01b0316610609610ab4565b6001600160a01b0316148061062557506106258161041b610ab4565b6106415760405162461bcd60e51b815260040161049490611cbb565b61064b8383610bf8565b505050565b60095490565b610667610661610ab4565b82610c66565b6106835760405162461bcd60e51b815260040161049490612007565b61064b838383610ceb565b600e6020526000908152604090205481565b60006106ab8361079d565b82106106c95760405162461bcd60e51b815260040161049490611a74565b506001600160a01b03919091166000908152600760209081526040808320938352929052205490565b61064b8383836040518060200160405280600081525061093c565b6000610717610650565b82106107355760405162461bcd60e51b815260040161049490612058565b6009828154811061075657634e487b7160e01b600052603260045260246000fd5b90600052602060002001549050919050565b6000818152600260205260408120546001600160a01b03168061044b5760405162461bcd60e51b815260040161049490611d62565b60006001600160a01b0382166107c55760405162461bcd60e51b815260040161049490611d18565b506001600160a01b031660009081526003602052604090205490565b6107e9610ab4565b6001600160a01b03166107fa61082c565b6001600160a01b0316146108205760405162461bcd60e51b815260040161049490611ecb565b61082a6000610e18565b565b600b546001600160a01b031690565b6060600180546104f29061211c565b600d6020526000908152604090205460ff1681565b610867610ab4565b6001600160a01b0316826001600160a01b031614156108985760405162461bcd60e51b815260040161049490611bd2565b80600560006108a5610ab4565b6001600160a01b03908116825260208083019390935260409182016000908120918716808252919093529120805460ff1916921515929092179091556108e9610ab4565b6001600160a01b03167f17307eab39ab6107e8899845ad3d59bd9653f200f220920489ca2b5937696c31836040516109219190611a56565b60405180910390a35050565b600c546001600160a01b031681565b61094d610947610ab4565b83610c66565b6109695760405162461bcd60e51b815260040161049490612007565b61097584848484610e6a565b50505050565b606061044b82610e9d565b61098f81610fb6565b61099881611038565b6000818152600e60205260409020547f6d5507734d4d9e8592119c9e6b3e2bf7eab8bd6252f36e2fa05a5588442479da903390836109d58161097b565b6040516109e59493929190611a29565b60405180910390a150565b6001600160a01b03918216600090815260056020908152604080832093909416825291909152205460ff1690565b610a26610ab4565b6001600160a01b0316610a3761082c565b6001600160a01b031614610a5d5760405162461bcd60e51b815260040161049490611ecb565b6001600160a01b038116610a835760405162461bcd60e51b815260040161049490611b11565b610a8c81610e18565b50565b60006001600160e01b0319821663780e9d6360e01b148061044b575061044b82611098565b3390565b6001600160a01b038216610ade5760405162461bcd60e51b815260040161049490611df9565b610ae781610bdb565b15610b045760405162461bcd60e51b815260040161049490611b57565b610b10600083836110d8565b6001600160a01b0382166000908152600360205260408120805460019290610b399084906120ad565b909155505060008181526002602052604080822080546001600160a01b0319166001600160a01b03861690811790915590518392907fddf252ad1be2c89b69c2b068fc378daa952ba7f163c4a11628f55a4df523b3ef908290a45050565b610ba082610bdb565b610bbc5760405162461bcd60e51b815260040161049490611dab565b6000828152600660209081526040909120825161064b92840190611654565b6000908152600260205260409020546001600160a01b0316151590565b600081815260046020526040902080546001600160a01b0319166001600160a01b0384169081179091558190610c2d82610768565b6001600160a01b03167f8c5be1e5ebec7d5bd14f71427d1e84f3dd0314c0f7b2291e5b200ac8c7c3b92560405160405180910390a45050565b6000610c7182610bdb565b610c8d5760405162461bcd60e51b815260040161049490611c09565b6000610c9883610768565b9050806001600160a01b0316846001600160a01b03161480610cd35750836001600160a01b0316610cc884610575565b6001600160a01b0316145b80610ce35750610ce381856109f0565b949350505050565b826001600160a01b0316610cfe82610768565b6001600160a01b031614610d245760405162461bcd60e51b815260040161049490611f00565b6001600160a01b038216610d4a5760405162461bcd60e51b815260040161049490611b8e565b610d558383836110d8565b610d60600082610bf8565b6001600160a01b0383166000908152600360205260408120805460019290610d899084906120d9565b90915550506001600160a01b0382166000908152600360205260408120805460019290610db79084906120ad565b909155505060008181526002602052604080822080546001600160a01b0319166001600160a01b0386811691821790925591518493918716917fddf252ad1be2c89b69c2b068fc378daa952ba7f163c4a11628f55a4df523b3ef91a4505050565b600b80546001600160a01b038381166001600160a01b0319831681179093556040519116919082907f8be0079c531659141344cd1fd0a4f28419497f9722a3daafe3b4186f6b6457e090600090a35050565b610e75848484610ceb565b610e81848484846110e3565b6109755760405162461bcd60e51b815260040161049490611abf565b6060610ea882610bdb565b610ec45760405162461bcd60e51b815260040161049490611e2e565b60008281526006602052604081208054610edd9061211c565b80601f0160208091040260200160405190810160405280929190818152602001828054610f099061211c565b8015610f565780601f10610f2b57610100808354040283529160200191610f56565b820191906000526020600020905b815481529060010190602001808311610f3957829003601f168201915b505050505090506000610f676111fe565b9050805160001415610f7b5750905061044e565b815115610fad578082604051602001610f959291906119a9565b6040516020818303038152906040529250505061044e565b610ce384611210565b610fbf81610bdb565b610fdb5760405162461bcd60e51b815260040161049490611c55565b6000818152600d602052604090205460ff161561100a5760405162461bcd60e51b815260040161049490611fd9565b6000818152600e6020526040902054341015610a8c5760405162461bcd60e51b815260040161049490611c84565b611043303383610ceb565b600c546040516001600160a01b03909116903480156108fc02916000818181858888f1935050505015801561107c573d6000803e3d6000fd5b506000908152600d60205260409020805460ff19166001179055565b60006001600160e01b031982166380ac58cd60e01b14806110c957506001600160e01b03198216635b5e139f60e01b145b8061044b575061044b82611293565b61064b8383836112ac565b60006110f7846001600160a01b0316611335565b156111f357836001600160a01b031663150b7a02611113610ab4565b8786866040518563ffffffff1660e01b815260040161113594939291906119ec565b602060405180830381600087803b15801561114f57600080fd5b505af192505050801561117f575060408051601f3d908101601f1916820190925261117c918101906118f3565b60015b6111d9573d8080156111ad576040519150601f19603f3d011682016040523d82523d6000602084013e6111b2565b606091505b5080516111d15760405162461bcd60e51b815260040161049490611abf565b805181602001fd5b6001600160e01b031916630a85bd0160e11b149050610ce3565b506001949350505050565b60408051602081019091526000815290565b606061121b82610bdb565b6112375760405162461bcd60e51b815260040161049490611f49565b60006112416111fe565b90506000815111611261576040518060200160405280600081525061128c565b8061126b8461133b565b60405160200161127c9291906119a9565b6040516020818303038152906040525b9392505050565b6001600160e01b031981166301ffc9a760e01b14919050565b6112b783838361064b565b6001600160a01b0383166112d3576112ce81611456565b6112f6565b816001600160a01b0316836001600160a01b0316146112f6576112f6838261149a565b6001600160a01b0382166113125761130d81611537565b61064b565b826001600160a01b0316826001600160a01b03161461064b5761064b8282611610565b3b151590565b60608161136057506040805180820190915260018152600360fc1b602082015261044e565b8160005b811561138a578061137481612157565b91506113839050600a836120c5565b9150611364565b60008167ffffffffffffffff8111156113b357634e487b7160e01b600052604160045260246000fd5b6040519080825280601f01601f1916602001820160405280156113dd576020820181803683370190505b5090505b8415610ce3576113f26001836120d9565b91506113ff600a86612172565b61140a9060306120ad565b60f81b81838151811061142d57634e487b7160e01b600052603260045260246000fd5b60200101906001600160f81b031916908160001a90535061144f600a866120c5565b94506113e1565b600980546000838152600a60205260408120829055600182018355919091527f6e1540171b6c0c960b71a7020d9f60077f6af931a8bbf590da0223dacf75c7af0155565b600060016114a78461079d565b6114b191906120d9565b600083815260086020526040902054909150808214611504576001600160a01b03841660009081526007602090815260408083208584528252808320548484528184208190558352600890915290208190555b5060009182526008602090815260408084208490556001600160a01b039094168352600781528383209183525290812055565b600954600090611549906001906120d9565b6000838152600a60205260408120546009805493945090928490811061157f57634e487b7160e01b600052603260045260246000fd5b9060005260206000200154905080600983815481106115ae57634e487b7160e01b600052603260045260246000fd5b6000918252602080832090910192909255828152600a909152604080822084905585825281205560098054806115f457634e487b7160e01b600052603160045260246000fd5b6001900381819060005260206000200160009055905550505050565b600061161b8361079d565b6001600160a01b039093166000908152600760209081526040808320868452825280832085905593825260089052919091209190915550565b8280546116609061211c565b90600052602060002090601f01602090048101928261168257600085556116c8565b82601f1061169b57805160ff19168380011785556116c8565b828001600101855582156116c8579182015b828111156116c85782518255916020019190600101906116ad565b506116d49291506116d8565b5090565b5b808211156116d457600081556001016116d9565b600067ffffffffffffffff80841115611708576117086121b2565b604051601f8501601f19168101602001828111828210171561172c5761172c6121b2565b60405284815291508183850186101561174457600080fd5b8484602083013760006020868301015250509392505050565b80356001600160a01b038116811461044e57600080fd5b600060208284031215611785578081fd5b61128c8261175d565b600080604083850312156117a0578081fd5b6117a98361175d565b91506117b76020840161175d565b90509250929050565b6000806000606084860312156117d4578081fd5b6117dd8461175d565b92506117eb6020850161175d565b9150604084013590509250925092565b60008060008060808587031215611810578081fd5b6118198561175d565b93506118276020860161175d565b925060408501359150606085013567ffffffffffffffff811115611849578182fd5b8501601f81018713611859578182fd5b611868878235602084016116ed565b91505092959194509250565b60008060408385031215611886578182fd5b61188f8361175d565b9150602083013580151581146118a3578182fd5b809150509250929050565b600080604083850312156118c0578182fd5b6118c98361175d565b946020939093013593505050565b6000602082840312156118e8578081fd5b813561128c816121c8565b600060208284031215611904578081fd5b815161128c816121c8565b60008060408385031215611921578182fd5b823567ffffffffffffffff811115611937578283fd5b8301601f81018513611947578283fd5b611956858235602084016116ed565b95602094909401359450505050565b600060208284031215611976578081fd5b5035919050565b600081518084526119958160208601602086016120f0565b601f01601f19169290920160200192915050565b600083516119bb8184602088016120f0565b8351908301906119cf8183602088016120f0565b01949350505050565b6001600160a01b0391909116815260200190565b6001600160a01b0385811682528416602082015260408101839052608060608201819052600090611a1f9083018461197d565b9695505050505050565b600060018060a01b038616825284602083015283604083015260806060830152611a1f608083018461197d565b901515815260200190565b60006020825261128c602083018461197d565b6020808252602b908201527f455243373231456e756d657261626c653a206f776e657220696e646578206f7560408201526a74206f6620626f756e647360a81b606082015260800190565b60208082526032908201527f4552433732313a207472616e7366657220746f206e6f6e20455243373231526560408201527131b2b4bb32b91034b6b83632b6b2b73a32b960711b606082015260800190565b60208082526026908201527f4f776e61626c653a206e6577206f776e657220697320746865207a65726f206160408201526564647265737360d01b606082015260800190565b6020808252601c908201527f4552433732313a20746f6b656e20616c7265616479206d696e74656400000000604082015260600190565b60208082526024908201527f4552433732313a207472616e7366657220746f20746865207a65726f206164646040820152637265737360e01b606082015260800190565b60208082526019908201527f4552433732313a20617070726f766520746f2063616c6c657200000000000000604082015260600190565b6020808252602c908201527f4552433732313a206f70657261746f7220717565727920666f72206e6f6e657860408201526b34b9ba32b73a103a37b5b2b760a11b606082015260800190565b602080825260159082015274115c9c9bdc8b081ddc9bdb99c8151bdad95b881a59605a1b604082015260600190565b60208082526017908201527f4572726f722c20546f6b656e20636f737473206d6f7265000000000000000000604082015260600190565b60208082526038908201527f4552433732313a20617070726f76652063616c6c6572206973206e6f74206f7760408201527f6e6572206e6f7220617070726f76656420666f7220616c6c0000000000000000606082015260800190565b6020808252602a908201527f4552433732313a2062616c616e636520717565727920666f7220746865207a65604082015269726f206164647265737360b01b606082015260800190565b60208082526029908201527f4552433732313a206f776e657220717565727920666f72206e6f6e657869737460408201526832b73a103a37b5b2b760b91b606082015260800190565b6020808252602e908201527f45524337323155524953746f726167653a2055524920736574206f66206e6f6e60408201526d32bc34b9ba32b73a103a37b5b2b760911b606082015260800190565b6020808252818101527f4552433732313a206d696e7420746f20746865207a65726f2061646472657373604082015260600190565b60208082526031908201527f45524337323155524953746f726167653a2055524920717565727920666f72206040820152703737b732bc34b9ba32b73a103a37b5b2b760791b606082015260800190565b6020808252602c908201527f4552433732313a20617070726f76656420717565727920666f72206e6f6e657860408201526b34b9ba32b73a103a37b5b2b760a11b606082015260800190565b6020808252818101527f4f776e61626c653a2063616c6c6572206973206e6f7420746865206f776e6572604082015260600190565b60208082526029908201527f4552433732313a207472616e73666572206f6620746f6b656e2074686174206960408201526839903737ba1037bbb760b91b606082015260800190565b6020808252602f908201527f4552433732314d657461646174613a2055524920717565727920666f72206e6f60408201526e3732bc34b9ba32b73a103a37b5b2b760891b606082015260800190565b60208082526021908201527f4552433732313a20617070726f76616c20746f2063757272656e74206f776e656040820152603960f91b606082015260800190565b602080825260149082015273115c9c9bdc8b08151bdad95b881a5cc81cdbdb1960621b604082015260600190565b60208082526031908201527f4552433732313a207472616e736665722063616c6c6572206973206e6f74206f6040820152701ddb995c881b9bdc88185c1c1c9bdd9959607a1b606082015260800190565b6020808252602c908201527f455243373231456e756d657261626c653a20676c6f62616c20696e646578206f60408201526b7574206f6620626f756e647360a01b606082015260800190565b90815260200190565b600082198211156120c0576120c0612186565b500190565b6000826120d4576120d461219c565b500490565b6000828210156120eb576120eb612186565b500390565b60005b8381101561210b5781810151838201526020016120f3565b838111156109755750506000910152565b60028104600182168061213057607f821691505b6020821081141561215157634e487b7160e01b600052602260045260246000fd5b50919050565b600060001982141561216b5761216b612186565b5060010190565b6000826121815761218161219c565b500690565b634e487b7160e01b600052601160045260246000fd5b634e487b7160e01b600052601260045260246000fd5b634e487b7160e01b600052604160045260246000fd5b6001600160e01b031981168114610a8c57600080fdfea264697066735822122089be0614a95c11d0004e44416995a97983c0212a3c09ba35c529d2ce6d19cfa964736f6c63430008000033",
  "immutableReferences": {},
  "source": "// SPDX-License-Identifier: MIT\n/*\n * Work in progress\n*/\npragma solidity ^0.8.0;\n\nimport \"@openzeppelin/contracts/token/ERC721/ERC721.sol\";\nimport \"@openzeppelin/contracts/access/Ownable.sol\";\nimport \"@openzeppelin/contracts/token/ERC721/extensions/ERC721URIStorage.sol\";\nimport \"@openzeppelin/contracts/token/ERC721/extensions/ERC721Enumerable.sol\";\n\ncontract NFT is ERC721, ERC721URIStorage, ERC721Enumerable, Ownable {\n    address payable public _owner;\n    mapping(uint256 => bool) public sold;\n    mapping(uint256 => uint256) public price;\n    event Purchase(address owner, uint256 price, uint256 id, string uri);\n    constructor() ERC721(\"StoryElement\", \"SE\") {\n        _owner = payable(msg.sender);\n    }\n\n    /* \n     * Overrides\n    */ \n    function _beforeTokenTransfer(address from, address to, uint256 tokenId)\n        internal\n        override(ERC721, ERC721Enumerable)\n    {\n        super._beforeTokenTransfer(from, to, tokenId);\n    }\n\n    function _burn(uint256 tokenId) internal override(ERC721, ERC721URIStorage) {\n        super._burn(tokenId);\n    }\n\n    function tokenURI(uint256 tokenId)\n        public\n        view\n        override(ERC721, ERC721URIStorage)\n        returns (string memory)\n    {\n        return super.tokenURI(tokenId);\n    }\n\n    function supportsInterface(bytes4 interfaceId)\n        public\n        view\n        override(ERC721, ERC721Enumerable)\n        returns (bool)\n    {\n        return super.supportsInterface(interfaceId);\n    }\n\n    function mint(string memory _tokenURI, uint256 _price) public onlyOwner returns (bool)\n    {\n        uint256 _tokenId = totalSupply() + 1;\n        price[_tokenId] = _price;\n        _mint(address(this), _tokenId);\n        _setTokenURI(_tokenId, _tokenURI);\n        return true;\n    }\n\n    function buy(uint256 _id) external payable {\n        _validate(_id); \n        _trade(_id);\n        emit Purchase(msg.sender, price[_id], _id, tokenURI(_id));\n    }\n\n    function _validate(uint256 _id) internal {\n        require(_exists(_id), \"Error, wrong Token id\");\n        require(!sold[_id], \"Error, Token is sold\");\n        require(msg.value >= price[_id], \"Error, Token costs more\"); \n    }\n\n    function _trade(uint256 _id) internal {\n        _transfer(address(this), msg.sender, _id);\n        _owner.transfer(msg.value);\n        sold[_id] = true;\n    }\n}\n",
  "sourcePath": "/Users/jjcheng77/Documents/DriveSynced/CMU/FourthYear/17733/storyline/contracts/Nft.sol",
  "compiler": {
    "name": "solc",
    "version": "0.8.0+commit.c7dfd78e.Emscripten.clang"
  },
  "schemaVersion": "3.4.3",
  "updatedAt": "2021-11-21T20:07:52.468Z",
  "networkType": "ethereum",
  "devdoc": {
    "kind": "dev",
    "methods": {
      "approve(address,uint256)": {
        "details": "See {IERC721-approve}."
      },
      "balanceOf(address)": {
        "details": "See {IERC721-balanceOf}."
      },
      "getApproved(uint256)": {
        "details": "See {IERC721-getApproved}."
      },
      "isApprovedForAll(address,address)": {
        "details": "See {IERC721-isApprovedForAll}."
      },
      "name()": {
        "details": "See {IERC721Metadata-name}."
      },
      "owner()": {
        "details": "Returns the address of the current owner."
      },
      "ownerOf(uint256)": {
        "details": "See {IERC721-ownerOf}."
      },
      "renounceOwnership()": {
        "details": "Leaves the contract without owner. It will not be possible to call `onlyOwner` functions anymore. Can only be called by the current owner. NOTE: Renouncing ownership will leave the contract without an owner, thereby removing any functionality that is only available to the owner."
      },
      "safeTransferFrom(address,address,uint256)": {
        "details": "See {IERC721-safeTransferFrom}."
      },
      "safeTransferFrom(address,address,uint256,bytes)": {
        "details": "See {IERC721-safeTransferFrom}."
      },
      "setApprovalForAll(address,bool)": {
        "details": "See {IERC721-setApprovalForAll}."
      },
      "symbol()": {
        "details": "See {IERC721Metadata-symbol}."
      },
      "tokenByIndex(uint256)": {
        "details": "See {IERC721Enumerable-tokenByIndex}."
      },
      "tokenOfOwnerByIndex(address,uint256)": {
        "details": "See {IERC721Enumerable-tokenOfOwnerByIndex}."
      },
      "totalSupply()": {
        "details": "See {IERC721Enumerable-totalSupply}."
      },
      "transferFrom(address,address,uint256)": {
        "details": "See {IERC721-transferFrom}."
      },
      "transferOwnership(address)": {
        "details": "Transfers ownership of the contract to a new account (`newOwner`). Can only be called by the current owner."
      }
    },
    "version": 1
  },
  "userdoc": {
    "kind": "user",
    "methods": {},
    "version": 1
  }
}