{
  "contractName": "NFT",
  "abi": [
    {
      "inputs": [
        {
          "internalType": "address",
          "name": "origin",
          "type": "address"
        }
      ],
      "stateMutability": "nonpayable",
      "type": "constructor"
    },
    {
      "anonymous": false,
      "inputs": [
        {
          "indexed": true,
          "internalType": "address",
          "name": "owner",
          "type": "address"
        },
        {
          "indexed": true,
          "internalType": "address",
          "name": "approved",
          "type": "address"
        },
        {
          "indexed": true,
          "internalType": "uint256",
          "name": "tokenId",
          "type": "uint256"
        }
      ],
      "name": "Approval",
      "type": "event"
    },
    {
      "anonymous": false,
      "inputs": [
        {
          "indexed": true,
          "internalType": "address",
          "name": "owner",
          "type": "address"
        },
        {
          "indexed": true,
          "internalType": "address",
          "name": "operator",
          "type": "address"
        },
        {
          "indexed": false,
          "internalType": "bool",
          "name": "approved",
          "type": "bool"
        }
      ],
      "name": "ApprovalForAll",
      "type": "event"
    },
    {
      "anonymous": false,
      "inputs": [
        {
          "indexed": false,
          "internalType": "address",
          "name": "owner",
          "type": "address"
        },
        {
          "indexed": false,
          "internalType": "uint256",
          "name": "price",
          "type": "uint256"
        },
        {
          "indexed": false,
          "internalType": "uint256",
          "name": "id",
          "type": "uint256"
        },
        {
          "indexed": false,
          "internalType": "string",
          "name": "uri",
          "type": "string"
        }
      ],
      "name": "AttemptPurchase",
      "type": "event"
    },
    {
      "anonymous": false,
      "inputs": [
        {
          "indexed": false,
          "internalType": "address",
          "name": "owner",
          "type": "address"
        },
        {
          "indexed": false,
          "internalType": "uint256",
          "name": "price",
          "type": "uint256"
        },
        {
          "indexed": false,
          "internalType": "uint256",
          "name": "id",
          "type": "uint256"
        },
        {
          "indexed": false,
          "internalType": "string",
          "name": "uri",
          "type": "string"
        }
      ],
      "name": "Purchase",
      "type": "event"
    },
    {
      "anonymous": false,
      "inputs": [
        {
          "indexed": true,
          "internalType": "address",
          "name": "from",
          "type": "address"
        },
        {
          "indexed": true,
          "internalType": "address",
          "name": "to",
          "type": "address"
        },
        {
          "indexed": true,
          "internalType": "uint256",
          "name": "tokenId",
          "type": "uint256"
        }
      ],
      "name": "Transfer",
      "type": "event"
    },
    {
      "inputs": [],
      "name": "_owner",
      "outputs": [
        {
          "internalType": "address payable",
          "name": "",
          "type": "address"
        }
      ],
      "stateMutability": "view",
      "type": "function"
    },
    {
      "inputs": [
        {
          "internalType": "address",
          "name": "to",
          "type": "address"
        },
        {
          "internalType": "uint256",
          "name": "tokenId",
          "type": "uint256"
        }
      ],
      "name": "approve",
      "outputs": [],
      "stateMutability": "nonpayable",
      "type": "function"
    },
    {
      "inputs": [
        {
          "internalType": "address",
          "name": "owner",
          "type": "address"
        }
      ],
      "name": "balanceOf",
      "outputs": [
        {
          "internalType": "uint256",
          "name": "",
          "type": "uint256"
        }
      ],
      "stateMutability": "view",
      "type": "function"
    },
    {
      "inputs": [
        {
          "internalType": "uint256",
          "name": "tokenId",
          "type": "uint256"
        }
      ],
      "name": "getApproved",
      "outputs": [
        {
          "internalType": "address",
          "name": "",
          "type": "address"
        }
      ],
      "stateMutability": "view",
      "type": "function"
    },
    {
      "inputs": [
        {
          "internalType": "address",
          "name": "owner",
          "type": "address"
        },
        {
          "internalType": "address",
          "name": "operator",
          "type": "address"
        }
      ],
      "name": "isApprovedForAll",
      "outputs": [
        {
          "internalType": "bool",
          "name": "",
          "type": "bool"
        }
      ],
      "stateMutability": "view",
      "type": "function"
    },
    {
      "inputs": [],
      "name": "name",
      "outputs": [
        {
          "internalType": "string",
          "name": "",
          "type": "string"
        }
      ],
      "stateMutability": "view",
      "type": "function"
    },
    {
      "inputs": [
        {
          "internalType": "uint256",
          "name": "tokenId",
          "type": "uint256"
        }
      ],
      "name": "ownerOf",
      "outputs": [
        {
          "internalType": "address",
          "name": "",
          "type": "address"
        }
      ],
      "stateMutability": "view",
      "type": "function"
    },
    {
      "inputs": [],
      "name": "price",
      "outputs": [
        {
          "internalType": "uint256",
          "name": "",
          "type": "uint256"
        }
      ],
      "stateMutability": "view",
      "type": "function"
    },
    {
      "inputs": [
        {
          "internalType": "address",
          "name": "from",
          "type": "address"
        },
        {
          "internalType": "address",
          "name": "to",
          "type": "address"
        },
        {
          "internalType": "uint256",
          "name": "tokenId",
          "type": "uint256"
        }
      ],
      "name": "safeTransferFrom",
      "outputs": [],
      "stateMutability": "nonpayable",
      "type": "function"
    },
    {
      "inputs": [
        {
          "internalType": "address",
          "name": "from",
          "type": "address"
        },
        {
          "internalType": "address",
          "name": "to",
          "type": "address"
        },
        {
          "internalType": "uint256",
          "name": "tokenId",
          "type": "uint256"
        },
        {
          "internalType": "bytes",
          "name": "_data",
          "type": "bytes"
        }
      ],
      "name": "safeTransferFrom",
      "outputs": [],
      "stateMutability": "nonpayable",
      "type": "function"
    },
    {
      "inputs": [],
      "name": "selling",
      "outputs": [
        {
          "internalType": "bool",
          "name": "",
          "type": "bool"
        }
      ],
      "stateMutability": "view",
      "type": "function"
    },
    {
      "inputs": [
        {
          "internalType": "address",
          "name": "operator",
          "type": "address"
        },
        {
          "internalType": "bool",
          "name": "approved",
          "type": "bool"
        }
      ],
      "name": "setApprovalForAll",
      "outputs": [],
      "stateMutability": "nonpayable",
      "type": "function"
    },
    {
      "inputs": [],
      "name": "symbol",
      "outputs": [
        {
          "internalType": "string",
          "name": "",
          "type": "string"
        }
      ],
      "stateMutability": "view",
      "type": "function"
    },
    {
      "inputs": [
        {
          "internalType": "uint256",
          "name": "index",
          "type": "uint256"
        }
      ],
      "name": "tokenByIndex",
      "outputs": [
        {
          "internalType": "uint256",
          "name": "",
          "type": "uint256"
        }
      ],
      "stateMutability": "view",
      "type": "function"
    },
    {
      "inputs": [
        {
          "internalType": "address",
          "name": "owner",
          "type": "address"
        },
        {
          "internalType": "uint256",
          "name": "index",
          "type": "uint256"
        }
      ],
      "name": "tokenOfOwnerByIndex",
      "outputs": [
        {
          "internalType": "uint256",
          "name": "",
          "type": "uint256"
        }
      ],
      "stateMutability": "view",
      "type": "function"
    },
    {
      "inputs": [],
      "name": "token_id",
      "outputs": [
        {
          "internalType": "uint256",
          "name": "",
          "type": "uint256"
        }
      ],
      "stateMutability": "view",
      "type": "function"
    },
    {
      "inputs": [],
      "name": "totalSupply",
      "outputs": [
        {
          "internalType": "uint256",
          "name": "",
          "type": "uint256"
        }
      ],
      "stateMutability": "view",
      "type": "function"
    },
    {
      "inputs": [
        {
          "internalType": "address",
          "name": "from",
          "type": "address"
        },
        {
          "internalType": "address",
          "name": "to",
          "type": "address"
        },
        {
          "internalType": "uint256",
          "name": "tokenId",
          "type": "uint256"
        }
      ],
      "name": "transferFrom",
      "outputs": [],
      "stateMutability": "nonpayable",
      "type": "function"
    },
    {
      "inputs": [],
      "name": "getOwner",
      "outputs": [
        {
          "internalType": "address",
          "name": "",
          "type": "address"
        }
      ],
      "stateMutability": "view",
      "type": "function"
    },
    {
      "inputs": [],
      "name": "isForSale",
      "outputs": [
        {
          "internalType": "bool",
          "name": "",
          "type": "bool"
        }
      ],
      "stateMutability": "view",
      "type": "function"
    },
    {
      "inputs": [],
      "name": "getPrice",
      "outputs": [
        {
          "internalType": "uint256",
          "name": "",
          "type": "uint256"
        }
      ],
      "stateMutability": "view",
      "type": "function"
    },
    {
      "inputs": [
        {
          "internalType": "uint256",
          "name": "_token_id",
          "type": "uint256"
        }
      ],
      "name": "tokenURI",
      "outputs": [
        {
          "internalType": "string",
          "name": "",
          "type": "string"
        }
      ],
      "stateMutability": "view",
      "type": "function"
    },
    {
      "inputs": [
        {
          "internalType": "bytes4",
          "name": "interfaceId",
          "type": "bytes4"
        }
      ],
      "name": "supportsInterface",
      "outputs": [
        {
          "internalType": "bool",
          "name": "",
          "type": "bool"
        }
      ],
      "stateMutability": "view",
      "type": "function"
    },
    {
      "inputs": [
        {
          "internalType": "address",
          "name": "origin",
          "type": "address"
        },
        {
          "internalType": "string",
          "name": "_tokenURI",
          "type": "string"
        },
        {
          "internalType": "uint256",
          "name": "_token_id",
          "type": "uint256"
        },
        {
          "internalType": "uint256",
          "name": "_price",
          "type": "uint256"
        }
      ],
      "name": "mint",
      "outputs": [
        {
          "internalType": "bool",
          "name": "",
          "type": "bool"
        }
      ],
      "stateMutability": "nonpayable",
      "type": "function"
    },
    {
      "inputs": [
        {
          "internalType": "address",
          "name": "origin",
          "type": "address"
        }
      ],
      "name": "buy",
      "outputs": [],
      "stateMutability": "payable",
      "type": "function"
    },
    {
      "inputs": [
        {
          "internalType": "address",
          "name": "origin",
          "type": "address"
        },
        {
          "internalType": "uint256",
          "name": "new_price",
          "type": "uint256"
        }
      ],
      "name": "sell",
      "outputs": [],
      "stateMutability": "nonpayable",
      "type": "function"
    }
  ],
  "bytecode": "0x60806040523480156200001157600080fd5b50604051620022ac380380620022ac83398101604081905262000034916200016d565b604080518082018252600c81526b14dd1bdc9e515b195b595b9d60a21b602080830191825283518085019094526002845261534560f01b9084015281519192916200008291600091620000c7565b50805162000098906001906020840190620000c7565b5050600b80546001600160a01b0319166001600160a01b039390931692909217909155506000600c55620001da565b828054620000d5906200019d565b90600052602060002090601f016020900481019282620000f9576000855562000144565b82601f106200011457805160ff191683800117855562000144565b8280016001018555821562000144579182015b828111156200014457825182559160200191906001019062000127565b506200015292915062000156565b5090565b5b8082111562000152576000815560010162000157565b6000602082840312156200017f578081fd5b81516001600160a01b038116811462000196578182fd5b9392505050565b600281046001821680620001b257607f821691505b60208210811415620001d457634e487b7160e01b600052602260045260246000fd5b50919050565b6120c280620001ea6000396000f3fe6080604052600436106101815760003560e01c80636c197ff5116100d1578063a22cb4651161008a578063c87b56dd11610064578063c87b56dd14610422578063d566813114610442578063e985e9c514610457578063f088d5471461047757610181565b8063a22cb465146103cd578063b2bdfa7b146103ed578063b88d4fde1461040257610181565b80636c197ff51461033957806370a0823114610359578063893d20e81461037957806395d89b411461038e57806398d5fdca146103a3578063a035b1fe146103b857610181565b806323aed2281161013e57806342842e0e1161011857806342842e0e146102b95780634a5dc3aa146102d95780634f6ccce7146102f95780636352211e1461031957610181565b806323aed2281461026457806323b872dd146102795780632f745c591461029957610181565b806301ffc9a71461018657806306fdde03146101bc578063081812fc146101de578063095ea7b31461020b57806318160ddd1461022d57806320b08dc21461024f575b600080fd5b34801561019257600080fd5b506101a66101a1366004611879565b61048a565b6040516101b391906119a2565b60405180910390f35b3480156101c857600080fd5b506101d161049d565b6040516101b391906119ad565b3480156101ea57600080fd5b506101fe6101f93660046118b1565b61052f565b6040516101b39190611924565b34801561021757600080fd5b5061022b610226366004611850565b61057b565b005b34801561023957600080fd5b50610242610613565b6040516101b39190611f4f565b34801561025b57600080fd5b506101a6610619565b34801561027057600080fd5b506101a6610629565b34801561028557600080fd5b5061022b6102943660046116f3565b610639565b3480156102a557600080fd5b506102426102b4366004611850565b610671565b3480156102c557600080fd5b5061022b6102d43660046116f3565b6106c3565b3480156102e557600080fd5b506101a66102f43660046117e1565b6106de565b34801561030557600080fd5b506102426103143660046118b1565b610727565b34801561032557600080fd5b506101fe6103343660046118b1565b610782565b34801561034557600080fd5b5061022b610354366004611850565b6107b7565b34801561036557600080fd5b506102426103743660046116a7565b6107ed565b34801561038557600080fd5b506101fe610831565b34801561039a57600080fd5b506101d1610840565b3480156103af57600080fd5b5061024261084f565b3480156103c457600080fd5b50610242610855565b3480156103d957600080fd5b5061022b6103e83660046117a7565b61085b565b3480156103f957600080fd5b506101fe610929565b34801561040e57600080fd5b5061022b61041d36600461172e565b610938565b34801561042e57600080fd5b506101d161043d3660046118b1565b610977565b34801561044e57600080fd5b50610242610982565b34801561046357600080fd5b506101a66104723660046116c1565b610988565b61022b6104853660046116a7565b6109b6565b600061049582610af6565b90505b919050565b6060600080546104ac90611fc7565b80601f01602080910402602001604051908101604052809291908181526020018280546104d890611fc7565b80156105255780601f106104fa57610100808354040283529160200191610525565b820191906000526020600020905b81548152906001019060200180831161050857829003601f168201915b5050505050905090565b600061053a82610b1b565b61055f5760405162461bcd60e51b815260040161055690611d8d565b60405180910390fd5b506000908152600460205260409020546001600160a01b031690565b600061058682610782565b9050806001600160a01b0316836001600160a01b031614156105ba5760405162461bcd60e51b815260040161055690611e71565b806001600160a01b03166105cc610b38565b6001600160a01b031614806105e857506105e881610472610b38565b6106045760405162461bcd60e51b815260040161055690611bc9565b61060e8383610b3c565b505050565b60095490565b600b54600160a01b900460ff1690565b600b54600160a01b900460ff1681565b61064a610644610b38565b82610baa565b6106665760405162461bcd60e51b815260040161055690611eb2565b61060e838383610c2f565b600061067c836107ed565b821061069a5760405162461bcd60e51b8152600401610556906119c0565b506001600160a01b03919091166000908152600760209081526040808320938352929052205490565b61060e83838360405180602001604052806000815250610938565b600b5460009085906001600160a01b038083169116146106fd57600080fd5b600c839055600d8490556107113085610d5c565b61071b8486610e3b565b50600195945050505050565b6000610731610613565b821061074f5760405162461bcd60e51b815260040161055690611f03565b6009828154811061077057634e487b7160e01b600052603260045260246000fd5b90600052602060002001549050919050565b6000818152600260205260408120546001600160a01b0316806104955760405162461bcd60e51b815260040161055690611c70565b600b5482906001600160a01b038083169116146107d357600080fd5b50600c5550600b805460ff60a01b1916600160a01b179055565b60006001600160a01b0382166108155760405162461bcd60e51b815260040161055690611c26565b506001600160a01b031660009081526003602052604090205490565b600b546001600160a01b031690565b6060600180546104ac90611fc7565b600c5490565b600c5481565b610863610b38565b6001600160a01b0316826001600160a01b031614156108945760405162461bcd60e51b815260040161055690611ad8565b80600560006108a1610b38565b6001600160a01b03908116825260208083019390935260409182016000908120918716808252919093529120805460ff1916921515929092179091556108e5610b38565b6001600160a01b03167f17307eab39ab6107e8899845ad3d59bd9653f200f220920489ca2b5937696c318360405161091d91906119a2565b60405180910390a35050565b600b546001600160a01b031681565b610949610943610b38565b83610baa565b6109655760405162461bcd60e51b815260040161055690611eb2565b61097184848484610e7f565b50505050565b606061049582610eb2565b600d5481565b6001600160a01b03918216600090815260056020908152604080832093909416825291909152205460ff1690565b7fcc798afac0ca558aa6acf371eff1cbf6769ab248f4fdf4359ad7a28b5dae342b81600c54600d546109e9600d54610977565b6040516109f99493929190611975565b60405180910390a1600b54600160a01b900460ff16610a2a5760405162461bcd60e51b815260040161055690611b0f565b600c54341015610a4c5760405162461bcd60e51b815260040161055690611b92565b600b546040516001600160a01b03909116903480156108fc02916000818181858888f19350505050158015610a85573d6000803e3d6000fd5b50600b80546001600160a01b0319166001600160a01b0383161760ff60a01b19169055600c54600d547f6d5507734d4d9e8592119c9e6b3e2bf7eab8bd6252f36e2fa05a5588442479da918391610adb81610977565b604051610aeb9493929190611975565b60405180910390a150565b60006001600160e01b0319821663780e9d6360e01b1480610495575061049582610fcb565b6000908152600260205260409020546001600160a01b0316151590565b3390565b600081815260046020526040902080546001600160a01b0319166001600160a01b0384169081179091558190610b7182610782565b6001600160a01b03167f8c5be1e5ebec7d5bd14f71427d1e84f3dd0314c0f7b2291e5b200ac8c7c3b92560405160405180910390a45050565b6000610bb582610b1b565b610bd15760405162461bcd60e51b815260040161055690611b46565b6000610bdc83610782565b9050806001600160a01b0316846001600160a01b03161480610c175750836001600160a01b0316610c0c8461052f565b6001600160a01b0316145b80610c275750610c278185610988565b949350505050565b826001600160a01b0316610c4282610782565b6001600160a01b031614610c685760405162461bcd60e51b815260040161055690611dd9565b6001600160a01b038216610c8e5760405162461bcd60e51b815260040161055690611a94565b610c9983838361100b565b610ca4600082610b3c565b6001600160a01b0383166000908152600360205260408120805460019290610ccd908490611f84565b90915550506001600160a01b0382166000908152600360205260408120805460019290610cfb908490611f58565b909155505060008181526002602052604080822080546001600160a01b0319166001600160a01b0386811691821790925591518493918716917fddf252ad1be2c89b69c2b068fc378daa952ba7f163c4a11628f55a4df523b3ef91a4505050565b6001600160a01b038216610d825760405162461bcd60e51b815260040161055690611d07565b610d8b81610b1b565b15610da85760405162461bcd60e51b815260040161055690611a5d565b610db46000838361100b565b6001600160a01b0382166000908152600360205260408120805460019290610ddd908490611f58565b909155505060008181526002602052604080822080546001600160a01b0319166001600160a01b03861690811790915590518392907fddf252ad1be2c89b69c2b068fc378daa952ba7f163c4a11628f55a4df523b3ef908290a45050565b610e4482610b1b565b610e605760405162461bcd60e51b815260040161055690611cb9565b6000828152600660209081526040909120825161060e92840190611587565b610e8a848484610c2f565b610e9684848484611016565b6109715760405162461bcd60e51b815260040161055690611a0b565b6060610ebd82610b1b565b610ed95760405162461bcd60e51b815260040161055690611d3c565b60008281526006602052604081208054610ef290611fc7565b80601f0160208091040260200160405190810160405280929190818152602001828054610f1e90611fc7565b8015610f6b5780601f10610f4057610100808354040283529160200191610f6b565b820191906000526020600020905b815481529060010190602001808311610f4e57829003601f168201915b505050505090506000610f7c611131565b9050805160001415610f9057509050610498565b815115610fc2578082604051602001610faa9291906118f5565b60405160208183030381529060405292505050610498565b610c2784611143565b60006001600160e01b031982166380ac58cd60e01b1480610ffc57506001600160e01b03198216635b5e139f60e01b145b806104955750610495826111c6565b61060e8383836111df565b600061102a846001600160a01b0316611268565b1561112657836001600160a01b031663150b7a02611046610b38565b8786866040518563ffffffff1660e01b81526004016110689493929190611938565b602060405180830381600087803b15801561108257600080fd5b505af19250505080156110b2575060408051601f3d908101601f191682019092526110af91810190611895565b60015b61110c573d8080156110e0576040519150601f19603f3d011682016040523d82523d6000602084013e6110e5565b606091505b5080516111045760405162461bcd60e51b815260040161055690611a0b565b805181602001fd5b6001600160e01b031916630a85bd0160e11b149050610c27565b506001949350505050565b60408051602081019091526000815290565b606061114e82610b1b565b61116a5760405162461bcd60e51b815260040161055690611e22565b6000611174611131565b9050600081511161119457604051806020016040528060008152506111bf565b8061119e8461126e565b6040516020016111af9291906118f5565b6040516020818303038152906040525b9392505050565b6001600160e01b031981166301ffc9a760e01b14919050565b6111ea83838361060e565b6001600160a01b0383166112065761120181611389565b611229565b816001600160a01b0316836001600160a01b0316146112295761122983826113cd565b6001600160a01b038216611245576112408161146a565b61060e565b826001600160a01b0316826001600160a01b03161461060e5761060e8282611543565b3b151590565b60608161129357506040805180820190915260018152600360fc1b6020820152610498565b8160005b81156112bd57806112a781612002565b91506112b69050600a83611f70565b9150611297565b60008167ffffffffffffffff8111156112e657634e487b7160e01b600052604160045260246000fd5b6040519080825280601f01601f191660200182016040528015611310576020820181803683370190505b5090505b8415610c2757611325600183611f84565b9150611332600a8661201d565b61133d906030611f58565b60f81b81838151811061136057634e487b7160e01b600052603260045260246000fd5b60200101906001600160f81b031916908160001a905350611382600a86611f70565b9450611314565b600980546000838152600a60205260408120829055600182018355919091527f6e1540171b6c0c960b71a7020d9f60077f6af931a8bbf590da0223dacf75c7af0155565b600060016113da846107ed565b6113e49190611f84565b600083815260086020526040902054909150808214611437576001600160a01b03841660009081526007602090815260408083208584528252808320548484528184208190558352600890915290208190555b5060009182526008602090815260408084208490556001600160a01b039094168352600781528383209183525290812055565b60095460009061147c90600190611f84565b6000838152600a6020526040812054600980549394509092849081106114b257634e487b7160e01b600052603260045260246000fd5b9060005260206000200154905080600983815481106114e157634e487b7160e01b600052603260045260246000fd5b6000918252602080832090910192909255828152600a9091526040808220849055858252812055600980548061152757634e487b7160e01b600052603160045260246000fd5b6001900381819060005260206000200160009055905550505050565b600061154e836107ed565b6001600160a01b039093166000908152600760209081526040808320868452825280832085905593825260089052919091209190915550565b82805461159390611fc7565b90600052602060002090601f0160209004810192826115b557600085556115fb565b82601f106115ce57805160ff19168380011785556115fb565b828001600101855582156115fb579182015b828111156115fb5782518255916020019190600101906115e0565b5061160792915061160b565b5090565b5b80821115611607576000815560010161160c565b600067ffffffffffffffff8084111561163b5761163b61205d565b604051601f8501601f19168101602001828111828210171561165f5761165f61205d565b60405284815291508183850186101561167757600080fd5b8484602083013760006020868301015250509392505050565b80356001600160a01b038116811461049857600080fd5b6000602082840312156116b8578081fd5b6111bf82611690565b600080604083850312156116d3578081fd5b6116dc83611690565b91506116ea60208401611690565b90509250929050565b600080600060608486031215611707578081fd5b61171084611690565b925061171e60208501611690565b9150604084013590509250925092565b60008060008060808587031215611743578081fd5b61174c85611690565b935061175a60208601611690565b925060408501359150606085013567ffffffffffffffff81111561177c578182fd5b8501601f8101871361178c578182fd5b61179b87823560208401611620565b91505092959194509250565b600080604083850312156117b9578182fd5b6117c283611690565b9150602083013580151581146117d6578182fd5b809150509250929050565b600080600080608085870312156117f6578384fd5b6117ff85611690565b9350602085013567ffffffffffffffff81111561181a578384fd5b8501601f8101871361182a578384fd5b61183987823560208401611620565b949794965050505060408301359260600135919050565b60008060408385031215611862578182fd5b61186b83611690565b946020939093013593505050565b60006020828403121561188a578081fd5b81356111bf81612073565b6000602082840312156118a6578081fd5b81516111bf81612073565b6000602082840312156118c2578081fd5b5035919050565b600081518084526118e1816020860160208601611f9b565b601f01601f19169290920160200192915050565b60008351611907818460208801611f9b565b83519083019061191b818360208801611f9b565b01949350505050565b6001600160a01b0391909116815260200190565b6001600160a01b038581168252841660208201526040810183905260806060820181905260009061196b908301846118c9565b9695505050505050565b600060018060a01b03861682528460208301528360408301526080606083015261196b60808301846118c9565b901515815260200190565b6000602082526111bf60208301846118c9565b6020808252602b908201527f455243373231456e756d657261626c653a206f776e657220696e646578206f7560408201526a74206f6620626f756e647360a81b606082015260800190565b60208082526032908201527f4552433732313a207472616e7366657220746f206e6f6e20455243373231526560408201527131b2b4bb32b91034b6b83632b6b2b73a32b960711b606082015260800190565b6020808252601c908201527f4552433732313a20746f6b656e20616c7265616479206d696e74656400000000604082015260600190565b60208082526024908201527f4552433732313a207472616e7366657220746f20746865207a65726f206164646040820152637265737360e01b606082015260800190565b60208082526019908201527f4552433732313a20617070726f766520746f2063616c6c657200000000000000604082015260600190565b6020808252601e908201527f4572726f722c20546f6b656e206973206e6f74206265696e6720736f6c640000604082015260600190565b6020808252602c908201527f4552433732313a206f70657261746f7220717565727920666f72206e6f6e657860408201526b34b9ba32b73a103a37b5b2b760a11b606082015260800190565b60208082526017908201527f4572726f722c20546f6b656e20636f737473206d6f7265000000000000000000604082015260600190565b60208082526038908201527f4552433732313a20617070726f76652063616c6c6572206973206e6f74206f7760408201527f6e6572206e6f7220617070726f76656420666f7220616c6c0000000000000000606082015260800190565b6020808252602a908201527f4552433732313a2062616c616e636520717565727920666f7220746865207a65604082015269726f206164647265737360b01b606082015260800190565b60208082526029908201527f4552433732313a206f776e657220717565727920666f72206e6f6e657869737460408201526832b73a103a37b5b2b760b91b606082015260800190565b6020808252602e908201527f45524337323155524953746f726167653a2055524920736574206f66206e6f6e60408201526d32bc34b9ba32b73a103a37b5b2b760911b606082015260800190565b6020808252818101527f4552433732313a206d696e7420746f20746865207a65726f2061646472657373604082015260600190565b60208082526031908201527f45524337323155524953746f726167653a2055524920717565727920666f72206040820152703737b732bc34b9ba32b73a103a37b5b2b760791b606082015260800190565b6020808252602c908201527f4552433732313a20617070726f76656420717565727920666f72206e6f6e657860408201526b34b9ba32b73a103a37b5b2b760a11b606082015260800190565b60208082526029908201527f4552433732313a207472616e73666572206f6620746f6b656e2074686174206960408201526839903737ba1037bbb760b91b606082015260800190565b6020808252602f908201527f4552433732314d657461646174613a2055524920717565727920666f72206e6f60408201526e3732bc34b9ba32b73a103a37b5b2b760891b606082015260800190565b60208082526021908201527f4552433732313a20617070726f76616c20746f2063757272656e74206f776e656040820152603960f91b606082015260800190565b60208082526031908201527f4552433732313a207472616e736665722063616c6c6572206973206e6f74206f6040820152701ddb995c881b9bdc88185c1c1c9bdd9959607a1b606082015260800190565b6020808252602c908201527f455243373231456e756d657261626c653a20676c6f62616c20696e646578206f60408201526b7574206f6620626f756e647360a01b606082015260800190565b90815260200190565b60008219821115611f6b57611f6b612031565b500190565b600082611f7f57611f7f612047565b500490565b600082821015611f9657611f96612031565b500390565b60005b83811015611fb6578181015183820152602001611f9e565b838111156109715750506000910152565b600281046001821680611fdb57607f821691505b60208210811415611ffc57634e487b7160e01b600052602260045260246000fd5b50919050565b600060001982141561201657612016612031565b5060010190565b60008261202c5761202c612047565b500690565b634e487b7160e01b600052601160045260246000fd5b634e487b7160e01b600052601260045260246000fd5b634e487b7160e01b600052604160045260246000fd5b6001600160e01b03198116811461208957600080fd5b5056fea2646970667358221220730027c108e4968330d48d257712d3ba3ed29c556bfb4f8442c25b9e3951ae2364736f6c63430008000033",
  "immutableReferences": {},
  "source": "// SPDX-License-Identifier: MIT\n/*\n * Work in progress\n */\npragma solidity ^0.8.0;\n\nimport \"@openzeppelin/contracts/token/ERC721/ERC721.sol\";\nimport \"@openzeppelin/contracts/access/Ownable.sol\";\nimport \"@openzeppelin/contracts/token/ERC721/extensions/ERC721URIStorage.sol\";\nimport \"@openzeppelin/contracts/token/ERC721/extensions/ERC721Enumerable.sol\";\n\ncontract NFT is ERC721, ERC721URIStorage, ERC721Enumerable {\n    address payable public _owner;\n    bool public selling;\n    uint256 public price;\n    uint256 public token_id;\n    event Purchase(address owner, uint256 price, uint256 id, string uri);\n    event AttemptPurchase(address owner, uint256 price, uint256 id, string uri);\n\n    constructor(address origin) ERC721(\"StoryElement\", \"SE\") {\n        _owner = payable(origin);\n        price = 0;\n    }\n\n    function getOwner() public view returns (address) {\n        return _owner;\n    }\n\n    function isForSale() public view returns (bool) {\n        return selling;\n    }\n\n    function getPrice() public view returns (uint256) {\n        return price;\n    }\n\n    /*\n     * Overrides\n     */\n    function _beforeTokenTransfer(\n        address from,\n        address to,\n        uint256 _token_id\n    ) internal override(ERC721, ERC721Enumerable) {\n        super._beforeTokenTransfer(from, to, _token_id);\n    }\n\n    function _burn(uint256 _token_id)\n        internal\n        override(ERC721, ERC721URIStorage)\n    {\n        super._burn(_token_id);\n    }\n\n    function tokenURI(uint256 _token_id)\n        public\n        view\n        override(ERC721, ERC721URIStorage)\n        returns (string memory)\n    {\n        return super.tokenURI(_token_id);\n    }\n\n    function supportsInterface(bytes4 interfaceId)\n        public\n        view\n        override(ERC721, ERC721Enumerable)\n        returns (bool)\n    {\n        return super.supportsInterface(interfaceId);\n    }\n\n    modifier onlyOwner(address origin) {\n        require(origin == _owner);\n        _;\n    }\n\n    function mint(\n        address origin,\n        string memory _tokenURI,\n        uint256 _token_id,\n        uint256 _price\n    ) public onlyOwner(origin) returns (bool) {\n        //uint256 _token_id = totalSupply() + 1;\n        // @dev console.log not showing up\n        //console.log(\"TOKEN: %d\", _token_id);\n        price = _price;\n        token_id = _token_id;\n        _mint(address(this), _token_id);\n        _setTokenURI(_token_id, _tokenURI);\n        return true;\n    }\n\n    function buy(address origin) external payable {\n        // _validate();\n        emit AttemptPurchase(origin, price, token_id, tokenURI(token_id));\n        require(selling, \"Error, Token is not being sold\");\n        require(msg.value >= price, \"Error, Token costs more\");\n        // _trade(origin);\n        // _transfer(address(this), origin, token_id);\n        _owner.transfer(msg.value);\n        _owner = payable(origin);\n        selling = false;\n        emit Purchase(origin, price, token_id, tokenURI(token_id));\n    }\n\n    function sell(address origin, uint256 new_price)\n        external\n        onlyOwner(origin)\n    {\n        price = new_price;\n        selling = true;\n    }\n\n    function _validate() internal {\n        require(selling, \"Error, Token is not being sold\");\n        require(msg.value >= price, \"Error, Token costs more\");\n    }\n\n    function _trade(address origin) internal {\n        _transfer(address(this), origin, token_id);\n        _owner.transfer(msg.value);\n        selling = false;\n    }\n}\n",
  "sourcePath": "/Users/jjcheng77/Documents/DriveSynced/CMU/FourthYear/17733/storyline/contracts/Nft.sol",
  "compiler": {
    "name": "solc",
    "version": "0.8.0+commit.c7dfd78e.Emscripten.clang"
  },
  "schemaVersion": "3.4.3",
  "updatedAt": "2021-11-29T04:52:21.323Z",
  "devdoc": {
    "kind": "dev",
    "methods": {
      "approve(address,uint256)": {
        "details": "See {IERC721-approve}."
      },
      "balanceOf(address)": {
        "details": "See {IERC721-balanceOf}."
      },
      "getApproved(uint256)": {
        "details": "See {IERC721-getApproved}."
      },
      "isApprovedForAll(address,address)": {
        "details": "See {IERC721-isApprovedForAll}."
      },
      "name()": {
        "details": "See {IERC721Metadata-name}."
      },
      "ownerOf(uint256)": {
        "details": "See {IERC721-ownerOf}."
      },
      "safeTransferFrom(address,address,uint256)": {
        "details": "See {IERC721-safeTransferFrom}."
      },
      "safeTransferFrom(address,address,uint256,bytes)": {
        "details": "See {IERC721-safeTransferFrom}."
      },
      "setApprovalForAll(address,bool)": {
        "details": "See {IERC721-setApprovalForAll}."
      },
      "symbol()": {
        "details": "See {IERC721Metadata-symbol}."
      },
      "tokenByIndex(uint256)": {
        "details": "See {IERC721Enumerable-tokenByIndex}."
      },
      "tokenOfOwnerByIndex(address,uint256)": {
        "details": "See {IERC721Enumerable-tokenOfOwnerByIndex}."
      },
      "totalSupply()": {
        "details": "See {IERC721Enumerable-totalSupply}."
      },
      "transferFrom(address,address,uint256)": {
        "details": "See {IERC721-transferFrom}."
      }
    },
    "version": 1
  },
  "userdoc": {
    "kind": "user",
    "methods": {},
    "version": 1
  }
}