{
  "contractName": "Story",
  "abi": [
    {
      "inputs": [],
      "stateMutability": "nonpayable",
      "type": "constructor"
    },
    {
      "anonymous": false,
      "inputs": [
        {
          "indexed": false,
          "internalType": "uint256",
          "name": "_id",
          "type": "uint256"
        },
        {
          "indexed": false,
          "internalType": "uint256",
          "name": "price",
          "type": "uint256"
        },
        {
          "indexed": false,
          "internalType": "address",
          "name": "owner",
          "type": "address"
        }
      ],
      "name": "ListSuccess",
      "type": "event"
    },
    {
      "inputs": [
        {
          "internalType": "string",
          "name": "_content",
          "type": "string"
        }
      ],
      "name": "createStoryElement",
      "outputs": [],
      "stateMutability": "payable",
      "type": "function",
      "payable": true
    },
    {
      "inputs": [],
      "name": "getFullStory",
      "outputs": [
        {
          "components": [
            {
              "internalType": "uint256",
              "name": "id",
              "type": "uint256"
            },
            {
              "internalType": "uint256",
              "name": "dateTime",
              "type": "uint256"
            },
            {
              "internalType": "string",
              "name": "content",
              "type": "string"
            },
            {
              "internalType": "address",
              "name": "author",
              "type": "address"
            },
            {
              "internalType": "contract NFT",
              "name": "nft",
              "type": "address"
            }
          ],
          "internalType": "struct Story.StoryElement[]",
          "name": "",
          "type": "tuple[]"
        }
      ],
      "stateMutability": "view",
      "type": "function",
      "constant": true
    },
    {
      "inputs": [
        {
          "internalType": "uint256",
          "name": "_id",
          "type": "uint256"
        }
      ],
      "name": "getStoryElement",
      "outputs": [
        {
          "components": [
            {
              "internalType": "uint256",
              "name": "id",
              "type": "uint256"
            },
            {
              "internalType": "uint256",
              "name": "dateTime",
              "type": "uint256"
            },
            {
              "internalType": "string",
              "name": "content",
              "type": "string"
            },
            {
              "internalType": "address",
              "name": "author",
              "type": "address"
            },
            {
              "internalType": "contract NFT",
              "name": "nft",
              "type": "address"
            }
          ],
          "internalType": "struct Story.StoryElement",
          "name": "",
          "type": "tuple"
        }
      ],
      "stateMutability": "view",
      "type": "function",
      "constant": true
    },
    {
      "inputs": [
        {
          "internalType": "uint256",
          "name": "_id",
          "type": "uint256"
        }
      ],
      "name": "removeStoryElement",
      "outputs": [],
      "stateMutability": "nonpayable",
      "type": "function"
    },
    {
      "inputs": [
        {
          "internalType": "uint256",
          "name": "_id",
          "type": "uint256"
        }
      ],
      "name": "buyStoryElement",
      "outputs": [],
      "stateMutability": "payable",
      "type": "function",
      "payable": true
    },
    {
      "inputs": [
        {
          "internalType": "uint256",
          "name": "_id",
          "type": "uint256"
        },
        {
          "internalType": "uint256",
          "name": "new_price",
          "type": "uint256"
        }
      ],
      "name": "listStoryElement",
      "outputs": [],
      "stateMutability": "nonpayable",
      "type": "function"
    }
  ],
  "bytecode": "0x6080604052603260025560006003553480156200001b57600080fd5b506040516200002a906200032e565b604051809103906000f08015801562000047573d6000803e3d6000fd5b50600480546001600160a01b0319166001600160a01b039290921691909117905560018055604080518082019091526011815270027b731b2903ab837b71030903a34b6b29607d1b60208201526200009f90620000a5565b62000626565b620000af6200033c565b60018054808352604083018490524260208401523360608401521115620002375733604051620000df906200037d565b620000eb919062000508565b604051809103906000f08015801562000108573d6000803e3d6000fd5b506001600160a01b039081166080830152600480548351604051637bb7ca8760e11b8152600094929092169263f76f950e92620001479291016200056f565b60006040518083038186803b1580156200016057600080fd5b505afa15801562000175573d6000803e3d6000fd5b505050506040513d6000823e601f3d908101601f191682016040526200019f91908101906200045a565b6080830151835160025460405163252ee1d560e11b81529394506001600160a01b0390921692634a5dc3aa92620001de9233928792906004016200051c565b602060405180830381600087803b158015620001f957600080fd5b505af11580156200020e573d6000803e3d6000fd5b505050506040513d601f19601f8201168201806040525081019062000234919062000431565b50505b600180549060006200024983620005e8565b909155505060008054600181018255908052815160059091027f290decd9548b62a8d60345a988386fc84ba6bc95484008f6362f93160ef3e56381019182556020808401517f290decd9548b62a8d60345a988386fc84ba6bc95484008f6362f93160ef3e56483015560408401518051859493620002ee937f290decd9548b62a8d60345a988386fc84ba6bc95484008f6362f93160ef3e5659091019201906200038b565b5060608201516003820180546001600160a01b03199081166001600160a01b03938416179091556080909301516004909201805490931691161790555050565b6102e0806200393e83390190565b6040518060a0016040528060008152602001600081526020016060815260200160006001600160a01b0316815260200160006001600160a01b031681525090565b6122978062003c1e83390190565b8280546200039990620005ab565b90600052602060002090601f016020900481019282620003bd576000855562000408565b82601f10620003d857805160ff191683800117855562000408565b8280016001018555821562000408579182015b8281111562000408578251825591602001919060010190620003eb565b50620004169291506200041a565b5090565b5b808211156200041657600081556001016200041b565b60006020828403121562000443578081fd5b8151801515811462000453578182fd5b9392505050565b6000602082840312156200046c578081fd5b81516001600160401b038082111562000483578283fd5b818401915084601f83011262000497578283fd5b815181811115620004ac57620004ac62000610565b604051601f8201601f191681016020018381118282101715620004d357620004d362000610565b604052818152838201602001871015620004eb578485fd5b620004fe82602083016020870162000578565b9695505050505050565b6001600160a01b0391909116815260200190565b600060018060a01b03861682526080602083015284518060808401526200054b8160a085016020890162000578565b604083019490945250606081019190915260a0601f909201601f1916010192915050565b90815260200190565b60005b83811015620005955781810151838201526020016200057b565b83811115620005a5576000848401525b50505050565b600281046001821680620005c057607f821691505b60208210811415620005e257634e487b7160e01b600052602260045260246000fd5b50919050565b60006000198214156200060957634e487b7160e01b81526011600452602481fd5b5060010190565b634e487b7160e01b600052604160045260246000fd5b61330880620006366000396000f3fe6080604052600436106200005c5760003560e01c80630a4f47aa14620000615780634604a8f01462000091578063572710d914620000c55780635dbd06e714620000ec57806380d871661462000103578063cda71abe146200011a575b600080fd5b3480156200006e57600080fd5b50620000796200013f565b60405162000088919062000e39565b60405180910390f35b3480156200009e57600080fd5b50620000b6620000b036600462000d11565b62000274565b60405162000088919062000e9d565b348015620000d257600080fd5b50620000ea620000e436600462000d2a565b620003ba565b005b620000ea620000fd36600462000d11565b620004bf565b620000ea6200011436600462000c14565b62000586565b3480156200012757600080fd5b50620000ea6200013936600462000d11565b6200080f565b60606000805480602002602001604051908101604052809291908181526020016000905b828210156200026b57838290600052602060002090600502016040518060a00160405290816000820154815260200160018201548152602001600282018054620001ad9062000fb4565b80601f0160208091040260200160405190810160405280929190818152602001828054620001db9062000fb4565b80156200022c5780601f1062000200576101008083540402835291602001916200022c565b820191906000526020600020905b8154815290600101906020018083116200020e57829003601f168201915b505050918352505060038201546001600160a01b0390811660208084019190915260049093015416604090910152908252600192909201910162000163565b50505050905090565b6200027e62000a2d565b600054821180159062000292575060018210155b6200029c57600080fd5b6000620002ab60018462000f4d565b81548110620002ca57634e487b7160e01b600052603260045260246000fd5b90600052602060002090600502016040518060a00160405290816000820154815260200160018201548152602001600282018054620003099062000fb4565b80601f0160208091040260200160405190810160405280929190818152602001828054620003379062000fb4565b8015620003885780601f106200035c5761010080835404028352916020019162000388565b820191906000526020600020905b8154815290600101906020018083116200036a57829003601f168201915b505050918352505060038201546001600160a01b03908116602083015260049092015490911660409091015292915050565b6000548211801590620003ce575060018210155b620003d857600080fd5b6000620003e760018462000f4d565b815481106200040657634e487b7160e01b600052603260045260246000fd5b600091825260209091206004600590920201810154604051636c197ff560e01b81526001600160a01b0390911691636c197ff5916200044a91339186910162000e20565b600060405180830381600087803b1580156200046557600080fd5b505af11580156200047a573d6000803e3d6000fd5b505050507f502335b88acc8490765fe26845fee3d03e9a197fb6c67273c5fb7efe854594a3828233604051620004b39392919062000ebb565b60405180910390a15050565b6000548111801590620004d3575060018110155b620004dd57600080fd5b6000620004ec60018362000f4d565b815481106200050b57634e487b7160e01b600052603260045260246000fd5b60009182526020909120600460059092020181015460405163f088d54760e01b81526001600160a01b039091169163f088d5479134916200054f9133910162000dd3565b6000604051808303818588803b1580156200056957600080fd5b505af11580156200057e573d6000803e3d6000fd5b505050505050565b6200059062000a2d565b60018054808352604083018490524260208401523360608401521115620007185733604051620005c09062000a6e565b620005cc919062000dd3565b604051809103906000f080158015620005e9573d6000803e3d6000fd5b506001600160a01b039081166080830152600480548351604051637bb7ca8760e11b8152600094929092169263f76f950e926200062892910162000eb2565b60006040518083038186803b1580156200064157600080fd5b505afa15801562000656573d6000803e3d6000fd5b505050506040513d6000823e601f3d908101601f1916820160405262000680919081019062000c95565b6080830151835160025460405163252ee1d560e11b81529394506001600160a01b0390921692634a5dc3aa92620006bf92339287929060040162000de7565b602060405180830381600087803b158015620006da57600080fd5b505af1158015620006ef573d6000803e3d6000fd5b505050506040513d601f19601f8201168201806040525081019062000715919062000beb565b50505b600180549060006200072a8362000ff1565b909155505060008054600181018255908052815160059091027f290decd9548b62a8d60345a988386fc84ba6bc95484008f6362f93160ef3e56381019182556020808401517f290decd9548b62a8d60345a988386fc84ba6bc95484008f6362f93160ef3e56483015560408401518051859493620007cf937f290decd9548b62a8d60345a988386fc84ba6bc95484008f6362f93160ef3e56590910192019062000a7c565b5060608201516003820180546001600160a01b03199081166001600160a01b03938416179091556080909301516004909201805490931691161790555050565b600054811180159062000823575060018110155b6200082d57600080fd5b60006200083c60018362000f4d565b9050805b600054620008519060019062000f4d565b8110156200099e5760006200086882600162000f32565b815481106200088757634e487b7160e01b600052603260045260246000fd5b906000526020600020906005020160008281548110620008b757634e487b7160e01b600052603260045260246000fd5b906000526020600020906005020160008201548160000155600182015481600101556002820181600201908054620008ef9062000fb4565b620008fc92919062000b0b565b5060038281015490820180546001600160a01b03199081166001600160a01b039384161790915560049384015493909201805490921692169190911790556000805460019190839081106200096157634e487b7160e01b600052603260045260246000fd5b9060005260206000209060050201600001600082825462000983919062000f4d565b90915550819050620009958162000ff1565b91505062000840565b5060018054906000620009b18362000f9a565b91905055506000805480620009d657634e487b7160e01b600052603160045260246000fd5b600082815260208120600560001990930192830201818155600181018290559062000a05600283018262000b8f565b506003810180546001600160a01b031990811690915560049091018054909116905590555050565b6040518060a0016040528060008152602001600081526020016060815260200160006001600160a01b0316815260200160006001600160a01b031681525090565b612297806200103c83390190565b82805462000a8a9062000fb4565b90600052602060002090601f01602090048101928262000aae576000855562000af9565b82601f1062000ac957805160ff191683800117855562000af9565b8280016001018555821562000af9579182015b8281111562000af957825182559160200191906001019062000adc565b5062000b0792915062000bd4565b5090565b82805462000b199062000fb4565b90600052602060002090601f01602090048101928262000b3d576000855562000af9565b82601f1062000b50578054855562000af9565b8280016001018555821562000af957600052602060002091601f016020900482015b8281111562000af957825482559160010191906001019062000b72565b50805462000b9d9062000fb4565b6000825580601f1062000bb1575062000bd1565b601f01602090049060005260206000209081019062000bd1919062000bd4565b50565b5b8082111562000b07576000815560010162000bd5565b60006020828403121562000bfd578081fd5b8151801515811462000c0d578182fd5b9392505050565b60006020828403121562000c26578081fd5b813567ffffffffffffffff81111562000c3d578182fd5b8201601f8101841362000c4e578182fd5b803562000c6562000c5f8262000f07565b62000eda565b81815285602083850101111562000c7a578384fd5b81602084016020830137908101602001929092525092915050565b60006020828403121562000ca7578081fd5b815167ffffffffffffffff81111562000cbe578182fd5b8201601f8101841362000ccf578182fd5b805162000ce062000c5f8262000f07565b81815285602083850101111562000cf5578384fd5b62000d0882602083016020860162000f67565b95945050505050565b60006020828403121562000d23578081fd5b5035919050565b6000806040838503121562000d3d578081fd5b50508035926020909101359150565b6000815180845262000d6681602086016020860162000f67565b601f01601f19169290920160200192915050565b60008151835260208201516020840152604082015160a0604085015262000da560a085018262000d4c565b6060848101516001600160a01b03908116918701919091526080948501511693909401929092525090919050565b6001600160a01b0391909116815260200190565b6001600160a01b038516815260806020820181905260009062000e0d9083018662000d4c565b6040830194909452506060015292915050565b6001600160a01b03929092168252602082015260400190565b6000602080830181845280855180835260408601915060408482028701019250838701855b8281101562000e9057603f1988860301845262000e7d85835162000d7a565b9450928501929085019060010162000e5e565b5092979650505050505050565b60006020825262000c0d602083018462000d7a565b90815260200190565b92835260208301919091526001600160a01b0316604082015260600190565b60405181810167ffffffffffffffff8111828210171562000eff5762000eff62001025565b604052919050565b600067ffffffffffffffff82111562000f245762000f2462001025565b50601f01601f191660200190565b6000821982111562000f485762000f486200100f565b500190565b60008282101562000f625762000f626200100f565b500390565b60005b8381101562000f8457818101518382015260200162000f6a565b8381111562000f94576000848401525b50505050565b60008162000fac5762000fac6200100f565b506000190190565b60028104600182168062000fc957607f821691505b6020821081141562000feb57634e487b7160e01b600052602260045260246000fd5b50919050565b60006000198214156200100857620010086200100f565b5060010190565b634e487b7160e01b600052601160045260246000fd5b634e487b7160e01b600052604160045260246000fdfe60806040523480156200001157600080fd5b50604051620022973803806200229783398101604081905262000034916200016d565b604080518082018252600c81526b14dd1bdc9e515b195b595b9d60a21b602080830191825283518085019094526002845261534560f01b9084015281519192916200008291600091620000c7565b50805162000098906001906020840190620000c7565b5050600b80546001600160a01b0319166001600160a01b039390931692909217909155506000600c55620001da565b828054620000d5906200019d565b90600052602060002090601f016020900481019282620000f9576000855562000144565b82601f106200011457805160ff191683800117855562000144565b8280016001018555821562000144579182015b828111156200014457825182559160200191906001019062000127565b506200015292915062000156565b5090565b5b8082111562000152576000815560010162000157565b6000602082840312156200017f578081fd5b81516001600160a01b038116811462000196578182fd5b9392505050565b600281046001821680620001b257607f821691505b60208210811415620001d457634e487b7160e01b600052602260045260246000fd5b50919050565b6120ad80620001ea6000396000f3fe6080604052600436106101815760003560e01c80636c197ff5116100d1578063a22cb4651161008a578063c87b56dd11610064578063c87b56dd14610422578063d566813114610442578063e985e9c514610457578063f088d5471461047757610181565b8063a22cb465146103cd578063b2bdfa7b146103ed578063b88d4fde1461040257610181565b80636c197ff51461033957806370a0823114610359578063893d20e81461037957806395d89b411461038e57806398d5fdca146103a3578063a035b1fe146103b857610181565b806323aed2281161013e57806342842e0e1161011857806342842e0e146102b95780634a5dc3aa146102d95780634f6ccce7146102f95780636352211e1461031957610181565b806323aed2281461026457806323b872dd146102795780632f745c591461029957610181565b806301ffc9a71461018657806306fdde03146101bc578063081812fc146101de578063095ea7b31461020b57806318160ddd1461022d57806320b08dc21461024f575b600080fd5b34801561019257600080fd5b506101a66101a1366004611864565b61048a565b6040516101b3919061198d565b60405180910390f35b3480156101c857600080fd5b506101d161049d565b6040516101b39190611998565b3480156101ea57600080fd5b506101fe6101f936600461189c565b61052f565b6040516101b3919061190f565b34801561021757600080fd5b5061022b61022636600461183b565b61057b565b005b34801561023957600080fd5b50610242610613565b6040516101b39190611f3a565b34801561025b57600080fd5b506101a6610619565b34801561027057600080fd5b506101a6610629565b34801561028557600080fd5b5061022b6102943660046116de565b610639565b3480156102a557600080fd5b506102426102b436600461183b565b610671565b3480156102c557600080fd5b5061022b6102d43660046116de565b6106c3565b3480156102e557600080fd5b506101a66102f43660046117cc565b6106de565b34801561030557600080fd5b5061024261031436600461189c565b610727565b34801561032557600080fd5b506101fe61033436600461189c565b610782565b34801561034557600080fd5b5061022b61035436600461183b565b6107b7565b34801561036557600080fd5b50610242610374366004611692565b6107ed565b34801561038557600080fd5b506101fe610831565b34801561039a57600080fd5b506101d1610840565b3480156103af57600080fd5b5061024261084f565b3480156103c457600080fd5b50610242610855565b3480156103d957600080fd5b5061022b6103e8366004611792565b61085b565b3480156103f957600080fd5b506101fe610871565b34801561040e57600080fd5b5061022b61041d366004611719565b610880565b34801561042e57600080fd5b506101d161043d36600461189c565b6108bf565b34801561044e57600080fd5b506102426108ca565b34801561046357600080fd5b506101a66104723660046116ac565b6108d0565b61022b610485366004611692565b6108fe565b600061049582610a3e565b90505b919050565b6060600080546104ac90611fb2565b80601f01602080910402602001604051908101604052809291908181526020018280546104d890611fb2565b80156105255780601f106104fa57610100808354040283529160200191610525565b820191906000526020600020905b81548152906001019060200180831161050857829003601f168201915b5050505050905090565b600061053a82610a63565b61055f5760405162461bcd60e51b815260040161055690611d78565b60405180910390fd5b506000908152600460205260409020546001600160a01b031690565b600061058682610782565b9050806001600160a01b0316836001600160a01b031614156105ba5760405162461bcd60e51b815260040161055690611e5c565b806001600160a01b03166105cc610a80565b6001600160a01b031614806105e857506105e881610472610a80565b6106045760405162461bcd60e51b815260040161055690611bb4565b61060e8383610a84565b505050565b60095490565b600b54600160a01b900460ff1690565b600b54600160a01b900460ff1681565b61064a610644610a80565b82610af2565b6106665760405162461bcd60e51b815260040161055690611e9d565b61060e838383610b77565b600061067c836107ed565b821061069a5760405162461bcd60e51b8152600401610556906119ab565b506001600160a01b03919091166000908152600760209081526040808320938352929052205490565b61060e83838360405180602001604052806000815250610880565b600b5460009085906001600160a01b038083169116146106fd57600080fd5b600c839055600d8490556107113085610ca4565b61071b8486610d83565b50600195945050505050565b6000610731610613565b821061074f5760405162461bcd60e51b815260040161055690611eee565b6009828154811061077057634e487b7160e01b600052603260045260246000fd5b90600052602060002001549050919050565b6000818152600260205260408120546001600160a01b0316806104955760405162461bcd60e51b815260040161055690611c5b565b600b5482906001600160a01b038083169116146107d357600080fd5b50600c5550600b805460ff60a01b1916600160a01b179055565b60006001600160a01b0382166108155760405162461bcd60e51b815260040161055690611c11565b506001600160a01b031660009081526003602052604090205490565b600b546001600160a01b031690565b6060600180546104ac90611fb2565b600c5490565b600c5481565b61086d610866610a80565b8383610dc7565b5050565b600b546001600160a01b031681565b61089161088b610a80565b83610af2565b6108ad5760405162461bcd60e51b815260040161055690611e9d565b6108b984848484610e6a565b50505050565b606061049582610e9d565b600d5481565b6001600160a01b03918216600090815260056020908152604080832093909416825291909152205460ff1690565b7fcc798afac0ca558aa6acf371eff1cbf6769ab248f4fdf4359ad7a28b5dae342b81600c54600d54610931600d546108bf565b6040516109419493929190611960565b60405180910390a1600b54600160a01b900460ff166109725760405162461bcd60e51b815260040161055690611afa565b600c543410156109945760405162461bcd60e51b815260040161055690611b7d565b600b546040516001600160a01b03909116903480156108fc02916000818181858888f193505050501580156109cd573d6000803e3d6000fd5b50600b80546001600160a01b0319166001600160a01b0383161760ff60a01b19169055600c54600d547f6d5507734d4d9e8592119c9e6b3e2bf7eab8bd6252f36e2fa05a5588442479da918391610a23816108bf565b604051610a339493929190611960565b60405180910390a150565b60006001600160e01b0319821663780e9d6360e01b1480610495575061049582610fb6565b6000908152600260205260409020546001600160a01b0316151590565b3390565b600081815260046020526040902080546001600160a01b0319166001600160a01b0384169081179091558190610ab982610782565b6001600160a01b03167f8c5be1e5ebec7d5bd14f71427d1e84f3dd0314c0f7b2291e5b200ac8c7c3b92560405160405180910390a45050565b6000610afd82610a63565b610b195760405162461bcd60e51b815260040161055690611b31565b6000610b2483610782565b9050806001600160a01b0316846001600160a01b03161480610b5f5750836001600160a01b0316610b548461052f565b6001600160a01b0316145b80610b6f5750610b6f81856108d0565b949350505050565b826001600160a01b0316610b8a82610782565b6001600160a01b031614610bb05760405162461bcd60e51b815260040161055690611dc4565b6001600160a01b038216610bd65760405162461bcd60e51b815260040161055690611a7f565b610be1838383610ff6565b610bec600082610a84565b6001600160a01b0383166000908152600360205260408120805460019290610c15908490611f6f565b90915550506001600160a01b0382166000908152600360205260408120805460019290610c43908490611f43565b909155505060008181526002602052604080822080546001600160a01b0319166001600160a01b0386811691821790925591518493918716917fddf252ad1be2c89b69c2b068fc378daa952ba7f163c4a11628f55a4df523b3ef91a4505050565b6001600160a01b038216610cca5760405162461bcd60e51b815260040161055690611cf2565b610cd381610a63565b15610cf05760405162461bcd60e51b815260040161055690611a48565b610cfc60008383610ff6565b6001600160a01b0382166000908152600360205260408120805460019290610d25908490611f43565b909155505060008181526002602052604080822080546001600160a01b0319166001600160a01b03861690811790915590518392907fddf252ad1be2c89b69c2b068fc378daa952ba7f163c4a11628f55a4df523b3ef908290a45050565b610d8c82610a63565b610da85760405162461bcd60e51b815260040161055690611ca4565b6000828152600660209081526040909120825161060e92840190611572565b816001600160a01b0316836001600160a01b03161415610df95760405162461bcd60e51b815260040161055690611ac3565b6001600160a01b0383811660008181526005602090815260408083209487168084529490915290819020805460ff1916851515179055517f17307eab39ab6107e8899845ad3d59bd9653f200f220920489ca2b5937696c3190610e5d90859061198d565b60405180910390a3505050565b610e75848484610b77565b610e8184848484611001565b6108b95760405162461bcd60e51b8152600401610556906119f6565b6060610ea882610a63565b610ec45760405162461bcd60e51b815260040161055690611d27565b60008281526006602052604081208054610edd90611fb2565b80601f0160208091040260200160405190810160405280929190818152602001828054610f0990611fb2565b8015610f565780601f10610f2b57610100808354040283529160200191610f56565b820191906000526020600020905b815481529060010190602001808311610f3957829003601f168201915b505050505090506000610f6761111c565b9050805160001415610f7b57509050610498565b815115610fad578082604051602001610f959291906118e0565b60405160208183030381529060405292505050610498565b610b6f8461112e565b60006001600160e01b031982166380ac58cd60e01b1480610fe757506001600160e01b03198216635b5e139f60e01b145b806104955750610495826111b1565b61060e8383836111ca565b6000611015846001600160a01b0316611253565b1561111157836001600160a01b031663150b7a02611031610a80565b8786866040518563ffffffff1660e01b81526004016110539493929190611923565b602060405180830381600087803b15801561106d57600080fd5b505af192505050801561109d575060408051601f3d908101601f1916820190925261109a91810190611880565b60015b6110f7573d8080156110cb576040519150601f19603f3d011682016040523d82523d6000602084013e6110d0565b606091505b5080516110ef5760405162461bcd60e51b8152600401610556906119f6565b805181602001fd5b6001600160e01b031916630a85bd0160e11b149050610b6f565b506001949350505050565b60408051602081019091526000815290565b606061113982610a63565b6111555760405162461bcd60e51b815260040161055690611e0d565b600061115f61111c565b9050600081511161117f57604051806020016040528060008152506111aa565b8061118984611259565b60405160200161119a9291906118e0565b6040516020818303038152906040525b9392505050565b6001600160e01b031981166301ffc9a760e01b14919050565b6111d583838361060e565b6001600160a01b0383166111f1576111ec81611374565b611214565b816001600160a01b0316836001600160a01b0316146112145761121483826113b8565b6001600160a01b0382166112305761122b81611455565b61060e565b826001600160a01b0316826001600160a01b03161461060e5761060e828261152e565b3b151590565b60608161127e57506040805180820190915260018152600360fc1b6020820152610498565b8160005b81156112a8578061129281611fed565b91506112a19050600a83611f5b565b9150611282565b60008167ffffffffffffffff8111156112d157634e487b7160e01b600052604160045260246000fd5b6040519080825280601f01601f1916602001820160405280156112fb576020820181803683370190505b5090505b8415610b6f57611310600183611f6f565b915061131d600a86612008565b611328906030611f43565b60f81b81838151811061134b57634e487b7160e01b600052603260045260246000fd5b60200101906001600160f81b031916908160001a90535061136d600a86611f5b565b94506112ff565b600980546000838152600a60205260408120829055600182018355919091527f6e1540171b6c0c960b71a7020d9f60077f6af931a8bbf590da0223dacf75c7af0155565b600060016113c5846107ed565b6113cf9190611f6f565b600083815260086020526040902054909150808214611422576001600160a01b03841660009081526007602090815260408083208584528252808320548484528184208190558352600890915290208190555b5060009182526008602090815260408084208490556001600160a01b039094168352600781528383209183525290812055565b60095460009061146790600190611f6f565b6000838152600a60205260408120546009805493945090928490811061149d57634e487b7160e01b600052603260045260246000fd5b9060005260206000200154905080600983815481106114cc57634e487b7160e01b600052603260045260246000fd5b6000918252602080832090910192909255828152600a9091526040808220849055858252812055600980548061151257634e487b7160e01b600052603160045260246000fd5b6001900381819060005260206000200160009055905550505050565b6000611539836107ed565b6001600160a01b039093166000908152600760209081526040808320868452825280832085905593825260089052919091209190915550565b82805461157e90611fb2565b90600052602060002090601f0160209004810192826115a057600085556115e6565b82601f106115b957805160ff19168380011785556115e6565b828001600101855582156115e6579182015b828111156115e65782518255916020019190600101906115cb565b506115f29291506115f6565b5090565b5b808211156115f257600081556001016115f7565b600067ffffffffffffffff8084111561162657611626612048565b604051601f8501601f19168101602001828111828210171561164a5761164a612048565b60405284815291508183850186101561166257600080fd5b8484602083013760006020868301015250509392505050565b80356001600160a01b038116811461049857600080fd5b6000602082840312156116a3578081fd5b6111aa8261167b565b600080604083850312156116be578081fd5b6116c78361167b565b91506116d56020840161167b565b90509250929050565b6000806000606084860312156116f2578081fd5b6116fb8461167b565b92506117096020850161167b565b9150604084013590509250925092565b6000806000806080858703121561172e578081fd5b6117378561167b565b93506117456020860161167b565b925060408501359150606085013567ffffffffffffffff811115611767578182fd5b8501601f81018713611777578182fd5b6117868782356020840161160b565b91505092959194509250565b600080604083850312156117a4578182fd5b6117ad8361167b565b9150602083013580151581146117c1578182fd5b809150509250929050565b600080600080608085870312156117e1578384fd5b6117ea8561167b565b9350602085013567ffffffffffffffff811115611805578384fd5b8501601f81018713611815578384fd5b6118248782356020840161160b565b949794965050505060408301359260600135919050565b6000806040838503121561184d578182fd5b6118568361167b565b946020939093013593505050565b600060208284031215611875578081fd5b81356111aa8161205e565b600060208284031215611891578081fd5b81516111aa8161205e565b6000602082840312156118ad578081fd5b5035919050565b600081518084526118cc816020860160208601611f86565b601f01601f19169290920160200192915050565b600083516118f2818460208801611f86565b835190830190611906818360208801611f86565b01949350505050565b6001600160a01b0391909116815260200190565b6001600160a01b0385811682528416602082015260408101839052608060608201819052600090611956908301846118b4565b9695505050505050565b600060018060a01b03861682528460208301528360408301526080606083015261195660808301846118b4565b901515815260200190565b6000602082526111aa60208301846118b4565b6020808252602b908201527f455243373231456e756d657261626c653a206f776e657220696e646578206f7560408201526a74206f6620626f756e647360a81b606082015260800190565b60208082526032908201527f4552433732313a207472616e7366657220746f206e6f6e20455243373231526560408201527131b2b4bb32b91034b6b83632b6b2b73a32b960711b606082015260800190565b6020808252601c908201527f4552433732313a20746f6b656e20616c7265616479206d696e74656400000000604082015260600190565b60208082526024908201527f4552433732313a207472616e7366657220746f20746865207a65726f206164646040820152637265737360e01b606082015260800190565b60208082526019908201527f4552433732313a20617070726f766520746f2063616c6c657200000000000000604082015260600190565b6020808252601e908201527f4572726f722c20546f6b656e206973206e6f74206265696e6720736f6c640000604082015260600190565b6020808252602c908201527f4552433732313a206f70657261746f7220717565727920666f72206e6f6e657860408201526b34b9ba32b73a103a37b5b2b760a11b606082015260800190565b60208082526017908201527f4572726f722c20546f6b656e20636f737473206d6f7265000000000000000000604082015260600190565b60208082526038908201527f4552433732313a20617070726f76652063616c6c6572206973206e6f74206f7760408201527f6e6572206e6f7220617070726f76656420666f7220616c6c0000000000000000606082015260800190565b6020808252602a908201527f4552433732313a2062616c616e636520717565727920666f7220746865207a65604082015269726f206164647265737360b01b606082015260800190565b60208082526029908201527f4552433732313a206f776e657220717565727920666f72206e6f6e657869737460408201526832b73a103a37b5b2b760b91b606082015260800190565b6020808252602e908201527f45524337323155524953746f726167653a2055524920736574206f66206e6f6e60408201526d32bc34b9ba32b73a103a37b5b2b760911b606082015260800190565b6020808252818101527f4552433732313a206d696e7420746f20746865207a65726f2061646472657373604082015260600190565b60208082526031908201527f45524337323155524953746f726167653a2055524920717565727920666f72206040820152703737b732bc34b9ba32b73a103a37b5b2b760791b606082015260800190565b6020808252602c908201527f4552433732313a20617070726f76656420717565727920666f72206e6f6e657860408201526b34b9ba32b73a103a37b5b2b760a11b606082015260800190565b60208082526029908201527f4552433732313a207472616e73666572206f6620746f6b656e2074686174206960408201526839903737ba1037bbb760b91b606082015260800190565b6020808252602f908201527f4552433732314d657461646174613a2055524920717565727920666f72206e6f60408201526e3732bc34b9ba32b73a103a37b5b2b760891b606082015260800190565b60208082526021908201527f4552433732313a20617070726f76616c20746f2063757272656e74206f776e656040820152603960f91b606082015260800190565b60208082526031908201527f4552433732313a207472616e736665722063616c6c6572206973206e6f74206f6040820152701ddb995c881b9bdc88185c1c1c9bdd9959607a1b606082015260800190565b6020808252602c908201527f455243373231456e756d657261626c653a20676c6f62616c20696e646578206f60408201526b7574206f6620626f756e647360a01b606082015260800190565b90815260200190565b60008219821115611f5657611f5661201c565b500190565b600082611f6a57611f6a612032565b500490565b600082821015611f8157611f8161201c565b500390565b60005b83811015611fa1578181015183820152602001611f89565b838111156108b95750506000910152565b600281046001821680611fc657607f821691505b60208210811415611fe757634e487b7160e01b600052602260045260246000fd5b50919050565b60006000198214156120015761200161201c565b5060010190565b60008261201757612017612032565b500690565b634e487b7160e01b600052601160045260246000fd5b634e487b7160e01b600052601260045260246000fd5b634e487b7160e01b600052604160045260246000fd5b6001600160e01b03198116811461207457600080fd5b5056fea2646970667358221220c8358eb12c5ee58ce25314e0704a9c2991c4a3b96e285c6b999f664566e520b064736f6c63430008000033a264697066735822122041feb4f78116fa6d880d5d79c8deb433627dcc273c4392fbeaa38356ff71a10c64736f6c63430008000033608060405234801561001057600080fd5b506102c0806100206000396000f3fe608060405234801561001057600080fd5b506004361061002b5760003560e01c8063f76f950e14610030575b600080fd5b61004361003e366004610181565b610059565b6040516100509190610199565b60405180910390f35b60608161007e57506040805180820190915260018152600360fc1b602082015261017c565b8160005b81156100a857806100928161022f565b91506100a19050600a83610204565b9150610082565b60008167ffffffffffffffff8111156100d157634e487b7160e01b600052604160045260246000fd5b6040519080825280601f01601f1916602001820160405280156100fb576020820181803683370190505b508593509050815b831561017657610114600a8561024a565b61011f9060306101ec565b60f81b8261012c83610218565b9250828151811061014d57634e487b7160e01b600052603260045260246000fd5b60200101906001600160f81b031916908160001a90535061016f600a85610204565b9350610103565b50925050505b919050565b600060208284031215610192578081fd5b5035919050565b6000602080835283518082850152825b818110156101c5578581018301518582016040015282016101a9565b818111156101d65783604083870101525b50601f01601f1916929092016040019392505050565b600082198211156101ff576101ff61025e565b500190565b60008261021357610213610274565b500490565b6000816102275761022761025e565b506000190190565b60006000198214156102435761024361025e565b5060010190565b60008261025957610259610274565b500690565b634e487b7160e01b600052601160045260246000fd5b634e487b7160e01b600052601260045260246000fdfea264697066735822122082d3c6e960d3220e7fa541255f007e34b90c7e814c1aac51e220ef4f3a070ff364736f6c6343000800003360806040523480156200001157600080fd5b50604051620022973803806200229783398101604081905262000034916200016d565b604080518082018252600c81526b14dd1bdc9e515b195b595b9d60a21b602080830191825283518085019094526002845261534560f01b9084015281519192916200008291600091620000c7565b50805162000098906001906020840190620000c7565b5050600b80546001600160a01b0319166001600160a01b039390931692909217909155506000600c55620001da565b828054620000d5906200019d565b90600052602060002090601f016020900481019282620000f9576000855562000144565b82601f106200011457805160ff191683800117855562000144565b8280016001018555821562000144579182015b828111156200014457825182559160200191906001019062000127565b506200015292915062000156565b5090565b5b8082111562000152576000815560010162000157565b6000602082840312156200017f578081fd5b81516001600160a01b038116811462000196578182fd5b9392505050565b600281046001821680620001b257607f821691505b60208210811415620001d457634e487b7160e01b600052602260045260246000fd5b50919050565b6120ad80620001ea6000396000f3fe6080604052600436106101815760003560e01c80636c197ff5116100d1578063a22cb4651161008a578063c87b56dd11610064578063c87b56dd14610422578063d566813114610442578063e985e9c514610457578063f088d5471461047757610181565b8063a22cb465146103cd578063b2bdfa7b146103ed578063b88d4fde1461040257610181565b80636c197ff51461033957806370a0823114610359578063893d20e81461037957806395d89b411461038e57806398d5fdca146103a3578063a035b1fe146103b857610181565b806323aed2281161013e57806342842e0e1161011857806342842e0e146102b95780634a5dc3aa146102d95780634f6ccce7146102f95780636352211e1461031957610181565b806323aed2281461026457806323b872dd146102795780632f745c591461029957610181565b806301ffc9a71461018657806306fdde03146101bc578063081812fc146101de578063095ea7b31461020b57806318160ddd1461022d57806320b08dc21461024f575b600080fd5b34801561019257600080fd5b506101a66101a1366004611864565b61048a565b6040516101b3919061198d565b60405180910390f35b3480156101c857600080fd5b506101d161049d565b6040516101b39190611998565b3480156101ea57600080fd5b506101fe6101f936600461189c565b61052f565b6040516101b3919061190f565b34801561021757600080fd5b5061022b61022636600461183b565b61057b565b005b34801561023957600080fd5b50610242610613565b6040516101b39190611f3a565b34801561025b57600080fd5b506101a6610619565b34801561027057600080fd5b506101a6610629565b34801561028557600080fd5b5061022b6102943660046116de565b610639565b3480156102a557600080fd5b506102426102b436600461183b565b610671565b3480156102c557600080fd5b5061022b6102d43660046116de565b6106c3565b3480156102e557600080fd5b506101a66102f43660046117cc565b6106de565b34801561030557600080fd5b5061024261031436600461189c565b610727565b34801561032557600080fd5b506101fe61033436600461189c565b610782565b34801561034557600080fd5b5061022b61035436600461183b565b6107b7565b34801561036557600080fd5b50610242610374366004611692565b6107ed565b34801561038557600080fd5b506101fe610831565b34801561039a57600080fd5b506101d1610840565b3480156103af57600080fd5b5061024261084f565b3480156103c457600080fd5b50610242610855565b3480156103d957600080fd5b5061022b6103e8366004611792565b61085b565b3480156103f957600080fd5b506101fe610871565b34801561040e57600080fd5b5061022b61041d366004611719565b610880565b34801561042e57600080fd5b506101d161043d36600461189c565b6108bf565b34801561044e57600080fd5b506102426108ca565b34801561046357600080fd5b506101a66104723660046116ac565b6108d0565b61022b610485366004611692565b6108fe565b600061049582610a3e565b90505b919050565b6060600080546104ac90611fb2565b80601f01602080910402602001604051908101604052809291908181526020018280546104d890611fb2565b80156105255780601f106104fa57610100808354040283529160200191610525565b820191906000526020600020905b81548152906001019060200180831161050857829003601f168201915b5050505050905090565b600061053a82610a63565b61055f5760405162461bcd60e51b815260040161055690611d78565b60405180910390fd5b506000908152600460205260409020546001600160a01b031690565b600061058682610782565b9050806001600160a01b0316836001600160a01b031614156105ba5760405162461bcd60e51b815260040161055690611e5c565b806001600160a01b03166105cc610a80565b6001600160a01b031614806105e857506105e881610472610a80565b6106045760405162461bcd60e51b815260040161055690611bb4565b61060e8383610a84565b505050565b60095490565b600b54600160a01b900460ff1690565b600b54600160a01b900460ff1681565b61064a610644610a80565b82610af2565b6106665760405162461bcd60e51b815260040161055690611e9d565b61060e838383610b77565b600061067c836107ed565b821061069a5760405162461bcd60e51b8152600401610556906119ab565b506001600160a01b03919091166000908152600760209081526040808320938352929052205490565b61060e83838360405180602001604052806000815250610880565b600b5460009085906001600160a01b038083169116146106fd57600080fd5b600c839055600d8490556107113085610ca4565b61071b8486610d83565b50600195945050505050565b6000610731610613565b821061074f5760405162461bcd60e51b815260040161055690611eee565b6009828154811061077057634e487b7160e01b600052603260045260246000fd5b90600052602060002001549050919050565b6000818152600260205260408120546001600160a01b0316806104955760405162461bcd60e51b815260040161055690611c5b565b600b5482906001600160a01b038083169116146107d357600080fd5b50600c5550600b805460ff60a01b1916600160a01b179055565b60006001600160a01b0382166108155760405162461bcd60e51b815260040161055690611c11565b506001600160a01b031660009081526003602052604090205490565b600b546001600160a01b031690565b6060600180546104ac90611fb2565b600c5490565b600c5481565b61086d610866610a80565b8383610dc7565b5050565b600b546001600160a01b031681565b61089161088b610a80565b83610af2565b6108ad5760405162461bcd60e51b815260040161055690611e9d565b6108b984848484610e6a565b50505050565b606061049582610e9d565b600d5481565b6001600160a01b03918216600090815260056020908152604080832093909416825291909152205460ff1690565b7fcc798afac0ca558aa6acf371eff1cbf6769ab248f4fdf4359ad7a28b5dae342b81600c54600d54610931600d546108bf565b6040516109419493929190611960565b60405180910390a1600b54600160a01b900460ff166109725760405162461bcd60e51b815260040161055690611afa565b600c543410156109945760405162461bcd60e51b815260040161055690611b7d565b600b546040516001600160a01b03909116903480156108fc02916000818181858888f193505050501580156109cd573d6000803e3d6000fd5b50600b80546001600160a01b0319166001600160a01b0383161760ff60a01b19169055600c54600d547f6d5507734d4d9e8592119c9e6b3e2bf7eab8bd6252f36e2fa05a5588442479da918391610a23816108bf565b604051610a339493929190611960565b60405180910390a150565b60006001600160e01b0319821663780e9d6360e01b1480610495575061049582610fb6565b6000908152600260205260409020546001600160a01b0316151590565b3390565b600081815260046020526040902080546001600160a01b0319166001600160a01b0384169081179091558190610ab982610782565b6001600160a01b03167f8c5be1e5ebec7d5bd14f71427d1e84f3dd0314c0f7b2291e5b200ac8c7c3b92560405160405180910390a45050565b6000610afd82610a63565b610b195760405162461bcd60e51b815260040161055690611b31565b6000610b2483610782565b9050806001600160a01b0316846001600160a01b03161480610b5f5750836001600160a01b0316610b548461052f565b6001600160a01b0316145b80610b6f5750610b6f81856108d0565b949350505050565b826001600160a01b0316610b8a82610782565b6001600160a01b031614610bb05760405162461bcd60e51b815260040161055690611dc4565b6001600160a01b038216610bd65760405162461bcd60e51b815260040161055690611a7f565b610be1838383610ff6565b610bec600082610a84565b6001600160a01b0383166000908152600360205260408120805460019290610c15908490611f6f565b90915550506001600160a01b0382166000908152600360205260408120805460019290610c43908490611f43565b909155505060008181526002602052604080822080546001600160a01b0319166001600160a01b0386811691821790925591518493918716917fddf252ad1be2c89b69c2b068fc378daa952ba7f163c4a11628f55a4df523b3ef91a4505050565b6001600160a01b038216610cca5760405162461bcd60e51b815260040161055690611cf2565b610cd381610a63565b15610cf05760405162461bcd60e51b815260040161055690611a48565b610cfc60008383610ff6565b6001600160a01b0382166000908152600360205260408120805460019290610d25908490611f43565b909155505060008181526002602052604080822080546001600160a01b0319166001600160a01b03861690811790915590518392907fddf252ad1be2c89b69c2b068fc378daa952ba7f163c4a11628f55a4df523b3ef908290a45050565b610d8c82610a63565b610da85760405162461bcd60e51b815260040161055690611ca4565b6000828152600660209081526040909120825161060e92840190611572565b816001600160a01b0316836001600160a01b03161415610df95760405162461bcd60e51b815260040161055690611ac3565b6001600160a01b0383811660008181526005602090815260408083209487168084529490915290819020805460ff1916851515179055517f17307eab39ab6107e8899845ad3d59bd9653f200f220920489ca2b5937696c3190610e5d90859061198d565b60405180910390a3505050565b610e75848484610b77565b610e8184848484611001565b6108b95760405162461bcd60e51b8152600401610556906119f6565b6060610ea882610a63565b610ec45760405162461bcd60e51b815260040161055690611d27565b60008281526006602052604081208054610edd90611fb2565b80601f0160208091040260200160405190810160405280929190818152602001828054610f0990611fb2565b8015610f565780601f10610f2b57610100808354040283529160200191610f56565b820191906000526020600020905b815481529060010190602001808311610f3957829003601f168201915b505050505090506000610f6761111c565b9050805160001415610f7b57509050610498565b815115610fad578082604051602001610f959291906118e0565b60405160208183030381529060405292505050610498565b610b6f8461112e565b60006001600160e01b031982166380ac58cd60e01b1480610fe757506001600160e01b03198216635b5e139f60e01b145b806104955750610495826111b1565b61060e8383836111ca565b6000611015846001600160a01b0316611253565b1561111157836001600160a01b031663150b7a02611031610a80565b8786866040518563ffffffff1660e01b81526004016110539493929190611923565b602060405180830381600087803b15801561106d57600080fd5b505af192505050801561109d575060408051601f3d908101601f1916820190925261109a91810190611880565b60015b6110f7573d8080156110cb576040519150601f19603f3d011682016040523d82523d6000602084013e6110d0565b606091505b5080516110ef5760405162461bcd60e51b8152600401610556906119f6565b805181602001fd5b6001600160e01b031916630a85bd0160e11b149050610b6f565b506001949350505050565b60408051602081019091526000815290565b606061113982610a63565b6111555760405162461bcd60e51b815260040161055690611e0d565b600061115f61111c565b9050600081511161117f57604051806020016040528060008152506111aa565b8061118984611259565b60405160200161119a9291906118e0565b6040516020818303038152906040525b9392505050565b6001600160e01b031981166301ffc9a760e01b14919050565b6111d583838361060e565b6001600160a01b0383166111f1576111ec81611374565b611214565b816001600160a01b0316836001600160a01b0316146112145761121483826113b8565b6001600160a01b0382166112305761122b81611455565b61060e565b826001600160a01b0316826001600160a01b03161461060e5761060e828261152e565b3b151590565b60608161127e57506040805180820190915260018152600360fc1b6020820152610498565b8160005b81156112a8578061129281611fed565b91506112a19050600a83611f5b565b9150611282565b60008167ffffffffffffffff8111156112d157634e487b7160e01b600052604160045260246000fd5b6040519080825280601f01601f1916602001820160405280156112fb576020820181803683370190505b5090505b8415610b6f57611310600183611f6f565b915061131d600a86612008565b611328906030611f43565b60f81b81838151811061134b57634e487b7160e01b600052603260045260246000fd5b60200101906001600160f81b031916908160001a90535061136d600a86611f5b565b94506112ff565b600980546000838152600a60205260408120829055600182018355919091527f6e1540171b6c0c960b71a7020d9f60077f6af931a8bbf590da0223dacf75c7af0155565b600060016113c5846107ed565b6113cf9190611f6f565b600083815260086020526040902054909150808214611422576001600160a01b03841660009081526007602090815260408083208584528252808320548484528184208190558352600890915290208190555b5060009182526008602090815260408084208490556001600160a01b039094168352600781528383209183525290812055565b60095460009061146790600190611f6f565b6000838152600a60205260408120546009805493945090928490811061149d57634e487b7160e01b600052603260045260246000fd5b9060005260206000200154905080600983815481106114cc57634e487b7160e01b600052603260045260246000fd5b6000918252602080832090910192909255828152600a9091526040808220849055858252812055600980548061151257634e487b7160e01b600052603160045260246000fd5b6001900381819060005260206000200160009055905550505050565b6000611539836107ed565b6001600160a01b039093166000908152600760209081526040808320868452825280832085905593825260089052919091209190915550565b82805461157e90611fb2565b90600052602060002090601f0160209004810192826115a057600085556115e6565b82601f106115b957805160ff19168380011785556115e6565b828001600101855582156115e6579182015b828111156115e65782518255916020019190600101906115cb565b506115f29291506115f6565b5090565b5b808211156115f257600081556001016115f7565b600067ffffffffffffffff8084111561162657611626612048565b604051601f8501601f19168101602001828111828210171561164a5761164a612048565b60405284815291508183850186101561166257600080fd5b8484602083013760006020868301015250509392505050565b80356001600160a01b038116811461049857600080fd5b6000602082840312156116a3578081fd5b6111aa8261167b565b600080604083850312156116be578081fd5b6116c78361167b565b91506116d56020840161167b565b90509250929050565b6000806000606084860312156116f2578081fd5b6116fb8461167b565b92506117096020850161167b565b9150604084013590509250925092565b6000806000806080858703121561172e578081fd5b6117378561167b565b93506117456020860161167b565b925060408501359150606085013567ffffffffffffffff811115611767578182fd5b8501601f81018713611777578182fd5b6117868782356020840161160b565b91505092959194509250565b600080604083850312156117a4578182fd5b6117ad8361167b565b9150602083013580151581146117c1578182fd5b809150509250929050565b600080600080608085870312156117e1578384fd5b6117ea8561167b565b9350602085013567ffffffffffffffff811115611805578384fd5b8501601f81018713611815578384fd5b6118248782356020840161160b565b949794965050505060408301359260600135919050565b6000806040838503121561184d578182fd5b6118568361167b565b946020939093013593505050565b600060208284031215611875578081fd5b81356111aa8161205e565b600060208284031215611891578081fd5b81516111aa8161205e565b6000602082840312156118ad578081fd5b5035919050565b600081518084526118cc816020860160208601611f86565b601f01601f19169290920160200192915050565b600083516118f2818460208801611f86565b835190830190611906818360208801611f86565b01949350505050565b6001600160a01b0391909116815260200190565b6001600160a01b0385811682528416602082015260408101839052608060608201819052600090611956908301846118b4565b9695505050505050565b600060018060a01b03861682528460208301528360408301526080606083015261195660808301846118b4565b901515815260200190565b6000602082526111aa60208301846118b4565b6020808252602b908201527f455243373231456e756d657261626c653a206f776e657220696e646578206f7560408201526a74206f6620626f756e647360a81b606082015260800190565b60208082526032908201527f4552433732313a207472616e7366657220746f206e6f6e20455243373231526560408201527131b2b4bb32b91034b6b83632b6b2b73a32b960711b606082015260800190565b6020808252601c908201527f4552433732313a20746f6b656e20616c7265616479206d696e74656400000000604082015260600190565b60208082526024908201527f4552433732313a207472616e7366657220746f20746865207a65726f206164646040820152637265737360e01b606082015260800190565b60208082526019908201527f4552433732313a20617070726f766520746f2063616c6c657200000000000000604082015260600190565b6020808252601e908201527f4572726f722c20546f6b656e206973206e6f74206265696e6720736f6c640000604082015260600190565b6020808252602c908201527f4552433732313a206f70657261746f7220717565727920666f72206e6f6e657860408201526b34b9ba32b73a103a37b5b2b760a11b606082015260800190565b60208082526017908201527f4572726f722c20546f6b656e20636f737473206d6f7265000000000000000000604082015260600190565b60208082526038908201527f4552433732313a20617070726f76652063616c6c6572206973206e6f74206f7760408201527f6e6572206e6f7220617070726f76656420666f7220616c6c0000000000000000606082015260800190565b6020808252602a908201527f4552433732313a2062616c616e636520717565727920666f7220746865207a65604082015269726f206164647265737360b01b606082015260800190565b60208082526029908201527f4552433732313a206f776e657220717565727920666f72206e6f6e657869737460408201526832b73a103a37b5b2b760b91b606082015260800190565b6020808252602e908201527f45524337323155524953746f726167653a2055524920736574206f66206e6f6e60408201526d32bc34b9ba32b73a103a37b5b2b760911b606082015260800190565b6020808252818101527f4552433732313a206d696e7420746f20746865207a65726f2061646472657373604082015260600190565b60208082526031908201527f45524337323155524953746f726167653a2055524920717565727920666f72206040820152703737b732bc34b9ba32b73a103a37b5b2b760791b606082015260800190565b6020808252602c908201527f4552433732313a20617070726f76656420717565727920666f72206e6f6e657860408201526b34b9ba32b73a103a37b5b2b760a11b606082015260800190565b60208082526029908201527f4552433732313a207472616e73666572206f6620746f6b656e2074686174206960408201526839903737ba1037bbb760b91b606082015260800190565b6020808252602f908201527f4552433732314d657461646174613a2055524920717565727920666f72206e6f60408201526e3732bc34b9ba32b73a103a37b5b2b760891b606082015260800190565b60208082526021908201527f4552433732313a20617070726f76616c20746f2063757272656e74206f776e656040820152603960f91b606082015260800190565b60208082526031908201527f4552433732313a207472616e736665722063616c6c6572206973206e6f74206f6040820152701ddb995c881b9bdc88185c1c1c9bdd9959607a1b606082015260800190565b6020808252602c908201527f455243373231456e756d657261626c653a20676c6f62616c20696e646578206f60408201526b7574206f6620626f756e647360a01b606082015260800190565b90815260200190565b60008219821115611f5657611f5661201c565b500190565b600082611f6a57611f6a612032565b500490565b600082821015611f8157611f8161201c565b500390565b60005b83811015611fa1578181015183820152602001611f89565b838111156108b95750506000910152565b600281046001821680611fc657607f821691505b60208210811415611fe757634e487b7160e01b600052602260045260246000fd5b50919050565b60006000198214156120015761200161201c565b5060010190565b60008261201757612017612032565b500690565b634e487b7160e01b600052601160045260246000fd5b634e487b7160e01b600052601260045260246000fd5b634e487b7160e01b600052604160045260246000fd5b6001600160e01b03198116811461207457600080fd5b5056fea2646970667358221220c8358eb12c5ee58ce25314e0704a9c2991c4a3b96e285c6b999f664566e520b064736f6c63430008000033",
  "immutableReferences": {},
  "source": "// SPDX-License-Identifier: MIT\npragma solidity ^0.8.0;\n\nimport \"./Nft.sol\";\nimport \"./Helper.sol\";\n \n/*\n * @title Story Smart Contract\n * @notice Primary smart contract for running Storyline operations.\n */\ncontract Story {\n  /*\n   * StoryElement Struct.\n   * A single piece of Storyline content, published by a writer.\n   * @dev Any metadata about story content should go here.\n   */\n  struct StoryElement {\n    uint256 id; \n    uint256 dateTime;\n    string content;\n    address author;\n    NFT nft;\n  }\n\n  /*\n   * StoryElement Master List.\n   * List of StoryElement structs, in published order.\n   * StoryLine should traverse this to build the latest story.\n   * @dev Newly published StoryElements should go here.\n   */\n  StoryElement[] story;\n\n  /*\n   * Next available StoryElement id.\n   * This should realistically never reach the maximum representation.\n   */\n  uint256 nextElementId;\n  uint256 MINTING_PRICE = 50 wei;\n  uint256 WRITING_FEE = 0 wei;\n  Helper helper;\n\n  /*\n   * Story contract constructor.\n   * @dev This should initialize the default story to \"Once upon a time \"\n   */\n  constructor() {\n    helper = new Helper();\n    nextElementId = 1;\n    createStoryElement(\"Once upon a time \");\n  }\n\n  /*\n   * Initializes a new StoryElement struct and adds it to the story.\n   * This should populate the fresh struct with the given values.\n   * @param _content the text associated with the StoryElement\n   * @param _dateTime the date and time, in Moment.JS format, of publication\n   * @return nothing\n   */\n  function createStoryElement(string memory _content) public payable {\n    // Check if value is valid (not sure how to do within truffle at the moment)\n    // require(msg.value == MINTING_PRICE + WRITING_FEE);\n    // Get a new zero-initialized StoryElement struct, and populate it...\n    StoryElement memory newElem;\n\n    newElem.id = nextElementId;\n    newElem.content = _content;\n    newElem.dateTime = block.timestamp;\n    newElem.author = msg.sender;\n\n    if (nextElementId > 1) {\n      newElem.nft = new NFT(msg.sender);\n      string memory key = helper.uint2str(newElem.id);\n      newElem.nft.mint(msg.sender, key, newElem.id, MINTING_PRICE);\n    }\n    nextElementId++;\n    story.push(newElem);\n  }\n\n  /*\n   * getFullStory serves as a getter for the story\n   */\n  function getFullStory() public view returns (StoryElement[] memory) {\n    return story;\n  }\n\n  /*\n   * getFullStory serves as a getter for an element within the story\n   * If story with _id is not found, create error of type Panic(uint256)\n   */\n  function getStoryElement(uint256 _id) public view returns (StoryElement memory) {\n    require(_id <= story.length && _id >= 1);\n    return story[_id-1];\n  }\n\n  /*\n   * removeFullStory is a function for development as a remove for an element within the story\n   * If story with _id is not found, create error of type Panic(uint256)\n   */\n  function removeStoryElement(uint256 _id) public {\n    require(_id <= story.length && _id >= 1);\n    // Shift and pop\n    uint idx_remove = _id-1;\n    for (uint i = idx_remove; i < story.length - 1; i++) {\n        story[i] = story[i + 1];\n        story[i].id -= 1;\n    }\n    nextElementId--;\n    story.pop();\n  }\n  /*\n   * buyStoryElement allows you to attempt to purchase a story element's NFT\n   */\n  function buyStoryElement(uint256 _id) public payable {\n    require(_id <= story.length && _id >= 1);\n    story[_id-1].nft.buy{ value: msg.value }(msg.sender);\n  }\n\n  event ListSuccess(uint256 _id, uint256 price, address owner);\n\n  /*\n   * listStoryElement allows you to attempt to list a story element's NFT (if you own it)\n   */\n  function listStoryElement(uint256 _id, uint256 new_price) public {\n    require(_id <= story.length && _id >= 1);\n    // Possible bug, the address of this call is Story address, not msg.sender, so we\n    // may not be able to verify through ownerOnly modifier\n    story[_id-1].nft.sell(msg.sender, new_price);\n    emit ListSuccess(_id, new_price, msg.sender);\n  }\n}\n",
  "sourcePath": "/Users/jjcheng77/Documents/DriveSynced/CMU/FourthYear/17733/storyline/contracts/Story.sol",
  "compiler": {
    "name": "solc",
    "version": "0.8.0+commit.c7dfd78e.Emscripten.clang"
  },
  "schemaVersion": "3.4.3",
  "updatedAt": "2021-11-29T06:25:11.210Z",
  "networkType": "ethereum",
  "devdoc": {
    "kind": "dev",
    "methods": {},
    "version": 1
  },
  "userdoc": {
    "kind": "user",
    "methods": {},
    "version": 1
  }
}