{
  "contractName": "Story",
  "abi": [
    {
      "inputs": [],
      "stateMutability": "nonpayable",
      "type": "constructor"
    },
    {
      "inputs": [
        {
          "internalType": "string",
          "name": "_content",
          "type": "string"
        }
      ],
      "name": "createStoryElement",
      "outputs": [],
      "stateMutability": "nonpayable",
      "type": "function"
    },
    {
      "inputs": [],
      "name": "getFullStory",
      "outputs": [
        {
          "components": [
            {
              "internalType": "uint256",
              "name": "id",
              "type": "uint256"
            },
            {
              "internalType": "uint256",
              "name": "dateTime",
              "type": "uint256"
            },
            {
              "internalType": "string",
              "name": "content",
              "type": "string"
            }
          ],
          "internalType": "struct Story.StoryElement[]",
          "name": "",
          "type": "tuple[]"
        }
      ],
      "stateMutability": "view",
      "type": "function",
      "constant": true
    },
    {
      "inputs": [
        {
          "internalType": "uint256",
          "name": "_id",
          "type": "uint256"
        }
      ],
      "name": "getStoryElement",
      "outputs": [
        {
          "components": [
            {
              "internalType": "uint256",
              "name": "id",
              "type": "uint256"
            },
            {
              "internalType": "uint256",
              "name": "dateTime",
              "type": "uint256"
            },
            {
              "internalType": "string",
              "name": "content",
              "type": "string"
            }
          ],
          "internalType": "struct Story.StoryElement",
          "name": "",
          "type": "tuple"
        }
      ],
      "stateMutability": "view",
      "type": "function",
      "constant": true
    }
  ],
  "bytecode": "0x608060405234801561001057600080fd5b5060018055604080518082019091526011815270027b731b2903ab837b71030903a34b6b29607d1b60208201526100469061004b565b610235565b610053610119565b600180548083529060006100668361020e565b90915550506040810182815242602080840191825260008054600181018255908052845160039091027f290decd9548b62a8d60345a988386fc84ba6bc95484008f6362f93160ef3e563810191825592517f290decd9548b62a8d60345a988386fc84ba6bc95484008f6362f93160ef3e56484015592518051859493610112937f290decd9548b62a8d60345a988386fc84ba6bc95484008f6362f93160ef3e56590910192019061013a565b5050505050565b60405180606001604052806000815260200160008152602001606081525090565b828054610146906101d3565b90600052602060002090601f01602090048101928261016857600085556101ae565b82601f1061018157805160ff19168380011785556101ae565b828001600101855582156101ae579182015b828111156101ae578251825591602001919060010190610193565b506101ba9291506101be565b5090565b5b808211156101ba57600081556001016101bf565b6002810460018216806101e757607f821691505b6020821081141561020857634e487b7160e01b600052602260045260246000fd5b50919050565b600060001982141561022e57634e487b7160e01b81526011600452602481fd5b5060010190565b610704806102446000396000f3fe608060405234801561001057600080fd5b50600436106100415760003560e01c80630a4f47aa146100465780634604a8f01461006457806380d8716614610084575b600080fd5b61004e610099565b60405161005b91906105b9565b60405180910390f35b610077610072366004610537565b61019e565b60405161005b919061063c565b610097610092366004610496565b61030e565b005b60606000805480602002602001604051908101604052809291908181526020016000905b828210156101955783829060005260206000209060030201604051806060016040529081600082015481526020016001820154815260200160028201805461010490610656565b80601f016020809104026020016040519081016040528092919081815260200182805461013090610656565b801561017d5780601f106101525761010080835404028352916020019161017d565b820191906000526020600020905b81548152906001019060200180831161016057829003601f168201915b505050505081525050815260200190600101906100bd565b50505050905090565b6101a66103dc565b60005b6000548110156102e75782600082815481106101d557634e487b7160e01b600052603260045260246000fd5b90600052602060002090600302016000015414156102d5576000818154811061020e57634e487b7160e01b600052603260045260246000fd5b9060005260206000209060030201604051806060016040529081600082015481526020016001820154815260200160028201805461024b90610656565b80601f016020809104026020016040519081016040528092919081815260200182805461027790610656565b80156102c45780601f10610299576101008083540402835291602001916102c4565b820191906000526020600020905b8154815290600101906020018083116102a757829003601f168201915b505050505081525050915050610309565b806102df81610691565b9150506101a9565b5060405162461bcd60e51b815260040161030090610619565b60405180910390fd5b919050565b6103166103dc565b6001805480835290600061032983610691565b90915550506040810182815242602080840191825260008054600181018255908052845160039091027f290decd9548b62a8d60345a988386fc84ba6bc95484008f6362f93160ef3e563810191825592517f290decd9548b62a8d60345a988386fc84ba6bc95484008f6362f93160ef3e564840155925180518594936103d5937f290decd9548b62a8d60345a988386fc84ba6bc95484008f6362f93160ef3e5659091019201906103fd565b5050505050565b60405180606001604052806000815260200160008152602001606081525090565b82805461040990610656565b90600052602060002090601f01602090048101928261042b5760008555610471565b82601f1061044457805160ff1916838001178555610471565b82800160010185558215610471579182015b82811115610471578251825591602001919060010190610456565b5061047d929150610481565b5090565b5b8082111561047d5760008155600101610482565b600060208083850312156104a8578182fd5b823567ffffffffffffffff808211156104bf578384fd5b818501915085601f8301126104d2578384fd5b8135818111156104e4576104e46106b8565b604051601f8201601f1916810185018381118282101715610507576105076106b8565b604052818152838201850188101561051d578586fd5b818585018683013790810190930193909352509392505050565b600060208284031215610548578081fd5b5035919050565b600081518352602080830151818501526040830151606060408601528051806060870152835b8181101561059157828101840151878201608001528301610575565b818111156105a25784608083890101525b50601f01601f191694909401608001949350505050565b6000602080830181845280855180835260408601915060408482028701019250838701855b8281101561060c57603f198886030184526105fa85835161054f565b945092850192908501906001016105de565b5092979650505050505050565b602080825260099082015268139bdd08199bdd5b9960ba1b604082015260600190565b60006020825261064f602083018461054f565b9392505050565b60028104600182168061066a57607f821691505b6020821081141561068b57634e487b7160e01b600052602260045260246000fd5b50919050565b60006000198214156106b157634e487b7160e01b81526011600452602481fd5b5060010190565b634e487b7160e01b600052604160045260246000fdfea2646970667358221220b47218b5ac1d8112b2f881c530f1d6b2d999e471c276436ee6d33ad2948caf3064736f6c63430008000033",
  "immutableReferences": {},
  "source": "// SPDX-License-Identifier: MIT\npragma solidity ^0.8.0;\n \n/*\n * @title Story Smart Contract\n * @notice Primary smart contract for running Storyline operations.\n */\ncontract Story {\n  /*\n   * StoryElement Struct.\n   * A single piece of Storyline content, published by a writer.\n   * @dev Any metadata about story content should go here.\n   */\n  struct StoryElement {\n    uint256 id; \n    uint256 dateTime;\n    string content;\n  }\n\n  /*\n   * StoryElement Master List.\n   * List of StoryElement structs, in published order.\n   * StoryLine should traverse this to build the latest story.\n   * @dev Newly published StoryElements should go here.\n   */\n  StoryElement[] story;\n\n  /*\n   * Next available StoryElement id.\n   * This should realistically never reach the maximum representation.\n   */\n  uint256 nextElementId;\n\n  /*\n   * Story contract constructor.\n   * @dev This should initialize the default story to \"Once upon a time \"\n   */\n  constructor() {\n    nextElementId = 1;\n    createStoryElement(\"Once upon a time \");\n  }\n\n  /*\n   * Initializes a new StoryElement struct and adds it to the story.\n   * This should populate the fresh struct with the given values.\n   * @param _content the text associated with the StoryElement\n   * @param _dateTime the date and time, in Moment.JS format, of publication\n   * @return nothing\n   */\n  function createStoryElement(\n    string memory _content\n  ) public { \n    // Get a new zero-initialized StoryElement struct, and populate it...\n    StoryElement memory newElem;\n\n    newElem.id = nextElementId;\n    nextElementId++;\n\n    newElem.content = _content;\n    newElem.dateTime = block.timestamp;\n\n    story.push(newElem);\n  }\n\n  /*\n   * getFullStory serves as a getter for the story\n   */\n  function getFullStory() public view returns (StoryElement[] memory) {\n    return story;\n  }\n\n  /*\n   * getFullStory serves as a getter for an element within the story\n   * If story with _id is not found, create error of type Panic(uint256)\n   */\n  function getStoryElement(uint256 _id) public view returns (StoryElement memory) {\n    // @dev May need to restructure story for efficiency\n    for(uint256 i=0; i<story.length; i++) {\n        if (story[i].id == _id) {\n          return story[i];\n        }\n    }\n    revert('Not found');\n  }\n}\n",
  "sourcePath": "/Users/jjcheng77/Documents/DriveSynced/CMU/FourthYear/17733/storyline/contracts/Story.sol",
  "compiler": {
    "name": "solc",
    "version": "0.8.0+commit.c7dfd78e.Emscripten.clang"
  },
  "schemaVersion": "3.4.3",
  "updatedAt": "2021-11-21T20:07:52.477Z",
  "networkType": "ethereum",
  "devdoc": {
    "kind": "dev",
    "methods": {},
    "version": 1
  },
  "userdoc": {
    "kind": "user",
    "methods": {},
    "version": 1
  }
}