{
  "contractName": "NFT",
  "abi": [
    {
      "inputs": [],
      "stateMutability": "nonpayable",
      "type": "constructor"
    },
    {
      "anonymous": false,
      "inputs": [
        {
          "indexed": true,
          "internalType": "address",
          "name": "owner",
          "type": "address"
        },
        {
          "indexed": true,
          "internalType": "address",
          "name": "approved",
          "type": "address"
        },
        {
          "indexed": true,
          "internalType": "uint256",
          "name": "tokenId",
          "type": "uint256"
        }
      ],
      "name": "Approval",
      "type": "event"
    },
    {
      "anonymous": false,
      "inputs": [
        {
          "indexed": true,
          "internalType": "address",
          "name": "owner",
          "type": "address"
        },
        {
          "indexed": true,
          "internalType": "address",
          "name": "operator",
          "type": "address"
        },
        {
          "indexed": false,
          "internalType": "bool",
          "name": "approved",
          "type": "bool"
        }
      ],
      "name": "ApprovalForAll",
      "type": "event"
    },
    {
      "anonymous": false,
      "inputs": [
        {
          "indexed": true,
          "internalType": "address",
          "name": "previousOwner",
          "type": "address"
        },
        {
          "indexed": true,
          "internalType": "address",
          "name": "newOwner",
          "type": "address"
        }
      ],
      "name": "OwnershipTransferred",
      "type": "event"
    },
    {
      "anonymous": false,
      "inputs": [
        {
          "indexed": false,
          "internalType": "address",
          "name": "owner",
          "type": "address"
        },
        {
          "indexed": false,
          "internalType": "uint256",
          "name": "price",
          "type": "uint256"
        },
        {
          "indexed": false,
          "internalType": "uint256",
          "name": "id",
          "type": "uint256"
        },
        {
          "indexed": false,
          "internalType": "string",
          "name": "uri",
          "type": "string"
        }
      ],
      "name": "Purchase",
      "type": "event"
    },
    {
      "anonymous": false,
      "inputs": [
        {
          "indexed": true,
          "internalType": "address",
          "name": "from",
          "type": "address"
        },
        {
          "indexed": true,
          "internalType": "address",
          "name": "to",
          "type": "address"
        },
        {
          "indexed": true,
          "internalType": "uint256",
          "name": "tokenId",
          "type": "uint256"
        }
      ],
      "name": "Transfer",
      "type": "event"
    },
    {
      "inputs": [],
      "name": "_owner",
      "outputs": [
        {
          "internalType": "address payable",
          "name": "",
          "type": "address"
        }
      ],
      "stateMutability": "view",
      "type": "function"
    },
    {
      "inputs": [
        {
          "internalType": "address",
          "name": "to",
          "type": "address"
        },
        {
          "internalType": "uint256",
          "name": "tokenId",
          "type": "uint256"
        }
      ],
      "name": "approve",
      "outputs": [],
      "stateMutability": "nonpayable",
      "type": "function"
    },
    {
      "inputs": [
        {
          "internalType": "address",
          "name": "owner",
          "type": "address"
        }
      ],
      "name": "balanceOf",
      "outputs": [
        {
          "internalType": "uint256",
          "name": "",
          "type": "uint256"
        }
      ],
      "stateMutability": "view",
      "type": "function"
    },
    {
      "inputs": [
        {
          "internalType": "uint256",
          "name": "tokenId",
          "type": "uint256"
        }
      ],
      "name": "getApproved",
      "outputs": [
        {
          "internalType": "address",
          "name": "",
          "type": "address"
        }
      ],
      "stateMutability": "view",
      "type": "function"
    },
    {
      "inputs": [
        {
          "internalType": "address",
          "name": "owner",
          "type": "address"
        },
        {
          "internalType": "address",
          "name": "operator",
          "type": "address"
        }
      ],
      "name": "isApprovedForAll",
      "outputs": [
        {
          "internalType": "bool",
          "name": "",
          "type": "bool"
        }
      ],
      "stateMutability": "view",
      "type": "function"
    },
    {
      "inputs": [],
      "name": "name",
      "outputs": [
        {
          "internalType": "string",
          "name": "",
          "type": "string"
        }
      ],
      "stateMutability": "view",
      "type": "function"
    },
    {
      "inputs": [],
      "name": "owner",
      "outputs": [
        {
          "internalType": "address",
          "name": "",
          "type": "address"
        }
      ],
      "stateMutability": "view",
      "type": "function"
    },
    {
      "inputs": [
        {
          "internalType": "uint256",
          "name": "tokenId",
          "type": "uint256"
        }
      ],
      "name": "ownerOf",
      "outputs": [
        {
          "internalType": "address",
          "name": "",
          "type": "address"
        }
      ],
      "stateMutability": "view",
      "type": "function"
    },
    {
      "inputs": [
        {
          "internalType": "uint256",
          "name": "",
          "type": "uint256"
        }
      ],
      "name": "price",
      "outputs": [
        {
          "internalType": "uint256",
          "name": "",
          "type": "uint256"
        }
      ],
      "stateMutability": "view",
      "type": "function"
    },
    {
      "inputs": [],
      "name": "renounceOwnership",
      "outputs": [],
      "stateMutability": "nonpayable",
      "type": "function"
    },
    {
      "inputs": [
        {
          "internalType": "address",
          "name": "from",
          "type": "address"
        },
        {
          "internalType": "address",
          "name": "to",
          "type": "address"
        },
        {
          "internalType": "uint256",
          "name": "tokenId",
          "type": "uint256"
        }
      ],
      "name": "safeTransferFrom",
      "outputs": [],
      "stateMutability": "nonpayable",
      "type": "function"
    },
    {
      "inputs": [
        {
          "internalType": "address",
          "name": "from",
          "type": "address"
        },
        {
          "internalType": "address",
          "name": "to",
          "type": "address"
        },
        {
          "internalType": "uint256",
          "name": "tokenId",
          "type": "uint256"
        },
        {
          "internalType": "bytes",
          "name": "_data",
          "type": "bytes"
        }
      ],
      "name": "safeTransferFrom",
      "outputs": [],
      "stateMutability": "nonpayable",
      "type": "function"
    },
    {
      "inputs": [
        {
          "internalType": "address",
          "name": "operator",
          "type": "address"
        },
        {
          "internalType": "bool",
          "name": "approved",
          "type": "bool"
        }
      ],
      "name": "setApprovalForAll",
      "outputs": [],
      "stateMutability": "nonpayable",
      "type": "function"
    },
    {
      "inputs": [
        {
          "internalType": "uint256",
          "name": "",
          "type": "uint256"
        }
      ],
      "name": "sold",
      "outputs": [
        {
          "internalType": "bool",
          "name": "",
          "type": "bool"
        }
      ],
      "stateMutability": "view",
      "type": "function"
    },
    {
      "inputs": [],
      "name": "symbol",
      "outputs": [
        {
          "internalType": "string",
          "name": "",
          "type": "string"
        }
      ],
      "stateMutability": "view",
      "type": "function"
    },
    {
      "inputs": [
        {
          "internalType": "uint256",
          "name": "index",
          "type": "uint256"
        }
      ],
      "name": "tokenByIndex",
      "outputs": [
        {
          "internalType": "uint256",
          "name": "",
          "type": "uint256"
        }
      ],
      "stateMutability": "view",
      "type": "function"
    },
    {
      "inputs": [
        {
          "internalType": "address",
          "name": "owner",
          "type": "address"
        },
        {
          "internalType": "uint256",
          "name": "index",
          "type": "uint256"
        }
      ],
      "name": "tokenOfOwnerByIndex",
      "outputs": [
        {
          "internalType": "uint256",
          "name": "",
          "type": "uint256"
        }
      ],
      "stateMutability": "view",
      "type": "function"
    },
    {
      "inputs": [],
      "name": "totalSupply",
      "outputs": [
        {
          "internalType": "uint256",
          "name": "",
          "type": "uint256"
        }
      ],
      "stateMutability": "view",
      "type": "function"
    },
    {
      "inputs": [
        {
          "internalType": "address",
          "name": "from",
          "type": "address"
        },
        {
          "internalType": "address",
          "name": "to",
          "type": "address"
        },
        {
          "internalType": "uint256",
          "name": "tokenId",
          "type": "uint256"
        }
      ],
      "name": "transferFrom",
      "outputs": [],
      "stateMutability": "nonpayable",
      "type": "function"
    },
    {
      "inputs": [
        {
          "internalType": "address",
          "name": "newOwner",
          "type": "address"
        }
      ],
      "name": "transferOwnership",
      "outputs": [],
      "stateMutability": "nonpayable",
      "type": "function"
    },
    {
      "inputs": [
        {
          "internalType": "uint256",
          "name": "tokenId",
          "type": "uint256"
        }
      ],
      "name": "tokenURI",
      "outputs": [
        {
          "internalType": "string",
          "name": "",
          "type": "string"
        }
      ],
      "stateMutability": "view",
      "type": "function"
    },
    {
      "inputs": [
        {
          "internalType": "bytes4",
          "name": "interfaceId",
          "type": "bytes4"
        }
      ],
      "name": "supportsInterface",
      "outputs": [
        {
          "internalType": "bool",
          "name": "",
          "type": "bool"
        }
      ],
      "stateMutability": "view",
      "type": "function"
    },
    {
      "inputs": [
        {
          "internalType": "string",
          "name": "_tokenURI",
          "type": "string"
        },
        {
          "internalType": "uint256",
          "name": "_price",
          "type": "uint256"
        }
      ],
      "name": "mint",
      "outputs": [
        {
          "internalType": "bool",
          "name": "",
          "type": "bool"
        }
      ],
      "stateMutability": "nonpayable",
      "type": "function"
    },
    {
      "inputs": [
        {
          "internalType": "uint256",
          "name": "_id",
          "type": "uint256"
        }
      ],
      "name": "buy",
      "outputs": [],
      "stateMutability": "payable",
      "type": "function"
    }
  ],
  "bytecode": "0x60806040523480156200001157600080fd5b506040518060400160405280600c81526020017f53746f7279456c656d656e7400000000000000000000000000000000000000008152506040518060400160405280600281526020017f5345000000000000000000000000000000000000000000000000000000000000815250816000908051906020019062000096929190620001e7565b508060019080519060200190620000af929190620001e7565b505050620000d2620000c66200011960201b60201c565b6200012160201b60201c565b33600c60006101000a81548173ffffffffffffffffffffffffffffffffffffffff021916908373ffffffffffffffffffffffffffffffffffffffff160217905550620002fc565b600033905090565b6000600b60009054906101000a900473ffffffffffffffffffffffffffffffffffffffff16905081600b60006101000a81548173ffffffffffffffffffffffffffffffffffffffff021916908373ffffffffffffffffffffffffffffffffffffffff1602179055508173ffffffffffffffffffffffffffffffffffffffff168173ffffffffffffffffffffffffffffffffffffffff167f8be0079c531659141344cd1fd0a4f28419497f9722a3daafe3b4186f6b6457e060405160405180910390a35050565b828054620001f59062000297565b90600052602060002090601f01602090048101928262000219576000855562000265565b82601f106200023457805160ff191683800117855562000265565b8280016001018555821562000265579182015b828111156200026457825182559160200191906001019062000247565b5b50905062000274919062000278565b5090565b5b808211156200029357600081600090555060010162000279565b5090565b60006002820490506001821680620002b057607f821691505b60208210811415620002c757620002c6620002cd565b5b50919050565b7f4e487b7100000000000000000000000000000000000000000000000000000000600052602260045260246000fd5b613cdb806200030c6000396000f3fe60806040526004361061014b5760003560e01c806370a08231116100b6578063b2bdfa7b1161006f578063b2bdfa7b146104dc578063b88d4fde14610507578063c87b56dd14610530578063d96a094a1461056d578063e985e9c514610589578063f2fde38b146105c65761014b565b806370a08231146103cc578063715018a6146104095780638da5cb5b1461042057806395d89b411461044b5780639c03facb14610476578063a22cb465146104b35761014b565b806323b872dd1161010857806323b872dd1461028657806326a49e37146102af5780632f745c59146102ec57806342842e0e146103295780634f6ccce7146103525780636352211e1461038f5761014b565b806301ffc9a714610150578063056b01ce1461018d57806306fdde03146101ca578063081812fc146101f5578063095ea7b31461023257806318160ddd1461025b575b600080fd5b34801561015c57600080fd5b5061017760048036038101906101729190612a81565b6105ef565b6040516101849190613541565b60405180910390f35b34801561019957600080fd5b506101b460048036038101906101af9190612ad3565b610601565b6040516101c19190613541565b60405180910390f35b3480156101d657600080fd5b506101df6106ce565b6040516101ec919061355c565b60405180910390f35b34801561020157600080fd5b5061021c60048036038101906102179190612b27565b610760565b6040516102299190613473565b60405180910390f35b34801561023e57600080fd5b5061025960048036038101906102549190612a45565b6107e5565b005b34801561026757600080fd5b506102706108fd565b60405161027d919061385e565b60405180910390f35b34801561029257600080fd5b506102ad60048036038101906102a8919061293f565b61090a565b005b3480156102bb57600080fd5b506102d660048036038101906102d19190612b27565b61096a565b6040516102e3919061385e565b60405180910390f35b3480156102f857600080fd5b50610313600480360381019061030e9190612a45565b610982565b604051610320919061385e565b60405180910390f35b34801561033557600080fd5b50610350600480360381019061034b919061293f565b610a27565b005b34801561035e57600080fd5b5061037960048036038101906103749190612b27565b610a47565b604051610386919061385e565b60405180910390f35b34801561039b57600080fd5b506103b660048036038101906103b19190612b27565b610ade565b6040516103c39190613473565b60405180910390f35b3480156103d857600080fd5b506103f360048036038101906103ee91906128da565b610b90565b604051610400919061385e565b60405180910390f35b34801561041557600080fd5b5061041e610c48565b005b34801561042c57600080fd5b50610435610cd0565b6040516104429190613473565b60405180910390f35b34801561045757600080fd5b50610460610cfa565b60405161046d919061355c565b60405180910390f35b34801561048257600080fd5b5061049d60048036038101906104989190612b27565b610d8c565b6040516104aa9190613541565b60405180910390f35b3480156104bf57600080fd5b506104da60048036038101906104d59190612a09565b610dac565b005b3480156104e857600080fd5b506104f1610f2d565b6040516104fe919061348e565b60405180910390f35b34801561051357600080fd5b5061052e6004803603810190610529919061298e565b610f53565b005b34801561053c57600080fd5b5061055760048036038101906105529190612b27565b610fb5565b604051610564919061355c565b60405180910390f35b61058760048036038101906105829190612b27565b610fc7565b005b34801561059557600080fd5b506105b060048036038101906105ab9190612903565b611034565b6040516105bd9190613541565b60405180910390f35b3480156105d257600080fd5b506105ed60048036038101906105e891906128da565b6110c8565b005b60006105fa826111c0565b9050919050565b600061060b61123a565b73ffffffffffffffffffffffffffffffffffffffff16610629610cd0565b73ffffffffffffffffffffffffffffffffffffffff161461067f576040517f08c379a00000000000000000000000000000000000000000000000000000000081526004016106769061377e565b60405180910390fd5b6000600161068b6108fd565b610695919061394d565b905082600e6000838152602001908152602001600020819055506106b93082611242565b6106c38185611410565b600191505092915050565b6060600080546106dd90613ad0565b80601f016020809104026020016040519081016040528092919081815260200182805461070990613ad0565b80156107565780601f1061072b57610100808354040283529160200191610756565b820191906000526020600020905b81548152906001019060200180831161073957829003601f168201915b5050505050905090565b600061076b82611484565b6107aa576040517f08c379a00000000000000000000000000000000000000000000000000000000081526004016107a19061375e565b60405180910390fd5b6004600083815260200190815260200160002060009054906101000a900473ffffffffffffffffffffffffffffffffffffffff169050919050565b60006107f082610ade565b90508073ffffffffffffffffffffffffffffffffffffffff168373ffffffffffffffffffffffffffffffffffffffff161415610861576040517f08c379a0000000000000000000000000000000000000000000000000000000008152600401610858906137de565b60405180910390fd5b8073ffffffffffffffffffffffffffffffffffffffff1661088061123a565b73ffffffffffffffffffffffffffffffffffffffff1614806108af57506108ae816108a961123a565b611034565b5b6108ee576040517f08c379a00000000000000000000000000000000000000000000000000000000081526004016108e59061369e565b60405180910390fd5b6108f883836114f0565b505050565b6000600980549050905090565b61091b61091561123a565b826115a9565b61095a576040517f08c379a00000000000000000000000000000000000000000000000000000000081526004016109519061381e565b60405180910390fd5b610965838383611687565b505050565b600e6020528060005260406000206000915090505481565b600061098d83610b90565b82106109ce576040517f08c379a00000000000000000000000000000000000000000000000000000000081526004016109c59061357e565b60405180910390fd5b600760008473ffffffffffffffffffffffffffffffffffffffff1673ffffffffffffffffffffffffffffffffffffffff168152602001908152602001600020600083815260200190815260200160002054905092915050565b610a4283838360405180602001604052806000815250610f53565b505050565b6000610a516108fd565b8210610a92576040517f08c379a0000000000000000000000000000000000000000000000000000000008152600401610a899061383e565b60405180910390fd5b60098281548110610acc577f4e487b7100000000000000000000000000000000000000000000000000000000600052603260045260246000fd5b90600052602060002001549050919050565b6000806002600084815260200190815260200160002060009054906101000a900473ffffffffffffffffffffffffffffffffffffffff169050600073ffffffffffffffffffffffffffffffffffffffff168173ffffffffffffffffffffffffffffffffffffffff161415610b87576040517f08c379a0000000000000000000000000000000000000000000000000000000008152600401610b7e906136de565b60405180910390fd5b80915050919050565b60008073ffffffffffffffffffffffffffffffffffffffff168273ffffffffffffffffffffffffffffffffffffffff161415610c01576040517f08c379a0000000000000000000000000000000000000000000000000000000008152600401610bf8906136be565b60405180910390fd5b600360008373ffffffffffffffffffffffffffffffffffffffff1673ffffffffffffffffffffffffffffffffffffffff168152602001908152602001600020549050919050565b610c5061123a565b73ffffffffffffffffffffffffffffffffffffffff16610c6e610cd0565b73ffffffffffffffffffffffffffffffffffffffff1614610cc4576040517f08c379a0000000000000000000000000000000000000000000000000000000008152600401610cbb9061377e565b60405180910390fd5b610cce60006118e3565b565b6000600b60009054906101000a900473ffffffffffffffffffffffffffffffffffffffff16905090565b606060018054610d0990613ad0565b80601f0160208091040260200160405190810160405280929190818152602001828054610d3590613ad0565b8015610d825780601f10610d5757610100808354040283529160200191610d82565b820191906000526020600020905b815481529060010190602001808311610d6557829003601f168201915b5050505050905090565b600d6020528060005260406000206000915054906101000a900460ff1681565b610db461123a565b73ffffffffffffffffffffffffffffffffffffffff168273ffffffffffffffffffffffffffffffffffffffff161415610e22576040517f08c379a0000000000000000000000000000000000000000000000000000000008152600401610e199061361e565b60405180910390fd5b8060056000610e2f61123a565b73ffffffffffffffffffffffffffffffffffffffff1673ffffffffffffffffffffffffffffffffffffffff16815260200190815260200160002060008473ffffffffffffffffffffffffffffffffffffffff1673ffffffffffffffffffffffffffffffffffffffff16815260200190815260200160002060006101000a81548160ff0219169083151502179055508173ffffffffffffffffffffffffffffffffffffffff16610edc61123a565b73ffffffffffffffffffffffffffffffffffffffff167f17307eab39ab6107e8899845ad3d59bd9653f200f220920489ca2b5937696c3183604051610f219190613541565b60405180910390a35050565b600c60009054906101000a900473ffffffffffffffffffffffffffffffffffffffff1681565b610f64610f5e61123a565b836115a9565b610fa3576040517f08c379a0000000000000000000000000000000000000000000000000000000008152600401610f9a9061381e565b60405180910390fd5b610faf848484846119a9565b50505050565b6060610fc082611a05565b9050919050565b610fd081611b57565b610fd981611c59565b7f6d5507734d4d9e8592119c9e6b3e2bf7eab8bd6252f36e2fa05a5588442479da33600e6000848152602001908152602001600020548361101985610fb5565b60405161102994939291906134f5565b60405180910390a150565b6000600560008473ffffffffffffffffffffffffffffffffffffffff1673ffffffffffffffffffffffffffffffffffffffff16815260200190815260200160002060008373ffffffffffffffffffffffffffffffffffffffff1673ffffffffffffffffffffffffffffffffffffffff16815260200190815260200160002060009054906101000a900460ff16905092915050565b6110d061123a565b73ffffffffffffffffffffffffffffffffffffffff166110ee610cd0565b73ffffffffffffffffffffffffffffffffffffffff1614611144576040517f08c379a000000000000000000000000000000000000000000000000000000000815260040161113b9061377e565b60405180910390fd5b600073ffffffffffffffffffffffffffffffffffffffff168173ffffffffffffffffffffffffffffffffffffffff1614156111b4576040517f08c379a00000000000000000000000000000000000000000000000000000000081526004016111ab906135be565b60405180910390fd5b6111bd816118e3565b50565b60007f780e9d63000000000000000000000000000000000000000000000000000000007bffffffffffffffffffffffffffffffffffffffffffffffffffffffff1916827bffffffffffffffffffffffffffffffffffffffffffffffffffffffff19161480611233575061123282611cfc565b5b9050919050565b600033905090565b600073ffffffffffffffffffffffffffffffffffffffff168273ffffffffffffffffffffffffffffffffffffffff1614156112b2576040517f08c379a00000000000000000000000000000000000000000000000000000000081526004016112a99061371e565b60405180910390fd5b6112bb81611484565b156112fb576040517f08c379a00000000000000000000000000000000000000000000000000000000081526004016112f2906135de565b60405180910390fd5b61130760008383611dde565b6001600360008473ffffffffffffffffffffffffffffffffffffffff1673ffffffffffffffffffffffffffffffffffffffff1681526020019081526020016000206000828254611357919061394d565b92505081905550816002600083815260200190815260200160002060006101000a81548173ffffffffffffffffffffffffffffffffffffffff021916908373ffffffffffffffffffffffffffffffffffffffff160217905550808273ffffffffffffffffffffffffffffffffffffffff16600073ffffffffffffffffffffffffffffffffffffffff167fddf252ad1be2c89b69c2b068fc378daa952ba7f163c4a11628f55a4df523b3ef60405160405180910390a45050565b61141982611484565b611458576040517f08c379a000000000000000000000000000000000000000000000000000000000815260040161144f906136fe565b60405180910390fd5b8060066000848152602001908152602001600020908051906020019061147f9291906126fe565b505050565b60008073ffffffffffffffffffffffffffffffffffffffff166002600084815260200190815260200160002060009054906101000a900473ffffffffffffffffffffffffffffffffffffffff1673ffffffffffffffffffffffffffffffffffffffff1614159050919050565b816004600083815260200190815260200160002060006101000a81548173ffffffffffffffffffffffffffffffffffffffff021916908373ffffffffffffffffffffffffffffffffffffffff160217905550808273ffffffffffffffffffffffffffffffffffffffff1661156383610ade565b73ffffffffffffffffffffffffffffffffffffffff167f8c5be1e5ebec7d5bd14f71427d1e84f3dd0314c0f7b2291e5b200ac8c7c3b92560405160405180910390a45050565b60006115b482611484565b6115f3576040517f08c379a00000000000000000000000000000000000000000000000000000000081526004016115ea9061363e565b60405180910390fd5b60006115fe83610ade565b90508073ffffffffffffffffffffffffffffffffffffffff168473ffffffffffffffffffffffffffffffffffffffff16148061166d57508373ffffffffffffffffffffffffffffffffffffffff1661165584610760565b73ffffffffffffffffffffffffffffffffffffffff16145b8061167e575061167d8185611034565b5b91505092915050565b8273ffffffffffffffffffffffffffffffffffffffff166116a782610ade565b73ffffffffffffffffffffffffffffffffffffffff16146116fd576040517f08c379a00000000000000000000000000000000000000000000000000000000081526004016116f49061379e565b60405180910390fd5b600073ffffffffffffffffffffffffffffffffffffffff168273ffffffffffffffffffffffffffffffffffffffff16141561176d576040517f08c379a0000000000000000000000000000000000000000000000000000000008152600401611764906135fe565b60405180910390fd5b611778838383611dde565b6117836000826114f0565b6001600360008573ffffffffffffffffffffffffffffffffffffffff1673ffffffffffffffffffffffffffffffffffffffff16815260200190815260200160002060008282546117d391906139d4565b925050819055506001600360008473ffffffffffffffffffffffffffffffffffffffff1673ffffffffffffffffffffffffffffffffffffffff168152602001908152602001600020600082825461182a919061394d565b92505081905550816002600083815260200190815260200160002060006101000a81548173ffffffffffffffffffffffffffffffffffffffff021916908373ffffffffffffffffffffffffffffffffffffffff160217905550808273ffffffffffffffffffffffffffffffffffffffff168473ffffffffffffffffffffffffffffffffffffffff167fddf252ad1be2c89b69c2b068fc378daa952ba7f163c4a11628f55a4df523b3ef60405160405180910390a4505050565b6000600b60009054906101000a900473ffffffffffffffffffffffffffffffffffffffff16905081600b60006101000a81548173ffffffffffffffffffffffffffffffffffffffff021916908373ffffffffffffffffffffffffffffffffffffffff1602179055508173ffffffffffffffffffffffffffffffffffffffff168173ffffffffffffffffffffffffffffffffffffffff167f8be0079c531659141344cd1fd0a4f28419497f9722a3daafe3b4186f6b6457e060405160405180910390a35050565b6119b4848484611687565b6119c084848484611dee565b6119ff576040517f08c379a00000000000000000000000000000000000000000000000000000000081526004016119f69061359e565b60405180910390fd5b50505050565b6060611a1082611484565b611a4f576040517f08c379a0000000000000000000000000000000000000000000000000000000008152600401611a469061373e565b60405180910390fd5b6000600660008481526020019081526020016000208054611a6f90613ad0565b80601f0160208091040260200160405190810160405280929190818152602001828054611a9b90613ad0565b8015611ae85780601f10611abd57610100808354040283529160200191611ae8565b820191906000526020600020905b815481529060010190602001808311611acb57829003601f168201915b505050505090506000611af9611f85565b9050600081511415611b0f578192505050611b52565b600082511115611b44578082604051602001611b2c92919061344f565b60405160208183030381529060405292505050611b52565b611b4d84611f9c565b925050505b919050565b611b6081611484565b611b9f576040517f08c379a0000000000000000000000000000000000000000000000000000000008152600401611b969061365e565b60405180910390fd5b600d600082815260200190815260200160002060009054906101000a900460ff1615611c00576040517f08c379a0000000000000000000000000000000000000000000000000000000008152600401611bf7906137fe565b60405180910390fd5b600e600082815260200190815260200160002054341015611c56576040517f08c379a0000000000000000000000000000000000000000000000000000000008152600401611c4d9061367e565b60405180910390fd5b50565b611c64303383611687565b600c60009054906101000a900473ffffffffffffffffffffffffffffffffffffffff1673ffffffffffffffffffffffffffffffffffffffff166108fc349081150290604051600060405180830381858888f19350505050158015611ccc573d6000803e3d6000fd5b506001600d600083815260200190815260200160002060006101000a81548160ff02191690831515021790555050565b60007f80ac58cd000000000000000000000000000000000000000000000000000000007bffffffffffffffffffffffffffffffffffffffffffffffffffffffff1916827bffffffffffffffffffffffffffffffffffffffffffffffffffffffff19161480611dc757507f5b5e139f000000000000000000000000000000000000000000000000000000007bffffffffffffffffffffffffffffffffffffffffffffffffffffffff1916827bffffffffffffffffffffffffffffffffffffffffffffffffffffffff1916145b80611dd75750611dd682612043565b5b9050919050565b611de98383836120ad565b505050565b6000611e0f8473ffffffffffffffffffffffffffffffffffffffff166121c1565b15611f78578373ffffffffffffffffffffffffffffffffffffffff1663150b7a02611e3861123a565b8786866040518563ffffffff1660e01b8152600401611e5a94939291906134a9565b602060405180830381600087803b158015611e7457600080fd5b505af1925050508015611ea557506040513d601f19601f82011682018060405250810190611ea29190612aaa565b60015b611f28573d8060008114611ed5576040519150601f19603f3d011682016040523d82523d6000602084013e611eda565b606091505b50600081511415611f20576040517f08c379a0000000000000000000000000000000000000000000000000000000008152600401611f179061359e565b60405180910390fd5b805181602001fd5b63150b7a0260e01b7bffffffffffffffffffffffffffffffffffffffffffffffffffffffff1916817bffffffffffffffffffffffffffffffffffffffffffffffffffffffff191614915050611f7d565b600190505b949350505050565b606060405180602001604052806000815250905090565b6060611fa782611484565b611fe6576040517f08c379a0000000000000000000000000000000000000000000000000000000008152600401611fdd906137be565b60405180910390fd5b6000611ff0611f85565b90506000815111612010576040518060200160405280600081525061203b565b8061201a846121d4565b60405160200161202b92919061344f565b6040516020818303038152906040525b915050919050565b60007f01ffc9a7000000000000000000000000000000000000000000000000000000007bffffffffffffffffffffffffffffffffffffffffffffffffffffffff1916827bffffffffffffffffffffffffffffffffffffffffffffffffffffffff1916149050919050565b6120b8838383612381565b600073ffffffffffffffffffffffffffffffffffffffff168373ffffffffffffffffffffffffffffffffffffffff1614156120fb576120f681612386565b61213a565b8173ffffffffffffffffffffffffffffffffffffffff168373ffffffffffffffffffffffffffffffffffffffff16146121395761213883826123cf565b5b5b600073ffffffffffffffffffffffffffffffffffffffff168273ffffffffffffffffffffffffffffffffffffffff16141561217d576121788161253c565b6121bc565b8273ffffffffffffffffffffffffffffffffffffffff168273ffffffffffffffffffffffffffffffffffffffff16146121bb576121ba828261267f565b5b5b505050565b600080823b905060008111915050919050565b6060600082141561221c576040518060400160405280600181526020017f3000000000000000000000000000000000000000000000000000000000000000815250905061237c565b600082905060005b6000821461224e57808061223790613b02565b915050600a8261224791906139a3565b9150612224565b60008167ffffffffffffffff811115612290577f4e487b7100000000000000000000000000000000000000000000000000000000600052604160045260246000fd5b6040519080825280601f01601f1916602001820160405280156122c25781602001600182028036833780820191505090505b5090505b60008514612375576001826122db91906139d4565b9150600a856122ea9190613b4b565b60306122f6919061394d565b60f81b818381518110612332577f4e487b7100000000000000000000000000000000000000000000000000000000600052603260045260246000fd5b60200101907effffffffffffffffffffffffffffffffffffffffffffffffffffffffffffff1916908160001a905350600a8561236e91906139a3565b94506122c6565b8093505050505b919050565b505050565b600980549050600a600083815260200190815260200160002081905550600981908060018154018082558091505060019003906000526020600020016000909190919091505550565b600060016123dc84610b90565b6123e691906139d4565b90506000600860008481526020019081526020016000205490508181146124cb576000600760008673ffffffffffffffffffffffffffffffffffffffff1673ffffffffffffffffffffffffffffffffffffffff168152602001908152602001600020600084815260200190815260200160002054905080600760008773ffffffffffffffffffffffffffffffffffffffff1673ffffffffffffffffffffffffffffffffffffffff168152602001908152602001600020600084815260200190815260200160002081905550816008600083815260200190815260200160002081905550505b6008600084815260200190815260200160002060009055600760008573ffffffffffffffffffffffffffffffffffffffff1673ffffffffffffffffffffffffffffffffffffffff16815260200190815260200160002060008381526020019081526020016000206000905550505050565b6000600160098054905061255091906139d4565b90506000600a60008481526020019081526020016000205490506000600983815481106125a6577f4e487b7100000000000000000000000000000000000000000000000000000000600052603260045260246000fd5b9060005260206000200154905080600983815481106125ee577f4e487b7100000000000000000000000000000000000000000000000000000000600052603260045260246000fd5b906000526020600020018190555081600a600083815260200190815260200160002081905550600a6000858152602001908152602001600020600090556009805480612663577f4e487b7100000000000000000000000000000000000000000000000000000000600052603160045260246000fd5b6001900381819060005260206000200160009055905550505050565b600061268a83610b90565b905081600760008573ffffffffffffffffffffffffffffffffffffffff1673ffffffffffffffffffffffffffffffffffffffff168152602001908152602001600020600083815260200190815260200160002081905550806008600084815260200190815260200160002081905550505050565b82805461270a90613ad0565b90600052602060002090601f01602090048101928261272c5760008555612773565b82601f1061274557805160ff1916838001178555612773565b82800160010185558215612773579182015b82811115612772578251825591602001919060010190612757565b5b5090506127809190612784565b5090565b5b8082111561279d576000816000905550600101612785565b5090565b60006127b46127af846138aa565b613879565b9050828152602081018484840111156127cc57600080fd5b6127d7848285613a8e565b509392505050565b60006127f26127ed846138da565b613879565b90508281526020810184848401111561280a57600080fd5b612815848285613a8e565b509392505050565b60008135905061282c81613c49565b92915050565b60008135905061284181613c60565b92915050565b60008135905061285681613c77565b92915050565b60008151905061286b81613c77565b92915050565b600082601f83011261288257600080fd5b81356128928482602086016127a1565b91505092915050565b600082601f8301126128ac57600080fd5b81356128bc8482602086016127df565b91505092915050565b6000813590506128d481613c8e565b92915050565b6000602082840312156128ec57600080fd5b60006128fa8482850161281d565b91505092915050565b6000806040838503121561291657600080fd5b60006129248582860161281d565b92505060206129358582860161281d565b9150509250929050565b60008060006060848603121561295457600080fd5b60006129628682870161281d565b93505060206129738682870161281d565b9250506040612984868287016128c5565b9150509250925092565b600080600080608085870312156129a457600080fd5b60006129b28782880161281d565b94505060206129c38782880161281d565b93505060406129d4878288016128c5565b925050606085013567ffffffffffffffff8111156129f157600080fd5b6129fd87828801612871565b91505092959194509250565b60008060408385031215612a1c57600080fd5b6000612a2a8582860161281d565b9250506020612a3b85828601612832565b9150509250929050565b60008060408385031215612a5857600080fd5b6000612a668582860161281d565b9250506020612a77858286016128c5565b9150509250929050565b600060208284031215612a9357600080fd5b6000612aa184828501612847565b91505092915050565b600060208284031215612abc57600080fd5b6000612aca8482850161285c565b91505092915050565b60008060408385031215612ae657600080fd5b600083013567ffffffffffffffff811115612b0057600080fd5b612b0c8582860161289b565b9250506020612b1d858286016128c5565b9150509250929050565b600060208284031215612b3957600080fd5b6000612b47848285016128c5565b91505092915050565b612b5981613a1a565b82525050565b612b6881613a08565b82525050565b612b7781613a2c565b82525050565b6000612b888261390a565b612b928185613920565b9350612ba2818560208601613a9d565b612bab81613c38565b840191505092915050565b6000612bc182613915565b612bcb8185613931565b9350612bdb818560208601613a9d565b612be481613c38565b840191505092915050565b6000612bfa82613915565b612c048185613942565b9350612c14818560208601613a9d565b80840191505092915050565b6000612c2d602b83613931565b91507f455243373231456e756d657261626c653a206f776e657220696e646578206f7560008301527f74206f6620626f756e64730000000000000000000000000000000000000000006020830152604082019050919050565b6000612c93603283613931565b91507f4552433732313a207472616e7366657220746f206e6f6e20455243373231526560008301527f63656976657220696d706c656d656e74657200000000000000000000000000006020830152604082019050919050565b6000612cf9602683613931565b91507f4f776e61626c653a206e6577206f776e657220697320746865207a65726f206160008301527f64647265737300000000000000000000000000000000000000000000000000006020830152604082019050919050565b6000612d5f601c83613931565b91507f4552433732313a20746f6b656e20616c7265616479206d696e746564000000006000830152602082019050919050565b6000612d9f602483613931565b91507f4552433732313a207472616e7366657220746f20746865207a65726f2061646460008301527f72657373000000000000000000000000000000000000000000000000000000006020830152604082019050919050565b6000612e05601983613931565b91507f4552433732313a20617070726f766520746f2063616c6c6572000000000000006000830152602082019050919050565b6000612e45602c83613931565b91507f4552433732313a206f70657261746f7220717565727920666f72206e6f6e657860008301527f697374656e7420746f6b656e00000000000000000000000000000000000000006020830152604082019050919050565b6000612eab601583613931565b91507f4572726f722c2077726f6e6720546f6b656e20696400000000000000000000006000830152602082019050919050565b6000612eeb601783613931565b91507f4572726f722c20546f6b656e20636f737473206d6f72650000000000000000006000830152602082019050919050565b6000612f2b603883613931565b91507f4552433732313a20617070726f76652063616c6c6572206973206e6f74206f7760008301527f6e6572206e6f7220617070726f76656420666f7220616c6c00000000000000006020830152604082019050919050565b6000612f91602a83613931565b91507f4552433732313a2062616c616e636520717565727920666f7220746865207a6560008301527f726f2061646472657373000000000000000000000000000000000000000000006020830152604082019050919050565b6000612ff7602983613931565b91507f4552433732313a206f776e657220717565727920666f72206e6f6e657869737460008301527f656e7420746f6b656e00000000000000000000000000000000000000000000006020830152604082019050919050565b600061305d602e83613931565b91507f45524337323155524953746f726167653a2055524920736574206f66206e6f6e60008301527f6578697374656e7420746f6b656e0000000000000000000000000000000000006020830152604082019050919050565b60006130c3602083613931565b91507f4552433732313a206d696e7420746f20746865207a65726f20616464726573736000830152602082019050919050565b6000613103603183613931565b91507f45524337323155524953746f726167653a2055524920717565727920666f722060008301527f6e6f6e6578697374656e7420746f6b656e0000000000000000000000000000006020830152604082019050919050565b6000613169602c83613931565b91507f4552433732313a20617070726f76656420717565727920666f72206e6f6e657860008301527f697374656e7420746f6b656e00000000000000000000000000000000000000006020830152604082019050919050565b60006131cf602083613931565b91507f4f776e61626c653a2063616c6c6572206973206e6f7420746865206f776e65726000830152602082019050919050565b600061320f602983613931565b91507f4552433732313a207472616e73666572206f6620746f6b656e2074686174206960008301527f73206e6f74206f776e00000000000000000000000000000000000000000000006020830152604082019050919050565b6000613275602f83613931565b91507f4552433732314d657461646174613a2055524920717565727920666f72206e6f60008301527f6e6578697374656e7420746f6b656e00000000000000000000000000000000006020830152604082019050919050565b60006132db602183613931565b91507f4552433732313a20617070726f76616c20746f2063757272656e74206f776e6560008301527f72000000000000000000000000000000000000000000000000000000000000006020830152604082019050919050565b6000613341601483613931565b91507f4572726f722c20546f6b656e20697320736f6c640000000000000000000000006000830152602082019050919050565b6000613381603183613931565b91507f4552433732313a207472616e736665722063616c6c6572206973206e6f74206f60008301527f776e6572206e6f7220617070726f7665640000000000000000000000000000006020830152604082019050919050565b60006133e7602c83613931565b91507f455243373231456e756d657261626c653a20676c6f62616c20696e646578206f60008301527f7574206f6620626f756e647300000000000000000000000000000000000000006020830152604082019050919050565b61344981613a84565b82525050565b600061345b8285612bef565b91506134678284612bef565b91508190509392505050565b60006020820190506134886000830184612b5f565b92915050565b60006020820190506134a36000830184612b50565b92915050565b60006080820190506134be6000830187612b5f565b6134cb6020830186612b5f565b6134d86040830185613440565b81810360608301526134ea8184612b7d565b905095945050505050565b600060808201905061350a6000830187612b5f565b6135176020830186613440565b6135246040830185613440565b81810360608301526135368184612bb6565b905095945050505050565b60006020820190506135566000830184612b6e565b92915050565b600060208201905081810360008301526135768184612bb6565b905092915050565b6000602082019050818103600083015261359781612c20565b9050919050565b600060208201905081810360008301526135b781612c86565b9050919050565b600060208201905081810360008301526135d781612cec565b9050919050565b600060208201905081810360008301526135f781612d52565b9050919050565b6000602082019050818103600083015261361781612d92565b9050919050565b6000602082019050818103600083015261363781612df8565b9050919050565b6000602082019050818103600083015261365781612e38565b9050919050565b6000602082019050818103600083015261367781612e9e565b9050919050565b6000602082019050818103600083015261369781612ede565b9050919050565b600060208201905081810360008301526136b781612f1e565b9050919050565b600060208201905081810360008301526136d781612f84565b9050919050565b600060208201905081810360008301526136f781612fea565b9050919050565b6000602082019050818103600083015261371781613050565b9050919050565b60006020820190508181036000830152613737816130b6565b9050919050565b60006020820190508181036000830152613757816130f6565b9050919050565b600060208201905081810360008301526137778161315c565b9050919050565b60006020820190508181036000830152613797816131c2565b9050919050565b600060208201905081810360008301526137b781613202565b9050919050565b600060208201905081810360008301526137d781613268565b9050919050565b600060208201905081810360008301526137f7816132ce565b9050919050565b6000602082019050818103600083015261381781613334565b9050919050565b6000602082019050818103600083015261383781613374565b9050919050565b60006020820190508181036000830152613857816133da565b9050919050565b60006020820190506138736000830184613440565b92915050565b6000604051905081810181811067ffffffffffffffff821117156138a05761389f613c09565b5b8060405250919050565b600067ffffffffffffffff8211156138c5576138c4613c09565b5b601f19601f8301169050602081019050919050565b600067ffffffffffffffff8211156138f5576138f4613c09565b5b601f19601f8301169050602081019050919050565b600081519050919050565b600081519050919050565b600082825260208201905092915050565b600082825260208201905092915050565b600081905092915050565b600061395882613a84565b915061396383613a84565b9250827fffffffffffffffffffffffffffffffffffffffffffffffffffffffffffffffff0382111561399857613997613b7c565b5b828201905092915050565b60006139ae82613a84565b91506139b983613a84565b9250826139c9576139c8613bab565b5b828204905092915050565b60006139df82613a84565b91506139ea83613a84565b9250828210156139fd576139fc613b7c565b5b828203905092915050565b6000613a1382613a64565b9050919050565b6000613a2582613a64565b9050919050565b60008115159050919050565b60007fffffffff0000000000000000000000000000000000000000000000000000000082169050919050565b600073ffffffffffffffffffffffffffffffffffffffff82169050919050565b6000819050919050565b82818337600083830152505050565b60005b83811015613abb578082015181840152602081019050613aa0565b83811115613aca576000848401525b50505050565b60006002820490506001821680613ae857607f821691505b60208210811415613afc57613afb613bda565b5b50919050565b6000613b0d82613a84565b91507fffffffffffffffffffffffffffffffffffffffffffffffffffffffffffffffff821415613b4057613b3f613b7c565b5b600182019050919050565b6000613b5682613a84565b9150613b6183613a84565b925082613b7157613b70613bab565b5b828206905092915050565b7f4e487b7100000000000000000000000000000000000000000000000000000000600052601160045260246000fd5b7f4e487b7100000000000000000000000000000000000000000000000000000000600052601260045260246000fd5b7f4e487b7100000000000000000000000000000000000000000000000000000000600052602260045260246000fd5b7f4e487b7100000000000000000000000000000000000000000000000000000000600052604160045260246000fd5b6000601f19601f8301169050919050565b613c5281613a08565b8114613c5d57600080fd5b50565b613c6981613a2c565b8114613c7457600080fd5b50565b613c8081613a38565b8114613c8b57600080fd5b50565b613c9781613a84565b8114613ca257600080fd5b5056fea2646970667358221220791772e150dd669a284767368fd3c4d4fcc5b128b000897e5dc27d5a413daab764736f6c63430008000033",
  "immutableReferences": {},
  "source": "/*\n * Work in progress\n*/\npragma solidity ^0.8.0;\n\nimport \"@openzeppelin/contracts/token/ERC721/ERC721.sol\";\nimport \"@openzeppelin/contracts/access/Ownable.sol\";\nimport \"@openzeppelin/contracts/token/ERC721/extensions/ERC721URIStorage.sol\";\nimport \"@openzeppelin/contracts/token/ERC721/extensions/ERC721Enumerable.sol\";\n\ncontract NFT is ERC721, ERC721URIStorage, ERC721Enumerable, Ownable {\n    address payable public _owner;\n    mapping(uint256 => bool) public sold;\n    mapping(uint256 => uint256) public price;\n    event Purchase(address owner, uint256 price, uint256 id, string uri);\n    constructor() ERC721(\"StoryElement\", \"SE\") {\n        _owner = payable(msg.sender);\n    }\n\n    /* \n     * Overrides\n    */ \n    function _beforeTokenTransfer(address from, address to, uint256 tokenId)\n        internal\n        override(ERC721, ERC721Enumerable)\n    {\n        super._beforeTokenTransfer(from, to, tokenId);\n    }\n\n    function _burn(uint256 tokenId) internal override(ERC721, ERC721URIStorage) {\n        super._burn(tokenId);\n    }\n\n    function tokenURI(uint256 tokenId)\n        public\n        view\n        override(ERC721, ERC721URIStorage)\n        returns (string memory)\n    {\n        return super.tokenURI(tokenId);\n    }\n\n    function supportsInterface(bytes4 interfaceId)\n        public\n        view\n        override(ERC721, ERC721Enumerable)\n        returns (bool)\n    {\n        return super.supportsInterface(interfaceId);\n    }\n\n    function mint(string memory _tokenURI, uint256 _price) public onlyOwner returns (bool)\n    {\n        uint256 _tokenId = totalSupply() + 1;\n        price[_tokenId] = _price;\n        _mint(address(this), _tokenId);\n        _setTokenURI(_tokenId, _tokenURI);\n        return true;\n    }\n\n    function buy(uint256 _id) external payable {\n        _validate(_id); \n        _trade(_id);\n        emit Purchase(msg.sender, price[_id], _id, tokenURI(_id));\n    }\n\n    function _validate(uint256 _id) internal {\n        require(_exists(_id), \"Error, wrong Token id\");\n        require(!sold[_id], \"Error, Token is sold\");\n        require(msg.value >= price[_id], \"Error, Token costs more\"); \n    }\n\n    function _trade(uint256 _id) internal {\n        _transfer(address(this), msg.sender, _id);\n        _owner.transfer(msg.value);\n        sold[_id] = true;\n    }\n}",
  "sourcePath": "/Users/nathanan/Documents/CMU Fall 2021/17-703 Cryptocurrency /Project/storyline/contracts/Nft.sol",
  "compiler": {
    "name": "solc",
    "version": "0.8.0+commit.c7dfd78e.Emscripten.clang"
  },
  "schemaVersion": "3.4.3",
  "updatedAt": "2021-10-29T03:51:38.126Z",
  "devdoc": {
    "kind": "dev",
    "methods": {
      "approve(address,uint256)": {
        "details": "See {IERC721-approve}."
      },
      "balanceOf(address)": {
        "details": "See {IERC721-balanceOf}."
      },
      "getApproved(uint256)": {
        "details": "See {IERC721-getApproved}."
      },
      "isApprovedForAll(address,address)": {
        "details": "See {IERC721-isApprovedForAll}."
      },
      "name()": {
        "details": "See {IERC721Metadata-name}."
      },
      "owner()": {
        "details": "Returns the address of the current owner."
      },
      "ownerOf(uint256)": {
        "details": "See {IERC721-ownerOf}."
      },
      "renounceOwnership()": {
        "details": "Leaves the contract without owner. It will not be possible to call `onlyOwner` functions anymore. Can only be called by the current owner. NOTE: Renouncing ownership will leave the contract without an owner, thereby removing any functionality that is only available to the owner."
      },
      "safeTransferFrom(address,address,uint256)": {
        "details": "See {IERC721-safeTransferFrom}."
      },
      "safeTransferFrom(address,address,uint256,bytes)": {
        "details": "See {IERC721-safeTransferFrom}."
      },
      "setApprovalForAll(address,bool)": {
        "details": "See {IERC721-setApprovalForAll}."
      },
      "symbol()": {
        "details": "See {IERC721Metadata-symbol}."
      },
      "tokenByIndex(uint256)": {
        "details": "See {IERC721Enumerable-tokenByIndex}."
      },
      "tokenOfOwnerByIndex(address,uint256)": {
        "details": "See {IERC721Enumerable-tokenOfOwnerByIndex}."
      },
      "totalSupply()": {
        "details": "See {IERC721Enumerable-totalSupply}."
      },
      "transferFrom(address,address,uint256)": {
        "details": "See {IERC721-transferFrom}."
      },
      "transferOwnership(address)": {
        "details": "Transfers ownership of the contract to a new account (`newOwner`). Can only be called by the current owner."
      }
    },
    "version": 1
  },
  "userdoc": {
    "kind": "user",
    "methods": {},
    "version": 1
  }
}