{
  "contractName": "Story",
  "abi": [
    {
      "inputs": [],
      "payable": false,
      "stateMutability": "nonpayable",
      "type": "constructor"
    },
    {
      "constant": false,
      "inputs": [
        {
          "name": "_content",
          "type": "string"
        },
        {
          "name": "_dateTime",
          "type": "string"
        }
      ],
      "name": "createStoryElement",
      "outputs": [],
      "payable": false,
      "stateMutability": "nonpayable",
      "type": "function"
    }
  ],
  "bytecode": "0x60806040526001805534801561001457600080fd5b5061034a806100246000396000f3fe608060405260043610610041576000357c0100000000000000000000000000000000000000000000000000000000900463ffffffff1680638316aff114610046575b600080fd5b34801561005257600080fd5b506101a36004803603604081101561006957600080fd5b810190808035906020019064010000000081111561008657600080fd5b82018360208201111561009857600080fd5b803590602001918460018302840111640100000000831117156100ba57600080fd5b91908080601f016020809104026020016040519081016040528093929190818152602001838380828437600081840152601f19601f8201169050808301925050505050505091929192908035906020019064010000000081111561011d57600080fd5b82018360208201111561012f57600080fd5b8035906020019184600183028401116401000000008311171561015157600080fd5b91908080601f016020809104026020016040519081016040528093929190818152602001838380828437600081840152601f19601f8201169050808301925050505050505091929192905050506101a5565b005b6101ad610257565b60015481600001818152505060016000815480929190600101919050555082816020018190525081816040018190525060008190806001815401808255809150509060018203906000526020600020906003020160009091929091909150600082015181600001556020820151816001019080519060200190610231929190610279565b50604082015181600201908051906020019061024e929190610279565b50505050505050565b6060604051908101604052806000815260200160608152602001606081525090565b828054600181600116156101000203166002900490600052602060002090601f016020900481019282601f106102ba57805160ff19168380011785556102e8565b828001600101855582156102e8579182015b828111156102e75782518255916020019190600101906102cc565b5b5090506102f591906102f9565b5090565b61031b91905b808211156103175760008160009055506001016102ff565b5090565b9056fea165627a7a72305820e1282cc37291d3b8dc1c136cb55b24349b205212a56606d590da708e83a555170029",
  "source": "pragma solidity ^0.5.0;\n \n/**\n * @title Story Smart Contract\n * @notice Primary smart contract for running Storyline operations.\n */\ncontract Story {\n  /**\n   * StoryElement Struct.\n   * A single piece of Storyline content, published by a writer.\n   * @dev Any metadata about story content should go here.\n   */\n  struct StoryElement {\n    uint256 id;\n    string content;\n    string dateTime;\n  }\n\n  /**\n   * StoryElement Master List.\n   * List of StoryElement structs, in published order.\n   * StoryLine should traverse this to build the latest story.\n   * @dev Newly published StoryElements should go here.\n   */\n  StoryElement[] story;\n\n  /**\n   * Next available StoryElement id.\n   * This should realistically never reach the maximum representation.\n   */\n  uint256 nextElementId = 1;\n\n  /**\n   * Story contract constructor.\n   * @dev This should initialize the default story to \"Once upon a time \"\n   */\n  constructor() public {\n    // TODO: Implement me\n  }\n\n  /**\n   * Initializes a new StoryElement struct and adds it to the story.\n   * This should populate the fresh struct with the given values.\n   * @param _content the text associated with the StoryElement\n   * @param _dateTime the date and time, in Moment.JS format, of publication\n   * @return nothing\n   */\n  function createStoryElement(\n    string memory _content, \n    string memory _dateTime\n  ) public { \n    // Get a new zero-initialized StoryElement struct, and populate it...\n    StoryElement memory newElem;\n\n    newElem.id = nextElementId;\n    nextElementId++;\n\n    newElem.content = _content;\n\n    newElem.dateTime = _dateTime;\n\n    story.push(newElem);\n  }\n\n  /**\n   * TODO: write this function header\n   */\n  /* TODO: Implement function\n  function getFullStory() public returns (StoryElement[]) {}\n  */\n\n\n  /**\n   * TODO: write this function header\n   */\n  /* TODO: Implement function\n  function getStoryElement(uint256 memory _id) public returns (StoryElement) {}\n  */\n\n}\n",
  "sourcePath": "/Users/jjcheng77/Documents/DriveSynced/CMU/FourthYear/17733/storyline/contracts/Story.sol",
  "compiler": {
    "name": "solc",
    "version": "0.5.0+commit.1d4f565a.Emscripten.clang"
  },
  "schemaVersion": "3.0.1",
  "updatedAt": "2021-10-18T03:39:44.628Z",
  "devdoc": {
    "methods": {
      "constructor": {
        "details": "This should initialize the default story to \"Once upon a time \""
      },
      "createStoryElement(string,string)": {
        "params": {
          "_content": "the text associated with the StoryElement",
          "_dateTime": "the date and time, in Moment.JS format, of publication"
        },
        "return": "nothing"
      }
    },
    "title": "Story Smart Contract"
  },
  "userdoc": {
    "methods": {
      "constructor": "Story contract constructor.",
      "createStoryElement(string,string)": {
        "notice": "Initializes a new StoryElement struct and adds it to the story. This should populate the fresh struct with the given values."
      }
    },
    "notice": "Primary smart contract for running Storyline operations."
  }
}