{
  "contractName": "Story",
  "abi": [
    {
      "inputs": [],
      "stateMutability": "nonpayable",
      "type": "constructor"
    },
    {
      "inputs": [
        {
          "internalType": "string",
          "name": "_content",
          "type": "string"
        },
        {
          "internalType": "string",
          "name": "_dateTime",
          "type": "string"
        }
      ],
      "name": "createStoryElement",
      "outputs": [],
      "stateMutability": "nonpayable",
      "type": "function"
    },
    {
      "inputs": [],
      "name": "getFullStory",
      "outputs": [
        {
          "components": [
            {
              "internalType": "uint256",
              "name": "id",
              "type": "uint256"
            },
            {
              "internalType": "string",
              "name": "content",
              "type": "string"
            },
            {
              "internalType": "string",
              "name": "dateTime",
              "type": "string"
            }
          ],
          "internalType": "struct Story.StoryElement[]",
          "name": "",
          "type": "tuple[]"
        }
      ],
      "stateMutability": "view",
      "type": "function"
    },
    {
      "inputs": [
        {
          "internalType": "uint256",
          "name": "_id",
          "type": "uint256"
        }
      ],
      "name": "getStoryElement",
      "outputs": [
        {
          "components": [
            {
              "internalType": "uint256",
              "name": "id",
              "type": "uint256"
            },
            {
              "internalType": "string",
              "name": "content",
              "type": "string"
            },
            {
              "internalType": "string",
              "name": "dateTime",
              "type": "string"
            }
          ],
          "internalType": "struct Story.StoryElement",
          "name": "",
          "type": "tuple"
        }
      ],
      "stateMutability": "view",
      "type": "function"
    }
  ],
  "bytecode": "0x608060405234801561001057600080fd5b5060018081905550610bac806100276000396000f3fe608060405234801561001057600080fd5b50600436106100415760003560e01c80630a4f47aa146100465780634604a8f0146100645780638316aff114610094575b600080fd5b61004e6100b0565b60405161005b91906108cf565b60405180910390f35b61007e600480360381019061007991906106e7565b61023d565b60405161008b9190610911565b60405180910390f35b6100ae60048036038101906100a9919061067b565b610485565b005b60606000805480602002602001604051908101604052809291908181526020016000905b8282101561023457838290600052602060002090600302016040518060600160405290816000820154815260200160018201805461011190610a46565b80601f016020809104026020016040519081016040528092919081815260200182805461013d90610a46565b801561018a5780601f1061015f5761010080835404028352916020019161018a565b820191906000526020600020905b81548152906001019060200180831161016d57829003601f168201915b505050505081526020016002820180546101a390610a46565b80601f01602080910402602001604051908101604052809291908181526020018280546101cf90610a46565b801561021c5780601f106101f15761010080835404028352916020019161021c565b820191906000526020600020905b8154815290600101906020018083116101ff57829003601f168201915b505050505081525050815260200190600101906100d4565b50505050905090565b61024561053a565b60005b600080549050811015610444578260008281548110610290577f4e487b7100000000000000000000000000000000000000000000000000000000600052603260045260246000fd5b906000526020600020906003020160000154141561043157600081815481106102e2577f4e487b7100000000000000000000000000000000000000000000000000000000600052603260045260246000fd5b90600052602060002090600302016040518060600160405290816000820154815260200160018201805461031590610a46565b80601f016020809104026020016040519081016040528092919081815260200182805461034190610a46565b801561038e5780601f106103635761010080835404028352916020019161038e565b820191906000526020600020905b81548152906001019060200180831161037157829003601f168201915b505050505081526020016002820180546103a790610a46565b80601f01602080910402602001604051908101604052809291908181526020018280546103d390610a46565b80156104205780601f106103f557610100808354040283529160200191610420565b820191906000526020600020905b81548152906001019060200180831161040357829003601f168201915b505050505081525050915050610480565b808061043c90610a78565b915050610248565b506040517f08c379a0000000000000000000000000000000000000000000000000000000008152600401610477906108f1565b60405180910390fd5b919050565b61048d61053a565b600154816000018181525050600160008154809291906104ac90610a78565b9190505550828160200181905250818160400181905250600081908060018154018082558091505060019003906000526020600020906003020160009091909190915060008201518160000155602082015181600101908051906020019061051592919061055b565b50604082015181600201908051906020019061053292919061055b565b505050505050565b60405180606001604052806000815260200160608152602001606081525090565b82805461056790610a46565b90600052602060002090601f01602090048101928261058957600085556105d0565b82601f106105a257805160ff19168380011785556105d0565b828001600101855582156105d0579182015b828111156105cf5782518255916020019190600101906105b4565b5b5090506105dd91906105e1565b5090565b5b808211156105fa5760008160009055506001016105e2565b5090565b600061061161060c84610964565b610933565b90508281526020810184848401111561062957600080fd5b610634848285610a04565b509392505050565b600082601f83011261064d57600080fd5b813561065d8482602086016105fe565b91505092915050565b60008135905061067581610b5f565b92915050565b6000806040838503121561068e57600080fd5b600083013567ffffffffffffffff8111156106a857600080fd5b6106b48582860161063c565b925050602083013567ffffffffffffffff8111156106d157600080fd5b6106dd8582860161063c565b9150509250929050565b6000602082840312156106f957600080fd5b600061070784828501610666565b91505092915050565b600061071c8383610812565b905092915050565b600061072f826109a4565b61073981856109c7565b93508360208202850161074b85610994565b8060005b8581101561078757848403895281516107688582610710565b9450610773836109ba565b925060208a0199505060018101905061074f565b50829750879550505050505092915050565b60006107a4826109af565b6107ae81856109d8565b93506107be818560208601610a13565b6107c781610b4e565b840191505092915050565b60006107df6009836109e9565b91507f4e6f7420666f756e6400000000000000000000000000000000000000000000006000830152602082019050919050565b600060608301600083015161082a60008601826108c0565b50602083015184820360208601526108428282610799565b9150506040830151848203604086015261085c8282610799565b9150508091505092915050565b600060608301600083015161088160008601826108c0565b50602083015184820360208601526108998282610799565b915050604083015184820360408601526108b38282610799565b9150508091505092915050565b6108c9816109fa565b82525050565b600060208201905081810360008301526108e98184610724565b905092915050565b6000602082019050818103600083015261090a816107d2565b9050919050565b6000602082019050818103600083015261092b8184610869565b905092915050565b6000604051905081810181811067ffffffffffffffff8211171561095a57610959610b1f565b5b8060405250919050565b600067ffffffffffffffff82111561097f5761097e610b1f565b5b601f19601f8301169050602081019050919050565b6000819050602082019050919050565b600081519050919050565b600081519050919050565b6000602082019050919050565b600082825260208201905092915050565b600082825260208201905092915050565b600082825260208201905092915050565b6000819050919050565b82818337600083830152505050565b60005b83811015610a31578082015181840152602081019050610a16565b83811115610a40576000848401525b50505050565b60006002820490506001821680610a5e57607f821691505b60208210811415610a7257610a71610af0565b5b50919050565b6000610a83826109fa565b91507fffffffffffffffffffffffffffffffffffffffffffffffffffffffffffffffff821415610ab657610ab5610ac1565b5b600182019050919050565b7f4e487b7100000000000000000000000000000000000000000000000000000000600052601160045260246000fd5b7f4e487b7100000000000000000000000000000000000000000000000000000000600052602260045260246000fd5b7f4e487b7100000000000000000000000000000000000000000000000000000000600052604160045260246000fd5b6000601f19601f8301169050919050565b610b68816109fa565b8114610b7357600080fd5b5056fea26469706673582212203101e32c8d1bb36652fa22f8bad658f632084a1b88931f01f9f45eff51e6984464736f6c63430008000033",
  "immutableReferences": {},
  "source": "pragma solidity ^0.8.0;\n \n/*\n * @title Story Smart Contract\n * @notice Primary smart contract for running Storyline operations.\n */\ncontract Story {\n  /*\n   * StoryElement Struct.\n   * A single piece of Storyline content, published by a writer.\n   * @dev Any metadata about story content should go here.\n   */\n  struct StoryElement {\n    uint256 id;\n    string content;\n    string dateTime;\n  }\n\n  /*\n   * StoryElement Master List.\n   * List of StoryElement structs, in published order.\n   * StoryLine should traverse this to build the latest story.\n   * @dev Newly published StoryElements should go here.\n   */\n  StoryElement[] story;\n\n  /*\n   * Next available StoryElement id.\n   * This should realistically never reach the maximum representation.\n   */\n  uint256 nextElementId;\n\n  /*\n   * Story contract constructor.\n   * @dev This should initialize the default story to \"Once upon a time \"\n   */\n  constructor() {\n    nextElementId = 1;\n  }\n\n  /*\n   * Initializes a new StoryElement struct and adds it to the story.\n   * This should populate the fresh struct with the given values.\n   * @param _content the text associated with the StoryElement\n   * @param _dateTime the date and time, in Moment.JS format, of publication\n   * @return nothing\n   */\n  function createStoryElement(\n    string memory _content, \n    string memory _dateTime\n  ) public { \n    // Get a new zero-initialized StoryElement struct, and populate it...\n    StoryElement memory newElem;\n\n    newElem.id = nextElementId;\n    nextElementId++;\n\n    newElem.content = _content;\n    newElem.dateTime = _dateTime;\n\n    story.push(newElem);\n  }\n\n  /*\n   * getFullStory serves as a getter for the story\n   */\n  function getFullStory() public view returns (StoryElement[] memory) {\n    return story;\n  }\n\n\n\n  /*\n   * getFullStory serves as a getter for an element within the story\n   * If story with _id is not found, create error of type Panic(uint256)\n   */\n  function getStoryElement(uint256 _id) public view returns (StoryElement memory) {\n    // @dev May need to restructure story for efficiency\n    for(uint256 i=0; i<story.length; i++) {\n        if (story[i].id == _id) {\n          return story[i];\n        }\n    }\n    revert('Not found');\n  }\n}\n",
  "sourcePath": "/Users/nathanan/Documents/CMU Fall 2021/17-703 Cryptocurrency /Project/storyline/contracts/Story.sol",
  "compiler": {
    "name": "solc",
    "version": "0.8.0+commit.c7dfd78e.Emscripten.clang"
  },
  "schemaVersion": "3.4.3",
  "updatedAt": "2021-10-29T01:17:13.223Z",
  "devdoc": {
    "kind": "dev",
    "methods": {},
    "version": 1
  },
  "userdoc": {
    "kind": "user",
    "methods": {},
    "version": 1
  }
}